:100000000C9477000C949F000C949F000C949F001C
:100010000C949F000C949F000C949F000C949F00E4
:100020000C949F000C949F000C949F000C947A0FEA
:100030000C949F000C949F000C949F000C949F00C4
:100040000C948B110C949F000C94F7140C942915AC
:100050000C949F000C949F000C949F000C949F00A4
:100060000C944F0E0C949F00CA0AA20B0B0AA20B11
:10007000740AA20BEA099909A20BA20BA20BA20B0C
:10008000E20AAE08A20B8209A20BCF090000000809
:10009000000201000003040700000000000000004F
:1000A000010204081020408001020408102001020F
:1000B00004081020040404040404040402020202DC
:1000C00002020303030303030000000023002600D1
:1000D000290000000000250028002B00000000007F
:1000E000240027002A0098040F086D0D59151124CB
:1000F0001FBECFEFD8E0DEBFCDBF12E0A0E0B1E081
:10010000ECEEFFE202C005900D92A233B107D9F7E1
:1001100024E0A2E3B2E001C01D92AD3FB207E1F7D7
:1001200010E0CEEED0E004C02297FE010E947B16C4
:10013000C63ED107C9F70E940C160C94F4170C9414
:100140000000CF92DF92EF92FF920F931F93E82F60
:10015000F92F05C0015011092109310961F1908180
:1001600096239417B9F305C00150110921093109EB
:1001700011F1908196239413F7CFC12CD12CE12C4F
:10018000F12C0AC08FEFC81AD80AE80AF80A0C1531
:100190001D052E053F0579F080818623841791F394
:1001A0006C2D7D2D8E2D9F2D1F910F91FF90EF9027
:1001B000DF90CF90089560E070E080E090E01F91C4
:1001C0000F91FF90EF90DF90CF9008950F931F93C2
:1001D000CF93DF93EC018B0188819981DC01ED9154
:1001E000FC916F770190F081E02D099588819981CC
:1001F000DC01ED91FC91B801660F672F661F770B4C
:100200006F770190F081E02DDF91CF911F910F91D9
:100210000994DC018D919C91DC01ED91FC910190A0
:10022000F081E02D60EF0994DC018D919C91DC015F
:10023000ED91FC910190F081E02D67EF0994CF934F
:10024000DF93EC0188819981DC01ED91FC910190B3
:10025000F081E02D69EF099588819981DC01ED91AC
:10026000FC910190F081E02D62E0099588819981EF
:10027000DC01ED91FC910190F081E02D64E0DF91D3
:10028000CF9109941F93CF93DF93EC018A81882348
:10029000D9F1CE010E94090188819981DC01ED919B
:1002A000FC910190F081E02D69E7099588819981A1
:1002B000DC01ED91FC91AB81BC810190F081E02DDE
:1002C0006C91099588819981DC01ED91FC91AB815C
:1002D000BC810190F081E02D11966C91099512E09E
:1002E0008A81181758F4EB81FC81E10FF11D6081C0
:1002F00070E0CE010E94E6001F5FF2CFCE01DF91D9
:10030000CF911F910C941401DF91CF911F9108950B
:10031000CF92DF92EF92FF920F931F93CF93DF93D1
:100320008C01EB01C42ED22E6EE071E0CE010E9452
:10033000DA177C016FE270E0CE010E94CF170097C0
:1003400039F46CE570E0CE010E94CF17009711F0F0
:10035000EC012196E114F10451F4FE01019000201A
:10036000E9F7EC1BEF5FD8011296EC9306C0EC1A8C
:10037000FD0AE394E394F801E282D80113968D918B
:100380009C9114970E943117F801E280F12CC7016B
:100390000E949916D80114969C938E931397DC01B2
:1003A000AE0DBF1D1C92FC01C082D182D8011296F5
:1003B0004C9150E042505109BE010296DF91CF911D
:1003C0001F910F91FF90EF90DF90CF900C94C0178A
:1003D000DC018D919C91DC01ED91FC910480F58113
:1003E000E02D09940F931F93CF93DF93FC01208599
:1003F000213749F0293709F049C0DF91CF911F918A
:100400000F910C944201FC01E95AFF4F0190F081D9
:10041000E02D309709F450C0DC01A75BBF4F4D9130
:100420005C919A012150310937FD9A01B901759506
:100430006795062F40E050E020E030E04E5F5F4FD0
:100440002017A0F4EC01C40FD51F1F81DC01A20FFF
:10045000B31F18961C931897C885D0E8CD9F101924
:10046000112418961C932F5F3F4FE8CFDC01A60F95
:10047000B11D17962C911797222311F018961C92F4
:100480000896DF91CF911F910F910994FC01E75AD3
:10049000FF4F0190F081E02D309771F0AC01475F84
:1004A0005F4FDC01A75BBF4F6C916150822FDF91E2
:1004B000CF911F910F910994DF91CF911F910F91CF
:1004C00008950F931F93CF93DF93EC018A018881E6
:1004D0009981DC01ED91FC916F70606E0190F0816B
:1004E000E02D0995B801CE01DF91CF911F910F91B9
:1004F0000C94E6000F931F93CF93DF93EC018A01D6
:1005000088819981DC01ED91FC916F7060690190A7
:10051000F081E02D099588819981DC01ED91FC91B4
:10052000602F6F770190F081E02D09958881998186
:10053000DC01ED91FC91B801660F672F661F770B08
:100540000190F081E02DDF91CF911F910F910994DF
:10055000CF92DF92EF92FF920F931F93CF93DF938F
:1005600000D01F92CDB7DEB78C01F42E2A833B83D7
:1005700069830E940901D8018D919C91DC01ED9164
:10058000FC910190F081E02D698109952A81E22E8C
:10059000C22E3B81D32E8C2D8E198F1540F4F6017F
:1005A00061916F0170E0C8010E94E600F4CFC801BC
:1005B0000F900F900F90DF91CF911F910F91FF90AF
:1005C000EF90DF90CF900C9414019A01FA01019002
:1005D0000020E9F73197E41BF50B4E2F0C94A8028D
:1005E000AB0161E70C94E502DC018D919C91DC018B
:1005F000ED91FC910190F081E02D0994603DB9F0FE
:1006000028F4603961F0603C71F00895603E19F0A3
:10061000643F89F00895FC01E55BFF4F0FC0FC01CA
:10062000E35BFF4F0BC0FC01E15BFF4F07C0FC0128
:10063000EF5AFF4F03C0FC01ED5AFF4F5183408337
:1006400008956F3F29F4FC01EB5AFF4F518340831B
:100650000895875A9F4FFC01518340830895FC0100
:1006600015821682178280E090E0DF01A80FB91F83
:1006700018961C92019680349105B9F7DF01A85BAA
:10068000BF4F1C9211961D921C92EB5AFF4F019086
:10069000F081E02D309709F009940895FC01128251
:1006A000148213820C942F03CF93DF93EC01888183
:1006B0009981DC01ED91FC910680F781E02D09958F
:1006C000FE01E85BFF4F20812223B1F0873F9105B7
:1006D00031F41082CE01DF91CF910C94F201FE0132
:1006E000E75BFF4F20813181C20FD31F88872F5FC7
:1006F0003F4F318320839DC02D81222309F45EC0AA
:10070000803891050CF05AC09FEF920F9D83FE0137
:10071000E90FF11D808791118CC08E81882309F427
:1007200088C0803DE9F148F48039E9F0803C09F067
:1007300043C0FE01E15BFF4F36C0803E19F0843FAD
:1007400019F13AC0FE01E55BFF4F0190F081E02D09
:10075000309791F18885698570E0B0E88B9F600DD6
:10076000711D112427C0FE01E35BFF4F0190F08152
:10077000E02D309709F18885698570E090E8899FC0
:10078000600D711D112416C0FE01ED5AFF4F01903E
:10079000F081E02D309781F0688570E089850BC08D
:1007A000FE01EF5AFF4F0190F081E02D309721F0CC
:1007B000688570E08F8109951E823BC0803F91055E
:1007C0002CF4282F2F702F83807F9927803E91054E
:1007D00021F154F4803C910511F1803D9105F9F02F
:1007E0008039910531F519C0843F9105B1F054F479
:1007F000803F9105F1F481E08083C75BDF4F198270
:10080000188217C0893F910571F08F3F910589F4D7
:10081000CE01DF91CF910C942F0392E001C091E0C3
:100820009D838E8306C082E392E0DF91CF910C948A
:100830001F01DF91CF9108958F929F92AF92BF9247
:10084000CF92DF92EF92FF921F93CF93DF93EB0152
:100850004A01690161E08DE00E94171310E0EE2467
:10086000D7FCE094FE2CAA2497FCA094BA2C812FEC
:1008700090E08C179D0794F4C701B6010E94041202
:1008800061E08DE00E945013C501B4010E94041282
:1008900060E08DE00E9450131F5FE9CFDF91CF91A0
:1008A0001F91FF90EF90DF90CF90BF90AF909F90FF
:1008B0008F900895CF93DF93EC0161E08DE00E946B
:1008C000171322ED30E048E250E062E070E0CE0124
:1008D0000E941C046AEF70E080E090E00E94041225
:1008E00022ED30E048E250E064E070E0CE010E948A
:1008F0001C046DE770E080E090E0DF91CF910C94F4
:100900000412CF93DF93EC0126E08CE594E00E9483
:1009100095148CE594E099838883CE010E945A0453
:10092000CE010E941F01CE01DF91CF910C944201B4
:1009300082E392E00C944E03833008F062C0482FAB
:10094000440F440F440F485F473108F046E1582FE9
:10095000550F550F550F90E071E05417E8F42EEF46
:10096000250F2231B0F4E52FF0E0DF01A15BBC4F91
:100970002C91223070F4972BEE0FFF1FE05EFC4F9E
:1009800021E030E0A72FA62311F420E030E03183EE
:100990002083770F5F5FE1CF81110AC09C7FF894BD
:1009A0002BB1892F809582239623892B8BB928C060
:1009B0008130C9F46923F89425B1892F8F7380950C
:1009C0008223262F2F73822B85B988B16295669575
:1009D00066956370929596959695937090959823E9
:1009E000692B68B90DC09F70F89428B1892F880FC2
:1009F000880F809582236923660F660F862B88B93E
:100A0000789408950F931F93CF93DF93EB01863172
:100A100080F5082F10E0F801E15BFC4F90819330E6
:100A2000A1F0943031F582508231E0F4F801E556BE
:100A3000FD4F208130E0C901880F991F820F931F5D
:100A40008F549D4F0E9417110DC0833041F09BEFD2
:100A5000980F923020F097EF980F933018F4BE0162
:100A60000E948F12F801EE0FFF1FE05EFC4FD18352
:100A7000C083DF91CF911F910F910895CF93C82F1D
:100A8000883030F540916B0350916C0321E030E0E9
:100A9000082E02C0220F331F0A94E2F7672B49F495
:100AA000209530952423352330936C0320936B03DA
:100AB0000FC0242B352B30936C0320936B030E94C3
:100AC0007212AC016C2F82E392E0CF910C94610220
:100AD000CF910895DB019A0190918D029C30D0F561
:100AE00040918E02682F70E0442369F0E42FF0E01B
:100AF000E257FD4F8081FB01E556FD4F8083415059
:100B000040938E0207C0FB01E556FD4F90839F5F27
:100B100090938D02FB01E556FD4F1A161B067CF4DF
:100B20001216130664F4408150E0CA01880F991F21
:100B3000840F951FAD018F549D4F0C94521020814E
:100B400030E0C901880F991F820F931F8F549D4F6A
:100B50000C94D01063E171E082E392E00C94F00217
:100B6000CF93DF93C82FD0E0C556DD4F288130E00A
:100B7000C901880F991F820F931F8F549D4F0E94A8
:100B8000D610888190918D02891306C0882379F050
:100B9000815080938D020BC0992349F0E0918E0221
:100BA000EF5FE0938E02F0E0E257FD4F80838FEF1E
:100BB0008883DF91CF9108951F93CF93DF93162FF2
:100BC000C82FD0E0FE01E45BFC4F90811923CB5984
:100BD000DC4F411103C09881911741F0412F50E043
:100BE000682F82E392E00E947A021883DF91CF910E
:100BF0001F910895833020F5282F30E0F901E8593E
:100C0000FC4F6083672BE1F0F901E45BFC4F9081BE
:100C1000811103C069B16C7F0FC0813049F463B1A9
:100C200026B140E4249F900111246F73622B04C00D
:100C300066B16C7366956695692341E00C94DC059A
:100C4000089580916803882349F069B180914C032D
:100C500068236C7F40E080E00E94DC05809169039E
:100C6000882379F063B186B120E4829FC00111240A
:100C70006F73682B80914D03682340E081E00E94F0
:100C8000DC0580916A03882359F066B16C73669520
:100C9000669580914E03682340E082E00C94DC0569
:100CA00008951092D7028FEF80930A010895AF92B2
:100CB000BF92DF92EF92FF920F931F93CF93DF9338
:100CC00000D0CDB7DEB7D82E5B01E82EF12C87011E
:100CD000015B1C4FF8018081863049F48091D70276
:100CE000882329F06630710511F00E9451064EEFFD
:100CF0004D0D4231C0F484E0A816B104A1F0F70113
:100D0000E556FD4F20812C3070F430E0C901880F8A
:100D1000991F820F931F8F549D4F4A830E947C110D
:100D20004A818111C3C092EF9D0D983078F461E043
:100D300070E0E2E0AE16B10411F060E070E0892FDF
:100D40004A8399830E943E0599814A814231D8F4B1
:100D5000ED2DE695E695E6958D2D8770F0E0E45B48
:100D6000FC4F21E030E0082E01C0220F0A94EAF780
:100D7000A114B10421F48081822B808304C02095CA
:100D8000808128232083F701EE0FFF1FE05EFC4FD8
:100D900011821082F2E0AF16B104A1F03CF4A1146C
:100DA000B104F9F0AA94AB2851F16FC0F4E0AF168A
:100DB000B10409F448C084F1E6E0AE16B10409F4C8
:100DC0005CC063C0983008F089C0423140F460E0F4
:100DD0008D2D0E94171360E08D2D0E94501382E02C
:100DE00051C0423108F07AC060E08D2D0E94171387
:100DF00060E08D2D0E945013F80110826FC04231C7
:100E000008F06CC060E08D2D0E94501361E08D2DC4
:100E10000E94171381E036C0F3E0DF1649F08BEF34
:100E20008D0D823028F087EF8D0D833008F056C08D
:100E300061E08D2D0E94171360E070E08D2D0E94FF
:100E40008F1283E01FC0423108F048C084E0F801EF
:100E50008083F701E556FD4F80818F3F69F190E077
:100E60009C01220F331F280F391FC9018F549D4F3A
:100E70000E947C11811132C01FC08EEE8D0D823018
:100E800068F586E0F801808329C067E271E082E3BB
:100E900092E00F900F90DF91CF911F910F91FF90F3
:100EA000EF90DF90BF90AF900C94F0028D2D4A83AD
:100EB0000E94B0054A8137CF4FEF5FEF6FEF7FEFB2
:100EC0008D2D0F900F90DF91CF911F910F91FF907B
:100ED000EF90DF90BF90AF900C946A050F900F9049
:100EE000DF91CF911F910F91FF90EF90DF90BF9016
:100EF000AF900895CF93C0E08EEE8C0F823028F42F
:100F000066E070E08C2F0E945706CF5FC631A1F7D4
:100F100081E08093D7028DE693E0CF910C94DF0CB3
:100F20000F931F93CF93DF938091D70281110E947B
:100F300051061092680310924C03109265031092B0
:100F4000690310924D031092660310926A03109287
:100F50004E0310926703CBE9D2E010E00FEF82EF6F
:100F6000810F883018F462E070E002C061E070E048
:100F7000812F0E94570609931F5F163181F7109247
:100F80006C0310926B0310928E0210928D02DF910F
:100F9000CF911F910F91089524E042E068E371E042
:100FA00082E392E00E94880142E055E060EE82E335
:100FB00092E00E94FE024CE954E060E982E392E094
:100FC0000E94FE024EE355E060EC82E392E00E9454
:100FD000FE024AEF55E060ED82E392E00E94FE02DD
:100FE00047E556E064EF82E392E00E94FE0240E9AA
:100FF00058E060EF82E392E00E94290340E957E065
:101000006FEF82E392E00E94210340E051EE60E046
:1010100070E082E392E00E9481040C949007CF93E9
:10102000DF93C1EBD2E0CE010E943610239682E01E
:10103000C53DD807C1F7DF91CF910895DF92EF92B8
:10104000FF920F931F93CF93DF93F82EEB01D42ED3
:101050006F3F8FEF7807B9F06F2D8DE693E00E9418
:10106000E90C6C2F8DE693E00E94A00C8DE693E0D6
:101070000E946A0D8091D5029091D602009729F0C6
:101080000E942C1202C0C0E0D0E04D2D6F2D8DE6E5
:1010900093E00E94670D0D2D10E08DE693E00E9415
:1010A000480C081719071CF461E971E009C08DE6C6
:1010B00093E00E94480C8017910734F469EB71E0CB
:1010C00082E392E00E94F002F092D802C093D9022B
:1010D0006AEDE62E62E0F62EC0E0D0E0C017D10740
:1010E00084F042E04D0D28ED32E067E782E392E0C4
:1010F000DF91CF911F910F91FF90EF90DF900C94B3
:10110000A8028DE693E00E94480C892B51F38DE6EE
:1011100093E00E94500CF70181937F012196DECF6E
:10112000CF92DF92EF92FF920F931F93CF93DF93B3
:10113000CDB7DEB729970FB6F894DEBF0FBECDBF8F
:10114000362F8A0190E0FC01E956F109E231F10500
:1011500008F0F8C2EC5CFF4F0C947916DA01119696
:101160008C91982F987185FF03C060EE71E055C097
:10117000FA018081983081F158F49111E3C2682F0F
:101180008DE693E039870E94E90C22E0F22E07C039
:10119000903109F43CC0983109F471C0D3C239854B
:1011A000F31688F4F801EF0DF11D81816081F0E8FC
:1011B0008F9F601911248DE693E039870E94A00C5F
:1011C000F394F394ECCF8DE693E00E946A0D86E4ED
:1011D00090E00E942C12B6C242816381363071F4D5
:1011E000B0E86B9FB0011124640F711DF801958167
:1011F0004481F0E89F9F4019112406C020E8629FB7
:10120000401911246FEF7FEF0E941E089BC2E091EE
:101210000A01E7303CF060E072E082E392E00E9475
:10122000F00290C2DA0112969C91129713962C91BB
:10123000663089F4B0E82B9F90011124290F311DED
:10124000DA0115964C91159714969C91B0E84B9F36
:101250009019112406C0F0E82F9F901911242FEF48
:101260003FEFEF5FE0930A0144E0E402F001112454
:10127000E850FD4F808332832183938363C2509172
:101280000A01151634F440E0252F332727FD309549
:101290000EC08FEF80930A0155C2EE0FFF1FEE0FB5
:1012A000FF1FE850FD4F9081981719F14F5FE42F11
:1012B000F0E02E173F078CF740E01BC04830C0F429
:1012C000DF01AA0FBB1FAA0FBB1FA450BD4F8C91FB
:1012D000EE0FFF1FEE0FFF1FE850FD4F80831196AA
:1012E0008D919C9112979283818313968C91838325
:1012F0004F5FE42FF0E02E173F0704F75150509353
:101300000A0120C2DA012C9111968C91B0E88B9FD2
:10131000C0011124820F911D009721F09093D602F5
:101320008093D5028091D70281110CC20E947A0766
:1013300009C2653008F406C2FA01F080E180D2806B
:10134000C38014818EEF8F0D823108F0FBC1EF2D29
:10135000F0E0E556FD4FE081EC3060F4F0E0CF01C5
:10136000880F991F8E0F9F1F8F549D4F0E947C11D5
:101370008111E4C1F0E81F9FA00111244C0D511D03
:1013800020E8D29EB00111246E0D711D8F2D0E9498
:101390006A0564E070E08F2D0E945706D3C1623069
:1013A00008F4D0C1DA012C9111968C91B0E88B9F92
:1013B000C0011124820F911D90930C0180930B01A9
:1013C0000A9708F0BFC18AE090E090930C018093E7
:1013D0000B01B8C1623008F4B5C1FA01618170E057
:1013E0003230A1F08281F0E88F9FC0011124682B78
:1013F000792B333059F0DA0113968C9190E090E418
:10140000899F902D88271124682B792BF8018081E2
:101410000E94020597C160EF82E392E00E94F4020D
:101420006CE682E392E00E94F4021EEF84EF810FEB
:10143000883058F462E082E392E00E94F4026AE0AD
:1014400082E392E00E94F4020DC0113059F463E08F
:1014500082E392E00E94F40268E082E392E00E945C
:10146000F40208C08DEF810F823088F389EF810F7D
:10147000833068F3123150F464E082E392E00E941A
:10148000F4026EE082E392E00E94F40280EF810FAA
:10149000823050F466E082E392E00E94F40261E060
:1014A00082E392E00E94F4026FE782E392E00E94FE
:1014B000F4021F5F143171F1123108F0B7CF60E010
:1014C00082E392E00E94F40261E082E392E00E94F3
:1014D000F40261E082E392E00E94F40261E082E3C0
:1014E00092E00E94F402A2CF662309F42BC1DA0134
:1014F0000C9160EF82E392E00E94F4026EE682E3D8
:1015000092E00E94F402602F82E392E00E94F402D3
:10151000063130F067EF82E392E00E94F40212C1DC
:1015200010E0F801E15BFC4F608182E392E00E94F1
:10153000F402000F111FF801E05EFC4F7F01608193
:101540006F7782E392E00E94F402D7016D917C9163
:10155000CB018078892B49F0660F672F661F770BC8
:101560006F7782E392E00E94F402F801E05EFC4FA4
:1015700060817181CB018827907C892B59F2770F8C
:10158000660B770F762F661F6F7782E392E00E94DB
:10159000F402C0CF60EF82E392E00E94F4026AE6B8
:1015A00082E392E00E94F40212EF183010F06FE72D
:1015B00001C0612F82E392E00E94F4021F5F1830A5
:1015C000A1F7A8CFFA018381C28080FBC7F8D12C94
:1015D000E12CF12CFC2CEE24DD24CC24958184819B
:1015E00090FB87F990E0A0E0B0E0DC019927882724
:1015F000C80ED91EEA1EFB1E9185808590FB87F9D7
:10160000C80ED11CE11CF11C9781868190FB87F9E3
:1016100090E0A0E0B0E0BA2FA92F982F8827C80E3D
:10162000D91EEA1EFB1E818161E08130C1F48081F8
:101630000E94171360E0D8018C910E94501382E041
:1016400090E00E942C1261E0F80180810E9450130A
:10165000C6010E942C1260E0D8018C9113C0FA01DF
:1016600080810E94501382E090E00E942C1260E082
:10167000D8018C910E945013C6010E942C1261E087
:10168000F80180810E945013D8011B968C911B9702
:101690001A962C9180FB27F9822F90E0A0E0B0E011
:1016A000582F442733272227F8019585848590FBFE
:1016B00087F990E0A0E0B0E0DC0199278827280FA7
:1016C000391F4A1F5B1F9189808990FB87F9280F7A
:1016D000311D411D511D9785868590FB87F990E04E
:1016E000A0E0B0E0BA2FA92F982F8827280F391F24
:1016F0004A1F5B1F60E080812E8339874F835887A4
:101700000E9417132E8139854F815885D801119673
:101710006C9111978C910E948613F8012081298386
:101720009A838B837C836D839E012F5F3F4F45E0BF
:1017300065E782E392E00E94A80204C08F2D0E9418
:10174000B00518CE29960FB6F894DEBF0FBECDBFF8
:10175000DF91CF911F910F91FF90EF90DF90CF908D
:1017600008958F929F92AF92BF92CF92DF92EF92A5
:10177000FF920F931F93CF93DF930E94210682E382
:1017800092E00E94E801892B29F082E392E00E9416
:101790005403F5CF0E94D51160931C0370931D0371
:1017A00080931E0390931F03C0901803D0901903D9
:1017B000E0901A03F0901B0340910B0150910C0133
:1017C0004A01A12CB12C8B019C010C191D092E0979
:1017D0003F0980169106A206B30608F04CC0D50159
:1017E000C4018C0D9D1DAE1DBF1D809318039093E9
:1017F0001903A0931A03B0931B03CFE4D3E012EFB5
:101800001830C0F488818230A9F420916B033091A4
:101810006C03012E02C0359527950A94E2F720FF4C
:1018200009C0812F0E947212AC01612F82E392E005
:101830000E9461021F5F2196183011F780910A0102
:1018400087FD19C0C0E0EC2FF0E080910A019927D4
:1018500087FD90958E179F0774F0EE0FFF1FEE0F18
:10186000FF1FE850FD4F61817281438180810E949A
:101870001E08CF5FE8CFDF91CF911F910F91FF90AE
:10188000EF90DF90CF90BF90AF909F908F90089592
:1018900080919D0390E020919E03821B9109089501
:1018A00020919E0380919D03281750F4E22FF0E0D1
:1018B000E156FC4F808190E02F5F20939E030895B6
:1018C0008FEF9FEF0895E0919E0380919D03E817AD
:1018D00030F4F0E0E156FC4F808190E008958FEF06
:1018E0009FEF08950895CF92DF92EF92FF920F93AA
:1018F0001F93CF93DF937C01CB018A012091790361
:10190000222389F0EB016B01C40ED51ECC15DD0539
:1019100069F06991D701ED91FC910190F081E02D82
:10192000C7010995F3CF642F0E94260EC801DF91ED
:10193000CF911F910F91FF90EF90DF90CF9008957E
:10194000CF93DF931F92CDB7DEB7698320917903E0
:101950002223D1F020917A03203240F021E030E0C0
:10196000FC013383228380E090E015C080917B03EB
:10197000E82FF0E0E458FC4F998190838F5F8093CB
:101980007B0380937A0305C061E0CE0101960E943B
:10199000260E81E090E00F90DF91CF910895FC0139
:1019A0001382128248EE53E060E070E04483558376
:1019B0006683778385E192E0918380830895109216
:1019C0009E0310929D0310927B0310927A030C9455
:1019D000710D81E08093790360939C0310927B03E7
:1019E00010927A0308950F93062F21E040917A0315
:1019F0006CE773E080919C030E94D30D10927B03EF
:101A000010927A03109279030F9108958F929F920A
:101A1000AF92BF92CF92DF92EF92FF920F931F93FC
:101A2000CF93DF93EC01F62ED42E48015901EE201E
:101A300019F10E94E90C1E2D143008F013E011502A
:101A4000B8F0E881F98128E0129FB0011124A501C6
:101A5000940104C056954795379527956A95D2F716
:101A6000CA01B9010190F081E02DCE010995E7CFBF
:101A700060E0CE010E94F30C4D2D413208F040E2AF
:101A80002C2D6FE973E08F2D0E948F0D10929E0315
:101A900080939D03DF91CF911F910F91FF90EF9065
:101AA000DF90CF90BF90AF909F908F900895CF928E
:101AB000EF920F931F93C22EE12C00E010E09801EB
:101AC0000E94060D1F910F91EF90CF90089521E095
:101AD0000C94570D61E00C94F30C8DE693E00C949C
:101AE000CF0C10922C0481E080932A0410922904D8
:101AF00061E082E10E94501361E083E10E94501393
:101B0000E9EBF0E080818E7F808380818D7F808310
:101B100088E48093B80085E48093BC000895413246
:101B200008F03FC090912C049111FCCF91E090936C
:101B30002C0420932A042FEF2093BF031092040457
:101B4000240F2093030490932B0490912B04880F6F
:101B5000892B80932B0480912904813041F41092C9
:101B6000290480912B048093BB0085EC01C085EE95
:101B70008093BC0080912C048130E1F380910404B7
:101B8000841710F44091040425E034E0FB01D901EE
:101B90008A2F821B841718F48D918193F9CF842F9B
:101BA000089580E008950F93413208F046C0909167
:101BB0002C049111FCCF92E090932C0400932A0402
:101BC0009FEF9093BF031092040440930304FB0122
:101BD00065E074E0DB019A2F961B941718F491913D
:101BE0009D93F9CF10922B0490912B04880F892B91
:101BF00080932B0480912904813041F410922904B0
:101C000080912B048093BB0085EC01C085EE80930E
:101C1000BC00222321F080912C048230E1F38091DA
:101C2000BF038F3F61F08091BF03803251F08091FC
:101C3000BF03803341F483E007C081E005C080E04A
:101C400003C082E001C084E00F910895613298F4EE
:101C500020912C04243089F46093E103FC0183EE8D
:101C600093E0DC012A2F281B261718F421912D93CD
:101C7000F9CF80E0089581E0089582E0089585ED30
:101C80008093BC008091BC0084FDFCCF10922C049A
:101C9000089585EC8093BC0010922C0408951F9247
:101CA0000F920FB60F9211242F933F934F935F9390
:101CB0006F937F938F939F93AF93BF93EF93FF9314
:101CC0008091B900887F803609F49CC068F588321D
:101CD00009F45BC090F4803109F454C038F48823CF
:101CE00009F4F3C0883009F44DC0F3C0883109F419
:101CF0004CC0803209F45DC0ECC0803409F468C087
:101D000048F4803309F455C0883309F0E2C0809369
:101D1000BF03A6C0803509F44FC0883509F45DC003
:101D2000883409F0D6C0D3C0883909F4C4C0A8F4F7
:101D3000883709F467C038F4883609F463C08037FF
:101D400009F460C0C6C0883809F4B5C0803909F408
:101D50005FC0803809F0BDC05BC0803B09F483C020
:101D600038F4803A09F466C0883A09F47CC0B1C0FE
:101D7000803C09F4A4C0883C09F4A1C0883B09F464
:101D800087C0A7C080912B0410C09091040480915B
:101D90000304981770F5E091040481E08E0F80939E
:101DA0000404F0E0EB5FFB4F80818093BB0085EC87
:101DB00083C08093BF038BC0E091040481E08E0F49
:101DC000809304048091BB00F0E0EB5FFB4F8083C5
:101DD00090910404809103046BC0E091040481E0BD
:101DE0008E0F809304048091BB00F0E0EB5FFB4F0B
:101DF000808380912A0481116AC081E08093290444
:101E000084EA5EC083E080932C041092C003CFCF9D
:101E10008091C003803208F04EC0E091C00381E0A1
:101E20008E0F8093C0038091BB00F0E0EF53FC4F16
:101E30008083BDCF8091C003803230F4E091C00335
:101E4000F0E0EF53FC4F10826091C00370E0E0912E
:101E50002504F091260481EC93E009951092C003CB
:101E60000E94490E36C084E080932C041092E20355
:101E70001092E103E0912704F091280409958091E4
:101E8000E103811105C081E08093E1031092E30337
:101E9000E091E20381E08E0F8093E203F0E0ED51E8
:101EA000FC4F80818093BB009091E2038091E1031D
:101EB000981708F47CCF85E88093BC000AC085ECB5
:101EC0008093BC0010922C0404C01092BF030E94A7
:101ED0003F0EFF91EF91BF91AF919F918F917F91B5
:101EE0006F915F914F913F912F910F900FBE0F9087
:101EF0001F9018951F920F920FB60F9211242F93D7
:101F00003F934F935F936F937F938F939F93AF9381
:101F1000BF93EF93FF9380912E0487FF05C010922B
:101F20008500109284001AC020912E04332727FDCB
:101F3000309580912D0490E0281739077CF480912A
:101F40002E04992787FD9095FC01EE0FFF1FE80FE7
:101F5000F91FE15DFB4F808186FD15C080912E0445
:101F60008F5F80932E0420912E04332727FD309518
:101F700080912D0490E028173907BCF480912E043D
:101F80008C305CF112C080912E04992787FD9095CA
:101F9000FC01EE0FFF1FE80FF91FE15DFB4F808191
:101FA00060E08F730E945013D9CF8091840090918C
:101FB0008500049680349C4918F480E49CE905C0AF
:101FC000809184009091850004969093890080937D
:101FD00088008FEF80932E0438C0209184003091C8
:101FE000850080912E04992787FD9095FC01EE0FC6
:101FF000FF1FE80FF91FE15DFB4F81819281820F86
:10200000931F909389008093880080912E049927D4
:1020100087FD9095FC01EE0FFF1FE80FF91FE15DB2
:10202000FB4F808186FF11C080912E04992787FD88
:102030009095FC01EE0FFF1FE80FF91FE15DFB4FCC
:10204000808161E08F730E945013FF91EF91BF91E7
:10205000AF919F918F917F916F915F914F913F9140
:102060002F910F900FBE0F901F90189520912D0467
:102070002C30A0F431E0320F30932D04FC0120838A
:10208000822F90E0FC01EE0FFF1FE80FF91FE15DCA
:10209000FB4F88EB9BE09283818308952FEFFC0137
:1020A00020830895DF92EF92FF920F931F93CF93B7
:1020B000DF93EC01D62E7A01890188818C3008F0FB
:1020C00066C061E08D2D0E9417138881A82FB0E0B3
:1020D000FD01EE0FFF1FEA0FFB1FE15DFB4F2D2DF2
:1020E0002F739081907C922B908360E272E06E1946
:1020F0007F0977FF02C06D5F7F4F75956795759576
:102100006795698340E659E0401B510B57FF02C0B9
:102110004D5F5F4F55954795559547954A836CE0C0
:102120000E942C169CE0899FB001112420E030E031
:10213000A901460F571FFA01EE0FFF1FE40FF51F0D
:10214000E15DFB4F908196FD16C02F5F3F4F2C3015
:10215000310571F781110FC01092800082E08093E9
:1021600081001092850010928400B19A80916F00D6
:10217000826080936F00888190E0FC01EE0FFF1F6A
:10218000E80FF91FE15DFB4F8081806480838881C7
:10219000DF91CF911F910F91FF90EF90DF90089505
:1021A00020E639E040E252E00C945210FC018081BC
:1021B00090E0FC01EE0FFF1FE80FF91FE15DFB4F00
:1021C00080818F7B80830895FC0180818C3070F545
:1021D000918128E830E0291B310997FD3395220FC2
:1021E000331F220F331F621773077CF0928128E59B
:1021F00032E0291B310997FD3395220F331F220F3F
:10220000331F621773070CF49B0122503109220F10
:10221000331F4FB7F89490E0FC01EE0FFF1FE80F5B
:10222000F91FE15DFB4F328321834FBF08954F9229
:102230005F926F927F92AF92BF92CF92DF92EF92B6
:10224000FF920F931F93CF93DF93EC01603282E0F4
:1022500078070CF040C077FD06C0653B71052CF097
:1022600064EB70E002C060E070E0898128E830E053
:10227000281B310987FD3395220F331F220F331F8F
:102280005901CC24B7FCC094DC2C882777FD8095BD
:10229000982F2A8148E552E0421B510927FD5395AA
:1022A000440F551F440F551F2A01662457FC6094A4
:1022B000762C7F926F925F924F9214EBE12EF12C6D
:1022C00000E010E020E030E0A9010E94C4150F906A
:1022D0000F900F900F90CE01DF91CF911F910F9132
:1022E000FF90EF90DF90CF90BF90AF907F906F9076
:1022F0005F904F900C94E410FC01808190E0FC0111
:10230000EE0FFF1FE80FF91FE15DFB4F808186FB99
:10231000882780F908951F920F920FB60F9211240B
:102320002F933F938F939F93AF93BF9380915404C8
:1023300090915504A0915604B091570430915304E4
:1023400023E0230F2D3720F40196A11DB11D05C0F8
:1023500026E8230F0296A11DB11D209353048093FC
:10236000540490935504A0935604B093570480915D
:10237000580490915904A0915A04B0915B040196BD
:10238000A11DB11D8093580490935904A0935A0441
:10239000B0935B04BF91AF919F918F913F912F912B
:1023A0000F900FBE0F901F9018952FB7F894609163
:1023B00054047091550480915604909157042FBF96
:1023C00008953FB7F8948091580490915904A091D2
:1023D0005A04B0915B0426B5A89B05C02F3F19F0A5
:1023E0000196A11DB11D3FBF6627782F892F9A2F17
:1023F000620F711D811D911D42E0660F771F881FBE
:10240000991F4A95D1F70895CF92DF92EF92FF92EC
:10241000CF93DF936B017C010E94E111EB01C114AA
:10242000D104E104F10489F00E941B160E94E1111D
:102430006C1B7D0B683E734090F381E0C81AD10895
:10244000E108F108C851DC4FEACFDF91CF91FF904E
:10245000EF90DF90CF9008958230910538F0880F8B
:10246000991F880F991F05970197F1F708957894A0
:1024700084B5826084BD84B5816084BD85B5826089
:1024800085BD85B5816085BDEEE6F0E08081816027
:102490008083E1E8F0E01082808182608083808127
:1024A00081608083E0E8F0E0808181608083E1EBFF
:1024B000F0E0808184608083E0EBF0E080818160E7
:1024C0008083EAE7F0E0808184608083808182609D
:1024D0008083808181608083808180688083109286
:1024E000C10008958E3008F08E50877020910D0144
:1024F00090E4299F90011124822B80937C0080918D
:102500007A00806480937A0080917A0086FDFCCF07
:10251000809178002091790090E0922B08951F938C
:10252000CF93DF93182FEB0161E00E9417132097E0
:1025300011F460E004C0CF3FD10539F461E0812F90
:10254000DF91CF911F910C945013E12FF0E0E457ED
:10255000FF4FE491E330F9F048F4E130B9F0E230B4
:10256000A1F584B5806284BDC8BD34C0E730E9F010
:10257000E83019F1E43049F5809180008062809361
:102580008000D0938B00C0938A0024C084B58068FB
:1025900084BDC7BD1FC0809180008068809380008B
:1025A000D0938900C093880015C08091B0008068E6
:1025B0008093B000C093B3000DC08091B0008062E2
:1025C0008093B000C093B40005C0C038D1050CF0B2
:1025D000B5CFAFCFDF91CF911F910895833081F0B8
:1025E00028F4813099F08230A1F008958730A9F065
:1025F0008830B9F08430D1F4809180008F7D03C0A1
:10260000809180008F7780938000089584B58F77C4
:1026100002C084B58F7D84BD08958091B0008F770E
:1026200003C08091B0008F7D8093B0000895CF9358
:10263000DF9390E0FC01E056FF4F2491FC01EC5445
:10264000FF4F8491882349F190E0880F991FFC0186
:10265000E452FF4FA591B4918E529F4FFC01C5915A
:10266000D4919FB7611108C0F8948C912095822372
:102670008C93888182230AC0623051F4F8948C9143
:10268000322F309583238C938881822B888304C0DA
:10269000F8948C91822B8C939FBFDF91CF910895FA
:1026A0000F931F93CF93DF931F92CDB7DEB7282FE1
:1026B00030E0F901E457FF4F8491F901E056FF4FF4
:1026C0001491F901EC54FF4F04910023C9F08823C1
:1026D00021F069830E94EE126981E02FF0E0EE0F95
:1026E000FF1FEE52FF4FA591B4919FB7F8948C91C4
:1026F000611103C01095812301C0812B8C939FBF72
:102700000F90DF91CF911F910F9108950F931F9319
:10271000762F90E0FC01E056FF4F6491FC01EC54F1
:10272000FF4FE4917111762FF0E0EE0FFF1FE85399
:10273000FF4F8591949189019A013F70472F0E9424
:10274000A100611571058105910531F06F5F7F4F23
:102750008F4F9F4F9F7003C060E070E0CB011F91CF
:102760000F910895FC01818D228D90E0805C9F4F38
:10277000821B91098F7399270895FC01918D828D99
:10278000981731F0828DE80FF11D858D90E0089546
:102790008FEF9FEF0895FC01918D828D981761F066
:1027A000828DDF01A80FB11D5D968C91928D9F5F88
:1027B0009F73928F90E008958FEF9FEF08958FE4BD
:1027C00095E1892B49F080E090E0892B29F00E9467
:1027D0004F1581110C9400000895FC01848DDF01D8
:1027E000A80FB11DA35ABF4F2C91848D90E0019684
:1027F0008F739927848FA689B7892C93A089B18973
:102800008C9180648C93938D848D981306C002887C
:10281000F389E02D80818F7D80830895CF93DF93AE
:10282000EC01888D8823C9F0EA89FB89808185FDC8
:1028300005C0A889B9898C9186FD0FC00FB607FC29
:10284000F5CF808185FFF2CFA889B9898C9185FF6A
:10285000EDCFCE010E94ED13E7CFDF91CF91089528
:10286000CF92DF92FF920F931F93CF93DF931F922C
:10287000CDB7DEB76C0181E0D60158968C9358979E
:102880005B969C915B975C968C915C97981307C0C4
:102890005096ED91FC915197808185FD2EC0F601F7
:1028A000038D10E00F5F1F4F0F731127F02EF601FD
:1028B000848DF81211C00FB607FCF9CFD6015096DF
:1028C000ED91FC915197808185FFF1CFC60169831D
:1028D0000E94ED136981EBCF838DE80FF11DE35A60
:1028E000FF4F6083D6015B960C935B975296ED91F8
:1028F000FC915397808180620CC0D6015696ED9171
:10290000FC91579760835096ED91FC91519780818F
:102910008064808381E090E00F90DF91CF911F91E0
:102920000F91FF90DF90CF900895BF92CF92DF92EA
:10293000EF92FF92CF93DF93EC016A017B01B22EFD
:10294000E889F98982E08083411581EE58076105A5
:102950007105A1F060E079E08DE390E0A7019601B8
:102960000E94381621503109410951095695479561
:1029700037952795211580E1380798F0E889F9897E
:10298000108260E874E88EE190E0A70196010E9451
:102990003816215031094109510956954795379507
:1029A0002795EC85FD853083EE85FF852083188E85
:1029B000EC89FD89B082EA89FB898081806180830E
:1029C000EA89FB89808188608083EA89FB8980812C
:1029D00080688083EA89FB8980818F7D8083DF9195
:1029E000CF91FF90EF90DF90CF90BF9008951F920E
:1029F0000F920FB60F9211242F938F939F93EF9303
:102A0000FF93E0916C04F0916D048081E091720479
:102A1000F091730482FD12C09081809175048F5FE4
:102A20008F7320917604821751F0E0917504F0E0E5
:102A3000E45AFB4F958F8093750401C08081FF910C
:102A4000EF919F918F912F910F900FBE0F901F903C
:102A500018951F920F920FB60F9211242F933F9348
:102A60004F935F936F937F938F939F93AF93BF9396
:102A7000EF93FF938CE594E00E94ED13FF91EF91AB
:102A8000BF91AF919F918F917F916F915F914F9186
:102A90003F912F910F900FBE0F901F9018958CE5CE
:102AA00094E00E94B21321E0892B09F420E0822FE8
:102AB000089510925F0410925E0488EE93E0A0E007
:102AC000B0E08093600490936104A0936204B0939B
:102AD000630485E292E090935D0480935C0485EC4E
:102AE00090E0909369048093680484EC90E0909364
:102AF0006B0480936A0480EC90E090936D04809363
:102B00006C0481EC90E090936F0480936E0482ECEF
:102B100090E0909371048093700486EC90E0909321
:102B200073048093720410927504109276041092CC
:102B30007704109278040895CF92DF92EF92FF927B
:102B40000F931F93CF93DF937C016A01EB0100E0A9
:102B500010E00C151D0571F06991D701ED91FC9104
:102B60000190F081E02DC7010995892B19F00F5FC5
:102B70001F4FEFCFC801DF91CF911F910F91FF90B1
:102B8000EF90DF90CF9008954F925F926F927F9277
:102B9000AF92BF92CF92DF92EF92FF920F931F936B
:102BA000CF93DF93CDB7DEB729013A01621B730BD8
:102BB000840B950B29893A894B895C892A193B0931
:102BC0004C095D09298B3A8B4B8B5C8B9B01AC01CB
:102BD00069897A898B899C890E941C16E418F508FA
:102BE00006091709A80197010E945A162A0D3B1DD4
:102BF0004C1D5D1DCA01B901DF91CF911F910F914D
:102C0000FF90EF90DF90CF90BF90AF907F906F904C
:102C10005F904F90089508950E9437120E940B16FE
:102C20000E94CC07CFEDD3E10E94B10B2097E1F3D6
:102C30000E94DF13F9CF0895DB018F939F930E94C9
:102C40007F16BF91AF91A29F800D911DA39F900D04
:102C5000B29F900D11240895991B79E004C0991F2B
:102C6000961708F0961B881F7A95C9F780950895E6
:102C7000A1E21A2EAA1BBB1BFD010DC0AA1FBB1F80
:102C8000EE1FFF1FA217B307E407F50720F0A21BF2
:102C9000B30BE40BF50B661F771F881F991F1A945F
:102CA00069F760957095809590959B01AC01BD0189
:102CB000CF010895052E97FB1EF400940E94711613
:102CC00057FD07D00E94381607FC03D04EF40C9431
:102CD000711650954095309521953F4F4F4F5F4F5E
:102CE000089590958095709561957F4F8F4F9F4F78
:102CF0000895EE0FFF1F0590F491E02D09940E94B6
:102D00008A16A59F900DB49F900DA49F800D911DD4
:102D100011240895A29FB001B39FC001A39F700D1D
:102D2000811D1124911DB29F700D811D1124911DD3
:102D30000895CF93DF938230910510F482E090E004
:102D4000E091FB04F091FC0420E030E0A0E0B0E072
:102D5000309739F14081518148175907B8F0481729
:102D6000590771F482819381109729F013969C93EF
:102D70008E9312972CC09093FC048093FB0427C081
:102D80002115310531F04217530718F0A901DB0175
:102D900001C0EF019A01BD01DF010280F381E02D46
:102DA000D7CF21153105F9F0281B390B2430310517
:102DB00080F48A819B816115710521F0FB01938369
:102DC000828304C09093FC048093FB04FE0132963E
:102DD00044C0FE01E20FF31F819391932250310909
:102DE000398328833AC02091F9043091FA04232BC7
:102DF00041F420910201309103013093FA042093B1
:102E0000F90420910001309101012115310541F4AF
:102E10002DB73EB74091040150910501241B350B9D
:102E2000E091F904F091FA04E217F307A0F42E1BE5
:102E30003F0B2817390778F0AC014E5F5F4F24171E
:102E4000350748F04E0F5F1F5093FA044093F90482
:102E50008193919302C0E0E0F0E0CF01DF91CF9148
:102E60000895CF93DF93009709F487C0FC01329750
:102E700013821282C091FB04D091FC04209781F44C
:102E800020813181280F391F8091F9049091FA0433
:102E90008217930779F5F093FA04E093F9046DC073
:102EA000DE0120E030E0AE17BF0750F412964D91DE
:102EB0005C9113979D014115510509F1DA01F3CF9A
:102EC000B383A28340815181840F951F8A179B078A
:102ED00071F48D919C911197840F951F02969183A7
:102EE000808312968D919C911397938382832115F1
:102EF000310529F4F093FC04E093FB043EC0D901B2
:102F00001396FC93EE9312974D915D91A40FB51F0C
:102F1000EA17FB0779F480819181840F951F02964F
:102F2000D90111969C938E938281938113969C93E1
:102F30008E931297E0E0F0E08A819B81009719F070
:102F4000FE01EC01F9CFCE01029628813981820F72
:102F5000931F2091F9043091FA042817390769F476
:102F6000309729F41092FC041092FB0402C01382E3
:102F70001282D093FA04C093F904DF91CF9108959F
:102F8000FB01DC014150504048F001900D920020BF
:102F9000C9F701C01D9241505040E0F70895FC016F
:102FA00081E090E00190061609F4CF010020D1F7EE
:102FB00001970895FB0151915523A9F0BF01DC0150
:102FC0004D9145174111E1F759F4CD0101900020D1
:102FD00049F04D9140154111C9F3FB014111EFCF6B
:0C2FE00081E090E001970895F894FFCF85
:102FEC000000FD04800001000000FF1300012E63AF
:102FFC007070004D617820736572766F7320617408
:10300C0074616368656400556E6B6E6F776E2070CB
:10301C00696E206D6F6465002F55736572732F6137
:10302C006E647265776669736865722F6465762F56
:10303C006E6F6465626F74732D6863737230342FB6
:10304C006669726D776172652F6275696C642F6841
:10305C0063737230345F6669726D6174612F68637B
:10306C00737230345F6669726D6174612E696E6F54
:10307C00004932432052656164204572726F723A86
:10308C0020546F6F206D616E7920627974657320A6
:10309C0072656365697665640049324320526561E7
:1030AC0064204572726F723A20546F6F2066657798
:1030BC002062797465732072656365697665640056
:1030CC0031302D6269742061646472657373696E4A
:1030DC0067206E6F7420737570706F727465640006
:1030EC00746F6F206D616E7920717565726965738F
:1030FC000000000000A00C730C480C500C630C7208
:10310C000C0000000030149C15B213CB13BD130E31
:02311C0014009D
:00000001FF
