:100000000C9477000C949F000C949F000C949F001C
:100010000C949F000C949F000C949F000C949F00E4
:100020000C949F000C949F000C949F000C94480C1F
:100030000C949F000C949F000C949F000C949F00C4
:100040000C948B110C949F000C94F7140C942915AC
:100050000C949F000C949F000C949F000C949F00A4
:100060000C9460100C949F00CA0AA20B0B0AA20BFE
:10007000740AA20BEA099909A20BA20BA20BA20B0C
:10008000E20AAE08A20B8209A20BCF090000000809
:10009000000201000003040700000000000000004F
:1000A000010204081020408001020408102001020F
:1000B00004081020040404040404040402020202DC
:1000C00002020303030303030000000023002600D1
:1000D000290000000000250028002B00000000007F
:1000E000240027002A0098040F087E0F59151124B8
:1000F0001FBECFEFD8E0DEBFCDBF12E0A0E0B1E081
:10010000ECEEFFE202C005900D92AE32B107D9F7D6
:1001100024E0AEE2B2E001C01D92A13FB207E1F7D8
:1001200010E0CEEED0E004C02297FE010E947B16C4
:10013000C63ED107C9F70E940C160C94F4170C9414
:100140000000CF92DF92EF92FF920F931F93E82F60
:10015000F92F05C0015011092109310961F1908180
:1001600096239417B9F305C00150110921093109EB
:1001700011F1908196239413F7CFC12CD12CE12C4F
:10018000F12C0AC08FEFC81AD80AE80AF80A0C1531
:100190001D052E053F0579F080818623841791F394
:1001A0006C2D7D2D8E2D9F2D1F910F91FF90EF9027
:1001B000DF90CF90089560E070E080E090E01F91C4
:1001C0000F91FF90EF90DF90CF9008950F931F93C2
:1001D000CF93DF93EC018B0188819981DC01ED9154
:1001E000FC916F770190F081E02D099588819981CC
:1001F000DC01ED91FC91B801660F672F661F770B4C
:100200006F770190F081E02DDF91CF911F910F91D9
:100210000994DC018D919C91DC01ED91FC910190A0
:10022000F081E02D60EF0994DC018D919C91DC015F
:10023000ED91FC910190F081E02D67EF0994CF934F
:10024000DF93EC0188819981DC01ED91FC910190B3
:10025000F081E02D69EF099588819981DC01ED91AC
:10026000FC910190F081E02D62E0099588819981EF
:10027000DC01ED91FC910190F081E02D64E0DF91D3
:10028000CF9109941F93CF93DF93EC018A81882348
:10029000D9F1CE010E94090188819981DC01ED919B
:1002A000FC910190F081E02D69E7099588819981A1
:1002B000DC01ED91FC91AB81BC810190F081E02DDE
:1002C0006C91099588819981DC01ED91FC91AB815C
:1002D000BC810190F081E02D11966C91099512E09E
:1002E0008A81181758F4EB81FC81E10FF11D6081C0
:1002F00070E0CE010E94E6001F5FF2CFCE01DF91D9
:10030000CF911F910C941401DF91CF911F9108950B
:10031000CF92DF92EF92FF920F931F93CF93DF93D1
:100320008C01EB01C42ED22E6EE071E0CE010E9452
:10033000DA177C016FE270E0CE010E94CF170097C0
:1003400039F46CE570E0CE010E94CF17009711F0F0
:10035000EC012196E114F10451F4FE01019000201A
:10036000E9F7EC1BEF5FD8011296EC9306C0EC1A8C
:10037000FD0AE394E394F801E282D80113968D918B
:100380009C9114970E943117F801E280F12CC7016B
:100390000E949916D80114969C938E931397DC01B2
:1003A000AE0DBF1D1C92FC01C082D182D8011296F5
:1003B0004C9150E042505109BE010296DF91CF911D
:1003C0001F910F91FF90EF90DF90CF900C94C0178A
:1003D000DC018D919C91DC01ED91FC910480F58113
:1003E000E02D09940F931F93CF93DF93FC01208599
:1003F000213749F0293709F049C0DF91CF911F918A
:100400000F910C944201FC01E95AFF4F0190F081D9
:10041000E02D309709F450C0DC01A75BBF4F4D9130
:100420005C919A012150310937FD9A01B901759506
:100430006795062F40E050E020E030E04E5F5F4FD0
:100440002017A0F4EC01C40FD51F1F81DC01A20FFF
:10045000B31F18961C931897C885D0E8CD9F101924
:10046000112418961C932F5F3F4FE8CFDC01A60F95
:10047000B11D17962C911797222311F018961C92F4
:100480000896DF91CF911F910F910994FC01E75AD3
:10049000FF4F0190F081E02D309771F0AC01475F84
:1004A0005F4FDC01A75BBF4F6C916150822FDF91E2
:1004B000CF911F910F910994DF91CF911F910F91CF
:1004C00008950F931F93CF93DF93EC018A018881E6
:1004D0009981DC01ED91FC916F70606E0190F0816B
:1004E000E02D0995B801CE01DF91CF911F910F91B9
:1004F0000C94E6000F931F93CF93DF93EC018A01D6
:1005000088819981DC01ED91FC916F7060690190A7
:10051000F081E02D099588819981DC01ED91FC91B4
:10052000602F6F770190F081E02D09958881998186
:10053000DC01ED91FC91B801660F672F661F770B08
:100540000190F081E02DDF91CF911F910F910994DF
:10055000CF92DF92EF92FF920F931F93CF93DF938F
:1005600000D01F92CDB7DEB78C01F42E2A833B83D7
:1005700069830E940901D8018D919C91DC01ED9164
:10058000FC910190F081E02D698109952A81E22E8C
:10059000C22E3B81D32E8C2D8E198F1540F4F6017F
:1005A00061916F0170E0C8010E94E600F4CFC801BC
:1005B0000F900F900F90DF91CF911F910F91FF90AF
:1005C000EF90DF90CF900C9414019A01FA01019002
:1005D0000020E9F73197E41BF50B4E2F0C94A8028D
:1005E000AB0161E70C94E502DC018D919C91DC018B
:1005F000ED91FC910190F081E02D0994603DB9F0FE
:1006000028F4603961F0603C71F00895603E19F0A3
:10061000643F89F00895FC01E55BFF4F0FC0FC01CA
:10062000E35BFF4F0BC0FC01E15BFF4F07C0FC0128
:10063000EF5AFF4F03C0FC01ED5AFF4F5183408337
:1006400008956F3F29F4FC01EB5AFF4F518340831B
:100650000895875A9F4FFC01518340830895FC0100
:1006600015821682178280E090E0DF01A80FB91F83
:1006700018961C92019680349105B9F7DF01A85BAA
:10068000BF4F1C9211961D921C92EB5AFF4F019086
:10069000F081E02D309709F009940895FC01128251
:1006A000148213820C942F03CF93DF93EC01888183
:1006B0009981DC01ED91FC910680F781E02D09958F
:1006C000FE01E85BFF4F20812223B1F0873F9105B7
:1006D00031F41082CE01DF91CF910C94F201FE0132
:1006E000E75BFF4F20813181C20FD31F88872F5FC7
:1006F0003F4F318320839DC02D81222309F45EC0AA
:10070000803891050CF05AC09FEF920F9D83FE0137
:10071000E90FF11D808791118CC08E81882309F427
:1007200088C0803DE9F148F48039E9F0803C09F067
:1007300043C0FE01E15BFF4F36C0803E19F0843FAD
:1007400019F13AC0FE01E55BFF4F0190F081E02D09
:10075000309791F18885698570E0B0E88B9F600DD6
:10076000711D112427C0FE01E35BFF4F0190F08152
:10077000E02D309709F18885698570E090E8899FC0
:10078000600D711D112416C0FE01ED5AFF4F01903E
:10079000F081E02D309781F0688570E089850BC08D
:1007A000FE01EF5AFF4F0190F081E02D309721F0CC
:1007B000688570E08F8109951E823BC0803F91055E
:1007C0002CF4282F2F702F83807F9927803E91054E
:1007D00021F154F4803C910511F1803D9105F9F02F
:1007E0008039910531F519C0843F9105B1F054F479
:1007F000803F9105F1F481E08083C75BDF4F198270
:10080000188217C0893F910571F08F3F910589F4D7
:10081000CE01DF91CF910C942F0392E001C091E0C3
:100820009D838E8306C08EE292E0DF91CF910C947F
:100830001F01DF91CF9108958F929F92AF92BF9247
:10084000CF92DF92EF92FF921F93CF93DF93EB0152
:100850004A01690161E08DE00E94171310E0EE2467
:10086000D7FCE094FE2CAA2497FCA094BA2C812FEC
:1008700090E08C179D0794F4C701B6010E94041202
:1008800061E08DE00E945013C501B4010E94041282
:1008900060E08DE00E9450131F5FE9CFDF91CF91A0
:1008A0001F91FF90EF90DF90CF90BF90AF909F90FF
:1008B0008F900895CF93DF93EC0161E08DE00E946B
:1008C000171322ED30E048E250E062E070E0CE0124
:1008D0000E941C046AEF70E080E090E00E94041225
:1008E00022ED30E048E250E064E070E0CE010E948A
:1008F0001C046DE770E080E090E0DF91CF910C94F4
:100900000412CF93DF93EC0126E080E594E00E948F
:10091000951480E594E099838883CE010E945A045F
:10092000CE010E941F01CE01DF91CF910C944201B4
:100930008EE292E00C944E03833008F062C0482FA0
:10094000440F440F440F485F453108F044E1582FED
:10095000550F550F550F90E071E05417E8F42EEF46
:10096000250F2231B0F4E52FF0E0DF01AB5BBC4F87
:100970002C91223070F4972BEE0FFF1FE65EFC4F98
:1009800021E030E0A72FA62311F420E030E03183EE
:100990002083770F5F5FE1CF81110AC09C7FF894BD
:1009A0002BB1892F809582239623892B8BB928C060
:1009B0008130C9F46923F89425B1892F8F7380950C
:1009C0008223262F2F73822B85B988B16295669575
:1009D00066956370929596959695937090959823E9
:1009E000692B68B90DC09F70F89428B1892F880FC2
:1009F000880F809582236923660F660F862B88B93E
:100A0000789408950F931F93CF93DF93EB01843174
:100A100080F5082F10E0F801EB5BFC4F90819330DC
:100A2000A1F0943031F582508231E0F4F801E956BA
:100A3000FD4F208130E0C901880F991F820F931F5D
:100A400085559D4F0E94E50D0DC0833041F09BEF11
:100A5000980F923020F097EF980F933018F4BE0162
:100A60000E948F12F801EE0FFF1FE65EFC4FD1834C
:100A7000C083DF91CF911F910F910895CF93C82F1D
:100A8000863030F540915F035091600321E030E003
:100A9000082E02C0220F331F0A94E2F7672B49F495
:100AA00020953095242335233093600320935F03F2
:100AB0000FC0242B352B3093600320935F030E94DB
:100AC0007212AC016C2F8EE292E0CF910C94610215
:100AD000CF910895DB019A01909189029C30D0F565
:100AE00040918A02682F70E0442369F0E42FF0E01F
:100AF000E657FD4F8081FB01E956FD4F8083415051
:100B000040938A0207C0FB01E956FD4F90839F5F27
:100B100090938902FB01E956FD4F1A161B067CF4DF
:100B20001216130664F4408150E0CA01880F991F21
:100B3000840F951FAD0185559D4F0C94200D20818C
:100B400030E0C901880F991F820F931F85559D4F73
:100B50000C949E0D63E171E08EE292E00C94F00241
:100B6000CF93DF93C82FD0E0C956DD4F288130E006
:100B7000C901880F991F820F931F85559D4F0E94B1
:100B8000A40D888190918902891306C0882379F089
:100B90008150809389020BC0992349F0E0918A0229
:100BA000EF5FE0938A02F0E0E657FD4F80838FEF1E
:100BB0008883DF91CF9108951F93CF93DF93162FF2
:100BC000C82FD0E0FE01EE5BFC4F90811923C75A7D
:100BD000DC4F411103C09881911741F0412F50E043
:100BE000682F8EE292E00E947A021883DF91CF9103
:100BF0001F910895833020F5282F30E0F901E45A41
:100C0000FC4F6083672BE1F0F901EE5BFC4F9081B4
:100C1000811103C069B16C7F0FC0813049F463B1A9
:100C200026B140E4249F900111246F73622B04C00D
:100C300066B16C7366956695692341E00C94DC059A
:100C4000089580915C03882349F069B18091420343
:100C500068236C7F40E080E00E94DC0580915D03AA
:100C6000882379F063B186B120E4829FC00111240A
:100C70006F73682B80914303682340E081E00E94FA
:100C8000DC0580915E03882359F066B16C7366952C
:100C9000669580914403682340E082E00C94DC0573
:100CA00008951092D1028FEF80930A010895AF92B8
:100CB000BF92DF92EF92FF920F931F93CF93DF9338
:100CC00000D0CDB7DEB7D82E5B01E82EF12C87011E
:100CD0000B5B1C4FF8018081863049F48091D10272
:100CE000882329F06630710511F00E9451064EEFFD
:100CF0004D0D4231C0F484E0A816B104A1F0F70113
:100D0000E956FD4F20812C3070F430E0C901880F86
:100D1000991F820F931F85559D4F4A830E944A0E4B
:100D20004A818111C3C092EF9D0D963078F461E045
:100D300070E0E2E0AE16B10411F060E070E0892FDF
:100D40004A8399830E943E0599814A814231D8F4B1
:100D5000ED2DE695E695E6958D2D8770F0E0EE5B3E
:100D6000FC4F21E030E0082E01C0220F0A94EAF780
:100D7000A114B10421F48081822B808304C02095CA
:100D8000808128232083F701EE0FFF1FE65EFC4FD2
:100D900011821082F2E0AF16B104A1F03CF4A1146C
:100DA000B104F9F0AA94AB2851F16FC0F4E0AF168A
:100DB000B10409F448C084F1E6E0AE16B10409F4C8
:100DC0005CC063C0963008F089C0423140F460E0F6
:100DD0008D2D0E94171360E08D2D0E94501382E02C
:100DE00051C0423108F07AC060E08D2D0E94171387
:100DF00060E08D2D0E945013F80110826FC04231C7
:100E000008F06CC060E08D2D0E94501361E08D2DC4
:100E10000E94171381E036C0F3E0DF1649F08BEF34
:100E20008D0D823028F087EF8D0D833008F056C08D
:100E300061E08D2D0E94171360E070E08D2D0E94FF
:100E40008F1283E01FC0423108F048C084E0F801EF
:100E50008083F701E956FD4F80818F3F69F190E073
:100E60009C01220F331F280F391FC90185559D4F43
:100E70000E944A0E811132C01FC08EEE8D0D82304D
:100E800068F586E0F801808329C067E271E08EE2B0
:100E900092E00F900F90DF91CF911F910F91FF90F3
:100EA000EF90DF90BF90AF900C94F0028D2D4A83AD
:100EB0000E94B0054A8137CF4FEF5FEF6FEF7FEFB2
:100EC0008D2D0F900F90DF91CF911F910F91FF907B
:100ED000EF90DF90BF90AF900C946A050F900F9049
:100EE000DF91CF911F910F91FF90EF90DF90BF9016
:100EF000AF900895CF93C0E08EEE8C0F823028F42F
:100F000066E070E08C2F0E945706CF5FC431A1F7D6
:100F100081E08093D10287E893E0CF910C94F00EAA
:100F20000F931F93CF93DF938091D10281110E9481
:100F3000510610925C0310924203109259031092D2
:100F40005D031092430310925A0310925E031092B5
:100F5000440310925B03C7E9D2E010E00FEF82EF89
:100F6000810F863018F462E070E002C061E070E04A
:100F7000812F0E94570609931F5F143181F7109249
:100F8000600310925F0310928A0210928902DF912F
:100F9000CF911F910F91089524E042E068E371E042
:100FA0008EE292E00E94880142E055E060EE8EE21F
:100FB00092E00E94FE024CE954E060E98EE292E089
:100FC0000E94FE024EE355E060EC8EE292E00E9449
:100FD000FE024AEF55E060ED8EE292E00E94FE02D2
:100FE00047E556E064EF8EE292E00E94FE0240E99F
:100FF00058E060EF8EE292E00E94290340E957E05A
:101000006FEF8EE292E00E94210340E051EE60E03B
:1010100070E08EE292E00E9481040C949007CF93DE
:10102000DF93CBEAD2E0CE010E94040D239682E04A
:10103000CF3CD807C1F7DF91CF910895DF92EF92AF
:10104000FF920F931F93CF93DF93F82EEB01D42ED3
:101050006F3F8FEF7807B9F06F2D87E893E00E941C
:10106000FA0E6C2F87E893E00E94B10E87E893E0B8
:101070000E947B0F8091CF029091D002009729F0BF
:101080000E942C1202C0C0E0D0E04D2D6F2D87E8E9
:1010900093E00E94780F0D2D10E087E893E00E9406
:1010A000590E081719071CF46DE871E009C087E8AC
:1010B00093E00E94590E8017910734F465EB71E0BC
:1010C0008EE292E00E94F002F092D202C093D3022C
:1010D00064EDE62E62E0F62EC0E0D0E0C017D10746
:1010E00084F042E04D0D22ED32E067E78EE292E0BF
:1010F000DF91CF911F910F91FF90EF90DF900C94B3
:10110000A80287E893E00E94590E892B51F387E8E3
:1011100093E00E94610EF70181937F012196DECF5B
:10112000CF92DF92EF92FF920F931F93CF93DF93B3
:10113000CDB7DEB729970FB6F894DEBF0FBECDBF8F
:10114000362F8A0190E0FC01E956F109E231F10500
:1011500008F0F8C2EC5CFF4F0C947916DA01119696
:101160008C91982F987185FF03C06CED71E055C08C
:10117000FA018081983081F158F49111E3C2682F0F
:1011800087E893E039870E94FA0E22E0F22E07C02A
:10119000903109F43CC0983109F471C0D3C239854B
:1011A000F31688F4F801EF0DF11D81816081F0E8FC
:1011B0008F9F6019112487E893E039870E94B10E50
:1011C000F394F394ECCF87E893E00E947B0F86E4DE
:1011D00090E00E942C12B6C242816381363071F4D5
:1011E000B0E86B9FB0011124640F711DF801958167
:1011F0004481F0E89F9F4019112406C020E8629FB7
:10120000401911246FEF7FEF0E941E089BC2E091EE
:101210000A01E7303CF06CEF71E08EE292E00E9450
:10122000F00290C2DA0112969C91129713962C91BB
:10123000663089F4B0E82B9F90011124290F311DED
:10124000DA0115964C91159714969C91B0E84B9F36
:101250009019112406C0F0E82F9F901911242FEF48
:101260003FEFEF5FE0930A0144E0E402F001112454
:10127000EE50FD4F808332832183938363C250916C
:101280000A01151634F440E0252F332727FD309549
:101290000EC08FEF80930A0155C2EE0FFF1FEE0FB5
:1012A000FF1FEE50FD4F9081981719F14F5FE42F0B
:1012B000F0E02E173F078CF740E01BC04830C0F429
:1012C000DF01AA0FBB1FAA0FBB1FAA50BD4F8C91F5
:1012D000EE0FFF1FEE0FFF1FEE50FD4F80831196A4
:1012E0008D919C9112979283818313968C91838325
:1012F0004F5FE42FF0E02E173F0704F75150509353
:101300000A0120C2DA012C9111968C91B0E88B9FD2
:10131000C0011124820F911D009721F09093D002FB
:101320008093CF028091D10281110CC20E947A0772
:1013300009C2653008F406C2FA01F080E180D2806B
:10134000C38014818EEF8F0D823108F0FBC1EF2D29
:10135000F0E0E956FD4FE081EC3060F4F0E0CF01C1
:10136000880F991F8E0F9F1F85559D4F0E944A0E13
:101370008111E4C1F0E81F9FA00111244C0D511D03
:1013800020E8D29EB00111246E0D711D8F2D0E9498
:101390006A0564E070E08F2D0E945706D3C1623069
:1013A00008F4D0C1DA012C9111968C91B0E88B9F92
:1013B000C0011124820F911D90930C0180930B01A9
:1013C0000A9708F0BFC18AE090E090930C018093E7
:1013D0000B01B8C1623008F4B5C1FA01618170E057
:1013E0003230A1F08281F0E88F9FC0011124682B78
:1013F000792B333059F0DA0113968C9190E090E418
:10140000899F902D88271124682B792BF8018081E2
:101410000E94020597C160EF8EE292E00E94F40202
:101420006CE68EE292E00E94F4021EEF84EF810FE0
:10143000863058F462E08EE292E00E94F4026AE0A4
:101440008EE292E00E94F4020DC0113059F463E084
:101450008EE292E00E94F40268E08EE292E00E9446
:10146000F40208C08DEF810F823088F389EF810F7D
:10147000833068F3123150F464E08EE292E00E940F
:10148000F4026EE08EE292E00E94F40280EF810F9F
:10149000823050F466E08EE292E00E94F40261E055
:1014A0008EE292E00E94F4026FE78EE292E00E94E8
:1014B000F4021F5F123171F1123108F0B7CF60E012
:1014C0008EE292E00E94F40261E08EE292E00E94DD
:1014D000F40261E08EE292E00E94F40261E08EE2AA
:1014E00092E00E94F402A2CF662309F42BC1DA0134
:1014F0000C9160EF8EE292E00E94F4026EE68EE2C2
:1015000092E00E94F402602F8EE292E00E94F402C8
:10151000043130F067EF8EE292E00E94F40212C1D3
:1015200010E0F801EB5BFC4F60818EE292E00E94DC
:10153000F402000F111FF801E65EFC4F7F0160818D
:101540006F778EE292E00E94F402D7016D917C9158
:10155000CB018078892B49F0660F672F661F770BC8
:101560006F778EE292E00E94F402F801E65EFC4F93
:1015700060817181CB018827907C892B59F2770F8C
:10158000660B770F762F661F6F778EE292E00E94D0
:10159000F402C0CF60EF8EE292E00E94F4026AE6AD
:1015A0008EE292E00E94F40212EF163010F06FE724
:1015B00001C0612F8EE292E00E94F4021F5F16309C
:1015C000A1F7A8CFFA018381C28080FBC7F8D12C94
:1015D000E12CF12CFC2CEE24DD24CC24958184819B
:1015E00090FB87F990E0A0E0B0E0DC019927882724
:1015F000C80ED91EEA1EFB1E9185808590FB87F9D7
:10160000C80ED11CE11CF11C9781868190FB87F9E3
:1016100090E0A0E0B0E0BA2FA92F982F8827C80E3D
:10162000D91EEA1EFB1E818161E08130C1F48081F8
:101630000E94171360E0D8018C910E94501382E041
:1016400090E00E942C1261E0F80180810E9450130A
:10165000C6010E942C1260E0D8018C9113C0FA01DF
:1016600080810E94501382E090E00E942C1260E082
:10167000D8018C910E945013C6010E942C1261E087
:10168000F80180810E945013D8011B968C911B9702
:101690001A962C9180FB27F9822F90E0A0E0B0E011
:1016A000582F442733272227F8019585848590FBFE
:1016B00087F990E0A0E0B0E0DC0199278827280FA7
:1016C000391F4A1F5B1F9189808990FB87F9280F7A
:1016D000311D411D511D9785868590FB87F990E04E
:1016E000A0E0B0E0BA2FA92F982F8827280F391F24
:1016F0004A1F5B1F60E080812E8339874F835887A4
:101700000E9417132E8139854F815885D801119673
:101710006C9111978C910E948613F8012081298386
:101720009A838B837C836D839E012F5F3F4F45E0BF
:1017300065E78EE292E00E94A80204C08F2D0E940D
:10174000B00518CE29960FB6F894DEBF0FBECDBFF8
:10175000DF91CF911F910F91FF90EF90DF90CF908D
:1017600008958F929F92AF92BF92CF92DF92EF92A5
:10177000FF920F931F93CF93DF930E9421068EE277
:1017800092E00E94E801892B29F08EE292E00E940B
:101790005403F5CF0E94D51160931603709317037D
:1017A0008093180390931903C0901203D0901303F1
:1017B000E0901403F090150340910B0150910C013F
:1017C0004A01A12CB12C8B019C010C191D092E0979
:1017D0003F0980169106A206B30608F04CC0D50159
:1017E000C4018C0D9D1DAE1DBF1D809312039093EF
:1017F0001303A0931403B0931503C5E4D3E012EFD1
:101800001630C0F488818230A9F420915F033091B2
:101810006003012E02C0359527950A94E2F720FF58
:1018200009C0812F0E947212AC01612F8EE292E0FA
:101830000E9461021F5F2196163011F780910A0104
:1018400087FD19C0C0E0EC2FF0E080910A019927D4
:1018500087FD90958E179F0774F0EE0FFF1FEE0F18
:10186000FF1FEE50FD4F61817281438180810E9494
:101870001E08CF5FE8CFDF91CF911F910F91FF90AE
:10188000EF90DF90CF90BF90AF909F908F90089592
:101890001F920F920FB60F9211242F933F934F93E5
:1018A0005F936F937F938F939F93AF93BF93EF93C8
:1018B000FF938091620387FF05C01092850010920C
:1018C00084001AC020916203332727FD3095809150
:1018D000610390E0281739077CF48091620399270F
:1018E00087FD9095FC01EE0FFF1FE80FF91FED59E2
:1018F000FC4F808186FD15C0809162038F5F8093CD
:10190000620320916203332727FD309580916103A4
:1019100090E028173907BCF4809162038C305CF1A9
:1019200012C080916203992787FD9095FC01EE0F0C
:10193000FF1FE80FF91FED59FC4F808160E08F73A6
:101940000E945013D9CF8091840090918500049615
:1019500080349C4918F480E49CE905C0809184009F
:1019600090918500049690938900809388008FEF72
:101970008093620338C0209184003091850080916B
:101980006203992787FD9095FC01EE0FFF1FE80F7A
:10199000F91FED59FC4F81819281820F931F909323
:1019A00089008093880080916203992787FD909534
:1019B000FC01EE0FFF1FE80FF91FED59FC4F80816E
:1019C00086FF11C080916203992787FD9095FC01E5
:1019D000EE0FFF1FE80FF91FED59FC4F808161E00A
:1019E0008F730E945013FF91EF91BF91AF919F9120
:1019F0008F917F916F915F914F913F912F910F90B8
:101A00000FBE0F901F901895209161032C30A0F409
:101A100031E0320F30936103FC012083822F90E08C
:101A2000FC01EE0FFF1FE80FF91FED59FC4F88EB8B
:101A30009BE09283818308952FEFFC01208308951A
:101A4000DF92EF92FF920F931F93CF93DF93EC01FE
:101A5000D62E7A01890188818C3008F066C061E059
:101A60008D2D0E9417138881A82FB0E0FD01EE0F85
:101A7000FF1FEA0FFB1FED59FC4F2D2D2F73908197
:101A8000907C922B908360E272E06E197F0977FF61
:101A900002C06D5F7F4F75956795759567956983F2
:101AA00040E659E0401B510B57FF02C04D5F5F4FAE
:101AB00055954795559547954A836CE00E942C169D
:101AC0009CE0899FB001112420E030E0A901460F7D
:101AD000571FFA01EE0FFF1FE40FF51FED59FC4FE2
:101AE000908196FD16C02F5F3F4F2C30310571F766
:101AF00081110FC01092800082E0809381001092CB
:101B0000850010928400B19A80916F00826080936A
:101B10006F00888190E0FC01EE0FFF1FE80FF91FB6
:101B2000ED59FC4F8081806480838881DF91CF9163
:101B30001F910F91FF90EF90DF90089520E639E01C
:101B400040E252E00C94200DFC01808190E0FC0109
:101B5000EE0FFF1FE80FF91FED59FC4F80818F7BBF
:101B600080830895FC0180818C3070F5918128E894
:101B700030E0291B310997FD3395220F331F220FC7
:101B8000331F621773077CF0928128E532E0291B2E
:101B9000310997FD3395220F331F220F331F621730
:101BA00073070CF49B0122503109220F331F4FB7EA
:101BB000F89490E0FC01EE0FFF1FE80FF91FED59BC
:101BC000FC4F328321834FBF08954F925F926F92F3
:101BD0007F92AF92BF92CF92DF92EF92FF920F93DC
:101BE0001F93CF93DF93EC01603282E078070CF013
:101BF00040C077FD06C0653B71052CF064EB70E0DA
:101C000002C060E070E0898128E830E0281B3109DB
:101C100087FD3395220F331F220F331F5901CC2428
:101C2000B7FCC094DC2C882777FD8095982F2A81FB
:101C300048E552E0421B510927FD5395440F551FBB
:101C4000440F551F2A01662457FC6094762C7F921E
:101C50006F925F924F9214EBE12EF12C00E010E0B6
:101C600020E030E0A9010E94C4150F900F900F9062
:101C70000F90CE01DF91CF911F910F91FF90EF90C8
:101C8000DF90CF90BF90AF907F906F905F904F901C
:101C90000C94B20DFC01808190E0FC01EE0FFF1F5F
:101CA000E80FF91FED59FC4F808186FB882780F9EA
:101CB00008958091B70390E02091B803821B9109A9
:101CC00008952091B8038091B703281750F4E22FAC
:101CD000F0E0E754FC4F808190E02F5F2093B80341
:101CE00008958FEF9FEF0895E091B8038091B703B7
:101CF000E81730F4F0E0E754FC4F808190E008955D
:101D00008FEF9FEF08950895CF92DF92EF92FF92A9
:101D10000F931F93CF93DF937C01CB018A01209116
:101D20009303222389F0EB016B01C40ED51ECC1561
:101D3000DD0569F06991D701ED91FC910190F08189
:101D4000E02DC7010995F3CF642F0E943710C80119
:101D5000DF91CF911F910F91FF90EF90DF90CF9087
:101D60000895CF93DF931F92CDB7DEB7698320919B
:101D700093032223D1F020919403203240F021E0FC
:101D800030E0FC013383228380E090E015C0809135
:101D90009503E82FF0E0EA56FC4F998190838F5F1E
:101DA000809395038093940305C061E0CE01019672
:101DB0000E94371081E090E00F90DF91CF9108955D
:101DC000FC011382128248EE53E060E070E044832D
:101DD00055836683778381E192E0918380830895C0
:101DE0001092B8031092B7031092950310929403C7
:101DF0000C94820F81E0809393036093B60310925A
:101E000095031092940308950F93062F21E04091BB
:101E1000940366E973E08091B6030E94E40F109288
:101E2000950310929403109293030F9108958F924B
:101E30009F92AF92BF92CF92DF92EF92FF920F9359
:101E40001F93CF93DF93EC01F62ED42E4801590156
:101E5000EE2019F10E94FA0E1E2D143008F013E046
:101E60001150B8F0E881F98128E0129FB0011124E7
:101E7000A501940104C056954795379527956A9515
:101E8000D2F7CA01B9010190F081E02DCE01099588
:101E9000E7CF60E0CE010E94040F4D2D413208F0E3
:101EA00040E22C2D69EB73E08F2D0E94A00F109261
:101EB000B8038093B703DF91CF911F910F91FF90EB
:101EC000EF90DF90CF90BF90AF909F908F9008954C
:101ED000CF92EF920F931F93C22EE12C00E010E0FF
:101EE00098010E94170F1F910F91EF90CF900895C6
:101EF00021E00C94680F61E00C94040F87E893E0F4
:101F00000C94E00E1092460481E0809344041092F9
:101F1000430461E082E10E94501361E083E10E948A
:101F20005013E9EBF0E080818E7F808380818D7F8C
:101F3000808388E48093B80085E48093BC00089592
:101F4000413208F03FC0909146049111FCCF91E0DE
:101F500090934604209344042FEF2093D9031092CA
:101F60001E04240F20931D04909345049091450472
:101F7000880F892B8093450480914304813041F47C
:101F800010924304809145048093BB0085EC01C00E
:101F900085EE8093BC00809146048130E1F380910E
:101FA0001E04841710F440911E042FE134E0FB015D
:101FB000D9018A2F821B841718F48D918193F9CF50
:101FC000842F089580E008950F93413208F046C0B1
:101FD000909146049111FCCF92E0909346040093B7
:101FE00044049FEF9093D90310921E0440931D0464
:101FF000FB016FE174E0DB019A2F961B941718F434
:1020000091919D93F9CF1092450490914504880FCA
:10201000892B8093450480914304813041F41092D0
:102020004304809145048093BB0085EC01C085EE9C
:102030008093BC00222321F0809146048230E1F39A
:102040008091D9038F3F61F08091D903803251F0A4
:102050008091D903803341F483E007C081E005C05B
:1020600080E003C082E001C084E00F9108956132F6
:1020700098F420914604243089F46093FB03FC011A
:102080008DEF93E0DC012A2F281B261718F42191ED
:102090002D93F9CF80E0089581E0089582E00895BE
:1020A00085ED8093BC008091BC0084FDFCCF109234
:1020B0004604089585EC8093BC0010924604089570
:1020C0001F920F920FB60F9211242F933F934F93AD
:1020D0005F936F937F938F939F93AF93BF93EF9390
:1020E000FF938091B900887F803609F49CC068F521
:1020F000883209F45BC090F4803109F454C038F49C
:10210000882309F4F3C0883009F44DC0F3C0883146
:1021100009F44CC0803209F45DC0ECC0803409F48D
:1021200068C048F4803309F455C0883309F0E2C030
:102130008093D903A6C0803509F44FC0883509F4CF
:102140005DC0883409F0D6C0D3C0883909F4C4C052
:10215000A8F4883709F467C038F4883609F463C0F6
:10216000803709F460C0C6C0883809F4B5C080392A
:1021700009F45FC0803809F0BDC05BC0803B09F442
:1021800083C038F4803A09F466C0883A09F47CC008
:10219000B1C0803C09F4A4C0883C09F4A1C0883BCC
:1021A00009F487C0A7C08091450410C090911E0417
:1021B00080911D04981770F5E0911E0481E08E0F48
:1021C00080931E04F0E0E15EFB4F80818093BB00B2
:1021D00085EC83C08093D9038BC0E0911E0481E01D
:1021E0008E0F80931E048091BB00F0E0E15EFB4FF8
:1021F000808390911E0480911D046BC0E0911E04A9
:1022000081E08E0F80931E048091BB00F0E0E15EC0
:10221000FB4F80838091440481116AC081E08093E8
:10222000430484EA5EC083E0809346041092DA039C
:10223000CFCF8091DA03803208F04EC0E091DA030C
:1022400081E08E0F8093DA038091BB00F0E0E552CD
:10225000FC4F8083BDCF8091DA03803230F4E0916F
:10226000DA03F0E0E552FC4F10826091DA0370E08F
:10227000E0913F04F09140048BED93E009951092BA
:10228000DA030E945A1036C084E08093460410920C
:10229000FC031092FB03E0914104F0914204099584
:1022A0008091FB03811105C081E08093FB031092B4
:1022B000FD03E091FC0381E08E0F8093FC03F0E0CE
:1022C000E350FC4F80818093BB009091FC03809190
:1022D000FB03981708F47CCF85E88093BC000AC004
:1022E00085EC8093BC001092460404C01092D90380
:1022F0000E945010FF91EF91BF91AF919F918F91EC
:102300007F916F915F914F913F912F910F900FBEF1
:102310000F901F9018951F920F920FB60F921124D5
:102320002F933F938F939F93AF93BF9380914804D4
:1023300090914904A0914A04B0914B043091470414
:1023400023E0230F2D3720F40196A11DB11D05C0F8
:1023500026E8230F0296A11DB11D20934704809308
:10236000480490934904A0934A04B0934B0480918D
:102370004C0490914D04A0914E04B0914F040196ED
:10238000A11DB11D80934C0490934D04A0934E0465
:10239000B0934F04BF91AF919F918F913F912F9137
:1023A0000F900FBE0F901F9018952FB7F894609163
:1023B00048047091490480914A0490914B042FBFC6
:1023C00008953FB7F89480914C0490914D04A091EA
:1023D0004E04B0914F0426B5A89B05C02F3F19F0BD
:1023E0000196A11DB11D3FBF6627782F892F9A2F17
:1023F000620F711D811D911D42E0660F771F881FBE
:10240000991F4A95D1F70895CF92DF92EF92FF92EC
:10241000CF93DF936B017C010E94E111EB01C114AA
:10242000D104E104F10489F00E941B160E94E1111D
:102430006C1B7D0B683E734090F381E0C81AD10895
:10244000E108F108C851DC4FEACFDF91CF91FF904E
:10245000EF90DF90CF9008958230910538F0880F8B
:10246000991F880F991F05970197F1F708957894A0
:1024700084B5826084BD84B5816084BD85B5826089
:1024800085BD85B5816085BDEEE6F0E08081816027
:102490008083E1E8F0E01082808182608083808127
:1024A00081608083E0E8F0E0808181608083E1EBFF
:1024B000F0E0808184608083E0EBF0E080818160E7
:1024C0008083EAE7F0E0808184608083808182609D
:1024D0008083808181608083808180688083109286
:1024E000C10008958E3008F08E50877020910D0144
:1024F00090E4299F90011124822B80937C0080918D
:102500007A00806480937A0080917A0086FDFCCF07
:10251000809178002091790090E0922B08951F938C
:10252000CF93DF93182FEB0161E00E9417132097E0
:1025300011F460E004C0CF3FD10539F461E0812F90
:10254000DF91CF911F910C945013E12FF0E0E457ED
:10255000FF4FE491E330F9F048F4E130B9F0E230B4
:10256000A1F584B5806284BDC8BD34C0E730E9F010
:10257000E83019F1E43049F5809180008062809361
:102580008000D0938B00C0938A0024C084B58068FB
:1025900084BDC7BD1FC0809180008068809380008B
:1025A000D0938900C093880015C08091B0008068E6
:1025B0008093B000C093B3000DC08091B0008062E2
:1025C0008093B000C093B40005C0C038D1050CF0B2
:1025D000B5CFAFCFDF91CF911F910895833081F0B8
:1025E00028F4813099F08230A1F008958730A9F065
:1025F0008830B9F08430D1F4809180008F7D03C0A1
:10260000809180008F7780938000089584B58F77C4
:1026100002C084B58F7D84BD08958091B0008F770E
:1026200003C08091B0008F7D8093B0000895CF9358
:10263000DF9390E0FC01E056FF4F2491FC01EC5445
:10264000FF4F8491882349F190E0880F991FFC0186
:10265000E452FF4FA591B4918E529F4FFC01C5915A
:10266000D4919FB7611108C0F8948C912095822372
:102670008C93888182230AC0623051F4F8948C9143
:10268000322F309583238C938881822B888304C0DA
:10269000F8948C91822B8C939FBFDF91CF910895FA
:1026A0000F931F93CF93DF931F92CDB7DEB7282FE1
:1026B00030E0F901E457FF4F8491F901E056FF4FF4
:1026C0001491F901EC54FF4F04910023C9F08823C1
:1026D00021F069830E94EE126981E02FF0E0EE0F95
:1026E000FF1FEE52FF4FA591B4919FB7F8948C91C4
:1026F000611103C01095812301C0812B8C939FBF72
:102700000F90DF91CF911F910F9108950F931F9319
:10271000762F90E0FC01E056FF4F6491FC01EC54F1
:10272000FF4FE4917111762FF0E0EE0FFF1FE85399
:10273000FF4F8591949189019A013F70472F0E9424
:10274000A100611571058105910531F06F5F7F4F23
:102750008F4F9F4F9F7003C060E070E0CB011F91CF
:102760000F910895FC01818D228D90E0805C9F4F38
:10277000821B91098F7399270895FC01918D828D99
:10278000981731F0828DE80FF11D858D90E0089546
:102790008FEF9FEF0895FC01918D828D981761F066
:1027A000828DDF01A80FB11D5D968C91928D9F5F88
:1027B0009F73928F90E008958FEF9FEF08958FE4BD
:1027C00095E1892B49F080E090E0892B29F00E9467
:1027D0004F1581110C9400000895FC01848DDF01D8
:1027E000A80FB11DA35ABF4F2C91848D90E0019684
:1027F0008F739927848FA689B7892C93A089B18973
:102800008C9180648C93938D848D981306C002887C
:10281000F389E02D80818F7D80830895CF93DF93AE
:10282000EC01888D8823C9F0EA89FB89808185FDC8
:1028300005C0A889B9898C9186FD0FC00FB607FC29
:10284000F5CF808185FFF2CFA889B9898C9185FF6A
:10285000EDCFCE010E94ED13E7CFDF91CF91089528
:10286000CF92DF92FF920F931F93CF93DF931F922C
:10287000CDB7DEB76C0181E0D60158968C9358979E
:102880005B969C915B975C968C915C97981307C0C4
:102890005096ED91FC915197808185FD2EC0F601F7
:1028A000038D10E00F5F1F4F0F731127F02EF601FD
:1028B000848DF81211C00FB607FCF9CFD6015096DF
:1028C000ED91FC915197808185FFF1CFC60169831D
:1028D0000E94ED136981EBCF838DE80FF11DE35A60
:1028E000FF4F6083D6015B960C935B975296ED91F8
:1028F000FC915397808180620CC0D6015696ED9171
:10290000FC91579760835096ED91FC91519780818F
:102910008064808381E090E00F90DF91CF911F91E0
:102920000F91FF90DF90CF900895BF92CF92DF92EA
:10293000EF92FF92CF93DF93EC016A017B01B22EFD
:10294000E889F98982E08083411581EE58076105A5
:102950007105A1F060E079E08DE390E0A7019601B8
:102960000E94381621503109410951095695479561
:1029700037952795211580E1380798F0E889F9897E
:10298000108260E874E88EE190E0A70196010E9451
:102990003816215031094109510956954795379507
:1029A0002795EC85FD853083EE85FF852083188E85
:1029B000EC89FD89B082EA89FB898081806180830E
:1029C000EA89FB89808188608083EA89FB8980812C
:1029D00080688083EA89FB8980818F7D8083DF9195
:1029E000CF91FF90EF90DF90CF90BF9008951F920E
:1029F0000F920FB60F9211242F938F939F93EF9303
:102A0000FF93E0916004F09161048081E09166049D
:102A1000F091670482FD12C09081809169048F5FFC
:102A20008F7320916A04821751F0E0916904F0E0FD
:102A3000E05BFB4F958F8093690401C08081FF911B
:102A4000EF919F918F912F910F900FBE0F901F903C
:102A500018951F920F920FB60F9211242F933F9348
:102A60004F935F936F937F938F939F93AF93BF9396
:102A7000EF93FF9380E594E00E94ED13FF91EF91B7
:102A8000BF91AF919F918F917F916F915F914F9186
:102A90003F912F910F900FBE0F901F90189580E5DA
:102AA00094E00E94B21321E0892B09F420E0822FE8
:102AB0000895109253041092520488EE93E0A0E01F
:102AC000B0E08093540490935504A0935604B093BF
:102AD000570481E292E0909351048093500485EC76
:102AE00090E090935D0480935C0484EC90E090937C
:102AF0005F0480935E0480EC90E090936104809387
:102B0000600481EC90E0909363048093620482EC13
:102B100090E0909365048093640486EC90E0909339
:102B20006704809366041092690410926A041092FC
:102B30006B0410926C040895CF92DF92EF92FF9293
:102B40000F931F93CF93DF937C016A01EB0100E0A9
:102B500010E00C151D0571F06991D701ED91FC9104
:102B60000190F081E02DC7010995892B19F00F5FC5
:102B70001F4FEFCFC801DF91CF911F910F91FF90B1
:102B8000EF90DF90CF9008954F925F926F927F9277
:102B9000AF92BF92CF92DF92EF92FF920F931F936B
:102BA000CF93DF93CDB7DEB729013A01621B730BD8
:102BB000840B950B29893A894B895C892A193B0931
:102BC0004C095D09298B3A8B4B8B5C8B9B01AC01CB
:102BD00069897A898B899C890E941C16E418F508FA
:102BE00006091709A80197010E945A162A0D3B1DD4
:102BF0004C1D5D1DCA01B901DF91CF911F910F914D
:102C0000FF90EF90DF90CF90BF90AF907F906F904C
:102C10005F904F90089508950E9437120E940B16FE
:102C20000E94CC07CFEDD3E10E94B10B2097E1F3D6
:102C30000E94DF13F9CF0895DB018F939F930E94C9
:102C40007F16BF91AF91A29F800D911DA39F900D04
:102C5000B29F900D11240895991B79E004C0991F2B
:102C6000961708F0961B881F7A95C9F780950895E6
:102C7000A1E21A2EAA1BBB1BFD010DC0AA1FBB1F80
:102C8000EE1FFF1FA217B307E407F50720F0A21BF2
:102C9000B30BE40BF50B661F771F881F991F1A945F
:102CA00069F760957095809590959B01AC01BD0189
:102CB000CF010895052E97FB1EF400940E94711613
:102CC00057FD07D00E94381607FC03D04EF40C9431
:102CD000711650954095309521953F4F4F4F5F4F5E
:102CE000089590958095709561957F4F8F4F9F4F78
:102CF0000895EE0FFF1F0590F491E02D09940E94B6
:102D00008A16A59F900DB49F900DA49F800D911DD4
:102D100011240895A29FB001B39FC001A39F700D1D
:102D2000811D1124911DB29F700D811D1124911DD3
:102D30000895CF93DF938230910510F482E090E004
:102D4000E091EF04F091F00420E030E0A0E0B0E08A
:102D5000309739F14081518148175907B8F0481729
:102D6000590771F482819381109729F013969C93EF
:102D70008E9312972CC09093F0048093EF0427C099
:102D80002115310531F04217530718F0A901DB0175
:102D900001C0EF019A01BD01DF010280F381E02D46
:102DA000D7CF21153105F9F0281B390B2430310517
:102DB00080F48A819B816115710521F0FB01938369
:102DC000828304C09093F0048093EF04FE01329656
:102DD00044C0FE01E20FF31F819391932250310909
:102DE000398328833AC02091ED043091EE04232BDF
:102DF00041F420910201309103013093EE042093BD
:102E0000ED0420910001309101012115310541F4BB
:102E10002DB73EB74091040150910501241B350B9D
:102E2000E091ED04F091EE04E217F307A0F42E1BFD
:102E30003F0B2817390778F0AC014E5F5F4F24171E
:102E4000350748F04E0F5F1F5093EE044093ED049A
:102E50008193919302C0E0E0F0E0CF01DF91CF9148
:102E60000895CF93DF93009709F487C0FC01329750
:102E700013821282C091EF04D091F004209781F464
:102E800020813181280F391F8091ED049091EE044B
:102E90008217930779F5F093EE04E093ED046DC08B
:102EA000DE0120E030E0AE17BF0750F412964D91DE
:102EB0005C9113979D014115510509F1DA01F3CF9A
:102EC000B383A28340815181840F951F8A179B078A
:102ED00071F48D919C911197840F951F02969183A7
:102EE000808312968D919C911397938382832115F1
:102EF000310529F4F093F004E093EF043EC0D901CA
:102F00001396FC93EE9312974D915D91A40FB51F0C
:102F1000EA17FB0779F480819181840F951F02964F
:102F2000D90111969C938E938281938113969C93E1
:102F30008E931297E0E0F0E08A819B81009719F070
:102F4000FE01EC01F9CFCE01029628813981820F72
:102F5000931F2091ED043091EE042817390769F48E
:102F6000309729F41092F0041092EF0402C01382FB
:102F70001282D093EE04C093ED04DF91CF910895B7
:102F8000FB01DC014150504048F001900D920020BF
:102F9000C9F701C01D9241505040E0F70895FC016F
:102FA00081E090E00190061609F4CF010020D1F7EE
:102FB00001970895FB0151915523A9F0BF01DC0150
:102FC0004D9145174111E1F759F4CD0101900020D1
:102FD00049F04D9140154111C9F3FB014111EFCF6B
:0C2FE00081E090E001970895F894FFCF85
:102FEC000000F104800001000000FF1300012E63BB
:102FFC007070004D617820736572766F7320617408
:10300C0074616368656400556E6B6E6F776E2070CB
:10301C00696E206D6F6465002F55736572732F6137
:10302C006A6669736865722F6465762F6E6F646566
:10303C00626F74732D6863737230342F6669726DAE
:10304C00776172652F6275696C642F686373723077
:10305C00345F6669726D6174612F686373723034AA
:10306C005F6669726D6174612E696E6F00493243DF
:10307C002052656164204572726F723A20546F6FF2
:10308C00206D616E79206279746573207265636559
:10309C00697665640049324320526561642045724B
:1030AC00726F723A20546F6F206665772062797464
:1030BC0065732072656365697665640031302D62D5
:1030CC0069742061646472657373696E67206E6FD6
:1030DC007420737570706F7274656400746F6F20F8
:1030EC006D616E7920717565726965730000000001
:1030FC0000B10E840E590E610E740E830E0000008A
:0E310C000030149C15B213CB13BD130E14002B
:00000001FF
