:100000000C944E020C9476020C9476020C947802B6
:100010000C9476020C9476020C9476020C94760280
:100020000C9476020C9476020C9476020C94760270
:100030000C9476020C9476020C9476020C94760260
:100040000C94920B0C9476020C947F0E0C94B10ECF
:100050000C9476020C9476020C9476020C94760240
:100060000C94670A0C94760248454C50002D2D2DB7
:100070002D2D2D2D2D2D2D2D2D2D2D2D2D2D2D00DD
:10008000417661696C61626C6520636F6D6D616E54
:100090006473005472792068656C70203C636D64F1
:1000A0003E20666F72206D6F726520696E666F20EC
:1000B00061626F7574206561636820636F6D6D6147
:1000C0006E6400496E7465726368616E6765207660
:1000D000657273696F6E3A2000496E746572636869
:1000E000616E676520636F6E6669677572617469BA
:1000F0006F6E2068656C700053796E74617820654E
:1001000072726F7220706C656173652070726F76A9
:10011000696465206120636F6D6D616E64004F4B93
:100120002063726561746F72204944207365742086
:1001300000455252204E6F2063726561746F7220C9
:10014000494420737570706C696564004F4B20667C
:1001500069726D776172652049442073657420006F
:10016000455252204E6F206669726D77617265202C
:10017000494420737570706C696564004F4B204969
:100180003243206164647265737320736574200068
:10019000455252204E6F2061646472657373207300
:1001A0007570706C696564004F4B20454550524F27
:1001B0004D20636C6561726564007D0022002263DE
:1001C0006F6D70696C655F64617465223A2200220C
:1001D0002C002266775F76657273696F6E223A2211
:1001E00000222C002269635F76657273696F6E224C
:1001F0003A22002C00226932635F61646472657385
:1002000073223A002C0066616C7365007472756528
:1002100000227573655F637573746F6D5F616464ED
:1002200072223A002C0022756E646566696E656400
:1002300022002263726561746F724944223A002C75
:100240000022756E646566696E65642200226669C7
:10025000726D776172654944223A007B003E3E0030
:100260000A456E74657220636F6D6D616E642C203B
:10027000666F6C6C6F776564206279204E4C2E201F
:10028000547970652048454C5020666F72206D6F20
:1002900072652E00496E7465726368616E676520D1
:1002A0007665723A20005365747320746865206324
:1002B000726561746F722069642E200A0A20202002
:1002C00020202020202020202020202020206567A2
:1002D0003A206349442030783039207365747320A4
:1002E0007468652063726561746F7220696420743C
:1002F0006F2030783039005365747320746865203E
:100300006669726D776172652069642E200A0A2021
:1003100020202020202020202020202020202020DD
:1003200065673A204649442030783032207365743E
:100330007320746865206669726D776172652069E3
:100340006420746F203078303200536574732074E9
:10035000686520493243206164647265737320616B
:100360006E6420637573746F6D206669726D77615A
:10037000726520666C61672E0A0A202020202020EA
:10038000202020202020202020202065673A20499E
:100390003243203078353720312073657473206103
:1003A0006464726573732030783537202620637556
:1003B00073746F6D20666C6167206269740050729F
:1003C000696E7473206F757420616C6C206F662089
:1003D00074686520696E666F726D6174696F6E20F6
:1003E00061626F75742074686973206669726D77D5
:1003F00061726500436C6561727320746865206585
:100400006570726F6D2073657474696E67730050E8
:1004100072696E74732074686973206C6973742ECA
:10042000205472792048454C50203C434D443E2096
:10043000666F72206D6F7265000000000800020197
:100440000000030407000000000000000001020497
:100450000810204080010204081020010204081046
:10046000200404040404040404020202020202033D
:1004700003030303030000000023002600290000FB
:10048000000000250028002B0000000000240027A9
:10049000002A000007090E0AE10E240911241FBEDC
:1004A000CFEFD8E0DEBFCDBF11E0A0E0B1E0EAE5DC
:1004B000FBE202C005900D92A43CB107D9F723E0FE
:1004C000A4ECB1E001C01D92A83DB207E1F714E031
:1004D000CAE9D4E004C02297FE010E941313C43974
:1004E000D107C9F70E94B7120C94A0150C94000014
:1004F0001F920F920FB60F9211240F931F932F93F9
:100500003F934F935F936F937F938F939F93AF939B
:10051000BF93EF93FF9388E00E94110D019771F450
:1005200081E08093C4010E94E80B6093C501709341
:10053000C6018093C7019093C80116C00E94E80BC2
:100540000091C5011091C6012091C7013091C801E9
:10055000601B710B820B930B6093CD017093CE01E6
:100560008093CF019093D001FF91EF91BF91AF9114
:100570009F918F917F916F915F914F913F912F91BB
:100580001F910F910F900FBE0F901F901895CF9352
:10059000DF9300D000D000D0CDB7DEB70E94A00618
:1005A000809168029091690281309105D9F426E02A
:1005B00040E855E260E070E086E393E00E941D0EA3
:1005C0006FE071E0CE0101960E94C110BE016F5F25
:1005D0007F4F86E393E00E94B506CE0101960E940C
:1005E000531019C00297B9F40E94F706811102C096
:1005F00087E206C00E9403078823D1F30E94030705
:10060000682F8AE692E00E94F6096AE873E08AE6BB
:1006100092E00E94090A26960FB6F894DEBF0FBE3C
:10062000CDBFDF91CF910895F894EBE6F0E08081A3
:100630008E7F8083DA9878940895F894EBE6F0E062
:10064000808181608083E8E6F0E080818160808342
:10065000789408950F931F930E94DC0B0091C901B9
:100660001091CA012091CB013091CC01601B710B1C
:10067000820B930B00910601109107012091080154
:1006800030910901061717072807390760F50E94FE
:1006900014031092C40161E088E00E94A20C60E0A3
:1006A00088E00E94DB0C82E090E00E94330C61E065
:1006B00088E00E94DB0C85E090E00E94330C60E053
:1006C00088E00E94DB0C60E088E00E94A20C0E949F
:1006D0001D030E94DC0B6093C9017093CA018093D3
:1006E000CB019093CC011F910F91089580916802E6
:1006F000909169028230910541F40E942A0364E1DD
:1007000070E080E090E00C940B0C019711F40C94D5
:10071000E80708958091CD019091CE01A091CF017D
:10072000B091D0019093D1018091CD019091CE01F3
:10073000A091CF01B091D0018093D20142E050E06E
:1007400061ED71E08AE692E00C9480096BE572E05D
:100750008091E4019091E5010E94620F6DE472E0E6
:100760008091E4019091E5010E94620F6091DD01AA
:100770008091E4019091E501611105C061E472E0AE
:100780000E94620F04C04AE050E00E9435106FE3FF
:1007900072E08091E4019091E5010E94620F62E3B2
:1007A00072E08091E4019091E5010E94620F6091F6
:1007B000DC018091E4019091E501611105C066E2E0
:1007C00072E00E94620F04C04AE050E00E943510BF
:1007D00064E272E08091E4019091E5010E94620F71
:1007E00061E172E08091E4019091E5010E94620F65
:1007F0002091DB018091E4019091E501222319F021
:100800006CE072E002C066E072E00E94620F64E099
:1008100072E08091E4019091E5010E94620F65EF22
:1008200071E08091E4019091E5010E94620F4AE03D
:1008300050E06091DA018091E4019091E5010E941D
:10084000351063EF71E08091E4019091E5010E9421
:10085000620F64EE71E08091E4019091E5010E94E5
:10086000620F65E171E08091E4019091E5010E94E1
:10087000930F61EE71E08091E4019091E5010E9497
:10088000620F62ED71E08091E4019091E5010E94B8
:10089000620F64ED71E08091E4019091E5010E94A6
:1008A000850F6FEC71E08091E4019091E5010E9469
:1008B000620F6EEB71E08091E4019091E5010E947E
:1008C000620F6BE171E08091E4019091E5010E947B
:1008D000930F6CEB71E08091E4019091E5010E942F
:1008E000620F6AEB71E08091E4019091E5010C9454
:1008F000990F0C9453150C945B15CF93DF93EC0177
:100900008C819D81892B51F460E971E08091E40133
:100910009091E501DF91CF910C94990F60E070E028
:10092000CE010E943F12FC0160816093DA0188E0F1
:1009300090E00E947B046CE771E08091E40190916B
:10094000E5010E94620F40E150E06091DA01809180
:10095000E4019091E5010E943C108C819D810397F8
:1009600078F062E070E0CE010E943F12FC018081CD
:10097000813321F481E08093DB0102C01092DB011E
:100980006091DB0189E090E0DF91CF910C947B04D2
:10099000FC0124813581232B41F460E671E08091D4
:1009A000E4019091E5010C94990F60E070E00E94E1
:1009B0003F12FC0160816093DD018AE090E00E94BB
:1009C0007B046CE471E08091E4019091E5010E9468
:1009D000620F40E150E06091DD018091E40190916F
:1009E000E5010C943C10FC0124813581232B41F45A
:1009F00061E371E08091E4019091E5010C94990F1D
:100A000060E070E00E943F12FC0160816093DC01B5
:100A10008BE090E00E947B046EE171E08091E40144
:100A20009091E5010E94620F40E150E06091DC018D
:100A30008091E4019091E5010C943C10CF93DF93F9
:100A400084ED91E00E9453108EED91E00E945310CE
:100A5000C8E6D2E0CE0108970E9453102D9781E09E
:100A6000C63ED807B9F7DF91CF910895CF93DF93B2
:100A7000EC018BE090E00E9479048F3F11F08093AD
:100A8000DC018AE090E00E9479048F3F11F08093AE
:100A9000DD0189E090E00E9479048F3F31F091E020
:100AA000811101C090E09093DB0188E090E00E940A
:100AB00079048F3F11F08093DA01BE0184ED91E05B
:100AC000DF91CF910C942E111F93CF93DF9300D021
:100AD00000D000D0CDB7DEB760E371E08091E401D3
:100AE0009091E5010E94BD0F10E080910A01181756
:100AF00058F4E12FF0E0E55FFE4F80816FEF90E06A
:100B00000E947B041F5FF1CF64ED71E0CE0101967E
:100B10000E944511CE0101960E943605CE01019634
:100B20000E94531068EA71E08091E4019091E50120
:100B30000E94990F26960FB6F894DEBF0FBECDBF68
:100B4000DF91CF911F910895CF92DF92EF92FF92A4
:100B50000F931F93CF93DF93CDB7DEB72D970FB6CB
:100B6000F894DEBF0FBECDBF6C017B018A0180917E
:100B7000D3018A30D0F56FE871E0CE0106960E946D
:100B8000C11045E050E0B601CE0101960E94441527
:100B9000B701CE0106960E942E111D870C87009189
:100BA000D3018DE0089F800111240A511E4F85E07A
:100BB000FE013196D80101900D928A95E1F7BE01B0
:100BC0006A5F7F4FC80105960E942E118C859D8516
:100BD000F801948783878091D3018F5F8093D3013D
:100BE000CE0106960E94531008C06EE471E0809119
:100BF000E4019091E5010E94BD0F2D960FB6F89487
:100C0000DEBF0FBECDBFDF91CF911F910F91FF903F
:100C1000EF90DF90CF9008950F931F93CF93DF93C2
:100C200000D000D000D0CDB7DEB78C016FE074E00B
:100C3000CE0101960E94AB1141E458E0BE016F5F06
:100C40007F4F84E691E00E94A405CE0101960E94A8
:100C5000531064EF73E0CE0101960E94AB1144E69D
:100C600055E0BE016F5F7F4F89E691E00E94A405C9
:100C7000CE0101960E9453106EEB73E0CE010196F7
:100C80000E94AB1146EA53E0BE016F5F7F4F8DE6D5
:100C900091E00E94A405CE0101960E9453106AE4DF
:100CA00073E0CE0101960E94AB114DE754E0BE0106
:100CB0006F5F7F4F82E791E00E94A405CE0101960D
:100CC0000E94531067EF72E0CE0101960E94AB11B3
:100CD00048EC54E0BE016F5F7F4F86E791E00E94D1
:100CE000A405CE0101960E94531066EA72E0CE017F
:100CF00001960E94AB1143EF54E0BE016F5F7F4F3E
:100D00008AE791E00E94A405CE0101960E9453104B
:100D1000B801CE0101960E944511CE0101960E94B4
:100D20003605CE0101960E94531026960FB6F89410
:100D3000DEBF0FBECDBFDF91CF911F910F91089500
:100D400060E082E00E94A20C82E390E00E94330CFB
:100D500082E00E94110D8130910511F082E090E057
:100D6000909369028093680208950F931F93CF9325
:100D7000DF9300D000D000D0CDB7DEB78B019093C9
:100D8000E5018093E40164E972E00E94620F65E18D
:100D900071E08091E4019091E5010E94BD0F60E651
:100DA00072E08091E4019091E5010E94990F6DE558
:100DB00072E08091E4019091E5010E94990FB801E1
:100DC000CE0101960E944511CE0101960E940C06AB
:100DD000CE0101960E94531026960FB6F894DEBFFE
:100DE0000FBECDBFDF91CF911F910F91089589E084
:100DF00090E00E947904982F8F3F19F081E09111C3
:100E000001C080E0089588E090E00E9479048F3F5F
:100E100009F480E00895BF92CF92DF92EF92FF92A3
:100E20000F931F93CF93DF9300D000D000D0CDB7A6
:100E3000DEB77C01D12C8DE0C82E8091D301D8166D
:100E4000E0F40D2D10E0C09EB001C19E700D112484
:100E50006A517E4FCE0101960E94C110BE016F5FA4
:100E60007F4FC7010E940612B82ECE0101960E9444
:100E70005310B11004C0D394E0CF0FEF1FEFC8019F
:100E800026960FB6F894DEBF0FBECDBFDF91CF918F
:100E90001F910F91FF90EF90DF90CF90BF9008953A
:100EA000DF92EF92FF920F931F93CF93DF93CDB713
:100EB000DEB762970FB6F894DEBF0FBECDBF8C01D0
:100EC0006FE871E0CE0101960E94C1106FE871E0F9
:100ED000CE0107960E94C11060E2C8010E946D1207
:100EE000D82EE82EFF24E7FCF094970140E050E074
:100EF000B801CE010D960E947112BE01635F7F4F53
:100F0000CE0101960E944E11CE010D960E94531003
:100F10001D14B4F4F80124813581A7014F5F5F4FA0
:100F2000B801CE010D960E947112BE01635F7F4F22
:100F3000CE0107960E944E11CE010D960E945310CD
:100F4000BE016F5F7F4FCE010D960E944511CE010D
:100F50000D960E940B07182FCE010D960E9453107C
:100F600017FD2DC08DE01802F0011124EA51FE4F4B
:100F700003851485BE01695F7F4FCE010D960E94E7
:100F80004511CE010D96F8010995CE010D960E94EE
:100F90005310CE0107960E945310CE0101960E9475
:100FA000531062960FB6F894DEBF0FBECDBFDF912F
:100FB000CF911F910F91FF90EF90DF9008956EE712
:100FC00071E08091E4019091E5010E94BD0FE1CFB5
:100FD000CF93DF9300D000D000D0CDB7DEB78091A3
:100FE000E4019091E501DC01ED91FC910480F58133
:100FF000E02D099518161906DCF58091E401909111
:10100000E501DC01ED91FC910680F781E02D099569
:101010008A30A9F46EED71E0CE0101960E9445116F
:10102000CE0101960E945007CE0101960E945310F6
:101030006FE871E08EED91E00E945A11D0CF9FEFE2
:10104000980F993060F295EF980F953140F2682F24
:10105000CE0101960E947211BE016F5F7F4F8EED2F
:1010600091E00E94E011CE0101960E945310B7CF8B
:1010700026960FB6F894DEBF0FBECDBFDF91CF919D
:101080000895CF92DF92EF92FF920F931F93CF9329
:10109000DF9300D000D000D0CDB7DEB7FC012481B3
:1010A000358122303105E0F1BC01CE0101960E946C
:1010B0004511CE0101960E940B07082FCE01019623
:1010C0000E9453108091E4019091E50107FF05C053
:1010D00068EF70E00E94990F23C068E670E00E94FC
:1010E000990F8DE0080280011124B8016A517E4FEA
:1010F0008091E4019091E5010E94930F60E971E015
:101100008091E4019091E5010E94930FB80165512F
:101110007E4F8091E4019091E5010E94AB0F68C081
:1011200069ED70E08091E4019091E5010E94990FD2
:1011300063EC70E08091E4019091E5010E94620F00
:1011400065E171E08091E4019091E5010E94BD0F9D
:1011500063E970E08091E4019091E5010E94990FAC
:1011600060E870E08091E4019091E5010E94990FA0
:101170006DE670E08091E4019091E5010E94990F85
:1011800096EEE92E91E0F92E00E010E023E0C22E69
:10119000D12C6FE871E0C70105960E94E71181111B
:1011A00019C0B7018091E4019091E5010E94930F6D
:1011B000C801B6010E94C7129C018091E401909180
:1011C000E501232B19F40E94950F04C06EE871E02D
:1011D0000E94930F0F5F1F4FFDE0EF0EF11C0A30CE
:1011E0001105B9F68091E4019091E5010E94950FF7
:1011F00026960FB6F894DEBF0FBECDBFDF91CF911C
:101200001F910F91FF90EF90DF90CF900895CF93B3
:10121000DF93C0E0D0E06FE871E0CE0185519E4FD2
:101220000E94C1102D96C238D105A9F76FE871E070
:101230008EED91E00E94C1106FE871E084ED91E0C5
:10124000DF91CF910C94C1100C941E0580919D02EA
:1012500090E020919E02821B9109089520919E02A8
:1012600080919D02281750F4E22FF0E0E156FD4FE7
:10127000808190E02F5F20939E0208958FEF9FEF73
:101280000895E0919E0280919D02E81730F4F0E00D
:10129000E156FD4F808190E008958FEF9FEF089514
:1012A0000895E0917602F09177023097E1F0309165
:1012B0009E0220919D023217B0F040E0242F30E0D2
:1012C0002617370754F4DC01A20FB31F5C91D90134
:1012D000A156BD4F5C934F5FF1CF10929E02609379
:1012E0009D02CB0109940895E0917802F091790272
:1012F000309729F010927C0210927B020994089595
:10130000CF92DF92EF92FF920F931F93CF93DF93D1
:101310007C01CB018A0120917A02222389F0EB0122
:101320006B01C40ED51ECC15DD0569F06991D7019E
:10133000ED91FC910190F081E02DC7010995F3CF6B
:10134000642F0E94340AC801DF91CF911F910F9141
:10135000FF90EF90DF90CF900895CF93DF931F928F
:10136000CDB7DEB7698320917A022223D1F0209194
:101370007B02203240F021E030E0FC013383228305
:1013800080E090E015C080917C02E82FF0E0E35807
:10139000FD4F998190838F5F80937C0280937B02C5
:1013A00005C061E0CE0101960E94340A81E090E020
:1013B0000F90DF91CF910895FC011382128248EEC5
:1013C00053E060E070E0448355836683778387E968
:1013D00091E091838083089510929E0210929D0265
:1013E00010927C0210927B020C94120ACF93DF932E
:1013F000EC01862F0E94300A84E799E00E94520A8D
:1014000081E599E00E944D0ACE01DF91CF910C94C5
:10141000EC09709379026093780208958AE692E06D
:101420000C94DC0910922C0381E080932A03109223
:10143000290361E082E10E94DB0C61E083E10E940C
:10144000DB0CE9EBF0E080818E7F808380818D7FF3
:10145000808388E48093B80085E48093BC0008957D
:10146000880F8093BA000895613298F420912C037C
:10147000243089F46093E102FC0183EE92E0DC0108
:101480002A2F281B261718F421912D93F9CF80E0DD
:10149000089581E0089582E0089590932603809353
:1014A000250308959093280380932703089585EDDD
:1014B0008093BC008091BC0084FDFCCF10922C0373
:1014C000089585EC8093BC0010922C0308951F9220
:1014D0000F920FB60F9211242F933F934F935F9368
:1014E0006F937F938F939F93AF93BF93EF93FF93EC
:1014F0008091B900887F803609F49CC068F58832F5
:1015000009F45BC090F4803109F454C038F48823A6
:1015100009F4F3C0883009F44DC0F3C0883109F4F0
:101520004CC0803209F45DC0ECC0803409F468C05E
:1015300048F4803309F455C0883309F0E2C0809341
:10154000BF02A6C0803509F44FC0883509F45DC0DC
:10155000883409F0D6C0D3C0883909F4C4C0A8F4CF
:10156000883709F467C038F4883609F463C08037D7
:1015700009F460C0C6C0883809F4B5C0803909F4E0
:101580005FC0803809F0BDC05BC0803B09F483C0F8
:1015900038F4803A09F466C0883A09F47CC0B1C0D6
:1015A000803C09F4A4C0883C09F4A1C0883B09F43C
:1015B00087C0A7C080912B0310C090910403809135
:1015C0000303981770F5E091040381E08E0F809378
:1015D0000403F0E0EB5FFC4F80818093BB0085EC5F
:1015E00083C08093BF028BC0E091040381E08E0F23
:1015F000809304038091BB00F0E0EB5FFC4F80839D
:1016000090910403809103036BC0E091040381E097
:101610008E0F809304038091BB00F0E0EB5FFC4FE2
:10162000808380912A0381116AC081E0809329031D
:1016300084EA5EC083E080932C031092C002CFCF77
:101640008091C002803208F04EC0E091C00281E07B
:101650008E0F8093C0028091BB00F0E0EF53FD4FEE
:101660008083BDCF8091C002803230F4E091C0020F
:10167000F0E0EF53FD4F10826091C00270E0E09106
:101680002503F091260381EC92E009951092C002A7
:101690000E94610A36C084E080932C031092E2021B
:1016A0001092E102E0912703F091280309958091BF
:1016B000E102811105C081E08093E1021092E30212
:1016C000E091E20281E08E0F8093E202F0E0ED51C2
:1016D000FD4F80818093BB009091E2028091E102F6
:1016E000981708F47CCF85E88093BC000AC085EC8D
:1016F0008093BC0010922C0304C01092BF020E9481
:10170000570AFF91EF91BF91AF919F918F917F9178
:101710006F915F914F913F912F910F900FBE0F905E
:101720001F9018951F920F920FB60F9211242F93AE
:101730003F938F939F93AF93BF9380912E0390918C
:101740002F03A0913003B091310330912D0323E09A
:10175000230F2D3720F40196A11DB11D05C026E8E9
:10176000230F0296A11DB11D20932D0380932E03FC
:1017700090932F03A0933003B093310380913203F1
:1017800090913303A0913403B09135030196A11DCC
:10179000B11D8093320390933303A0933403B0932D
:1017A0003503BF91AF919F918F913F912F910F90F2
:1017B0000FBE0F901F9018952FB7F89460912E03CD
:1017C00070912F0380913003909131032FBF0895C2
:1017D0003FB7F8948091320390913303A091340382
:1017E000B091350326B5A89B05C02F3F19F001968F
:1017F000A11DB11D3FBF6627782F892F9A2F620F39
:10180000711D811D911D42E0660F771F881F991F72
:101810004A95D1F70895CF92DF92EF92FF92CF933E
:10182000DF936B017C010E94E80BEB01C114D10432
:10183000E104F10489F00E94C6120E94E80B6C1BBF
:101840007D0B683E734090F381E0C81AD108E1082F
:10185000F108C851DC4FEACFDF91CF91FF90EF90B4
:10186000DF90CF9008958230910538F0880F991F4E
:10187000880F991F05970197F1F70895789484B51B
:10188000826084BD84B5816084BD85B5826085BD7C
:1018900085B5816085BDEEE6F0E080818160808362
:1018A000E1E8F0E010828081826080838081816045
:1018B0008083E0E8F0E0808181608083E1EBF0E00C
:1018C000808184608083E0EBF0E0808181608083B0
:1018D000EAE7F0E080818460808380818260808399
:1018E0008081816080838081806880831092C100C4
:1018F0000895833081F028F4813099F08230A1F08E
:1019000008958730A9F08830B9F08430D1F48091FF
:1019100080008F7D03C0809180008F77809380004E
:10192000089584B58F7702C084B58F7D84BD0895F6
:101930008091B0008F7703C08091B0008F7D80933D
:10194000B0000895CF93DF9390E0FC01E35BFB4F81
:101950002491FC01EF59FB4F8491882349F190E0D9
:10196000880F991FFC01E757FB4FA591B49181584F
:101970009B4FFC01C591D4919FB7611108C0F894A9
:101980008C91209582238C93888182230AC06230B7
:1019900051F4F8948C91322F309583238C93888165
:1019A000822B888304C0F8948C91822B8C939FBFE8
:1019B000DF91CF9108950F931F93CF93DF931F92E1
:1019C000CDB7DEB7282F30E0F901E75CFB4F8491FB
:1019D000F901E35BFB4F1491F901EF59FB4F0491BF
:1019E0000023C9F0882321F069830E94790C698162
:1019F000E02FF0E0EE0FFF1FE158FB4FA591B491EF
:101A00009FB7F8948C91611103C01095812301C098
:101A1000812B8C939FBF0F90DF91CF911F910F91DE
:101A20000895CF93DF93282F30E0F901E75CFB4F57
:101A30008491F901E35BFB4FD491F901EF59FB4F1E
:101A4000C491CC2391F081110E94790CEC2FF0E02D
:101A5000EE0FFF1FEB58FB4FA591B4912C912D2356
:101A600081E090E021F480E002C080E090E0DF912E
:101A7000CF910895FC01818D228D90E0805C9F4F75
:101A8000821B91098F7399270895FC01918D828D96
:101A9000981731F0828DE80FF11D858D90E0089543
:101AA0008FEF9FEF0895FC01918D828D981761F063
:101AB000828DDF01A80FB11D5D968C91928D9F5F85
:101AC0009F73928F90E008958FEF9FEF089587EDB9
:101AD0009EE0892B49F080E090E0892B29F00E945C
:101AE000D70E81110C9400000895FC01848DDF0154
:101AF000A80FB11DA35ABF4F2C91848D90E0019681
:101B00008F739927848FA689B7892C93A089B1896F
:101B10008C9180648C93938D848D981306C0028879
:101B2000F389E02D80818F7D80830895CF93DF93AB
:101B3000EC01888D8823C9F0EA89FB89808185FDC5
:101B400005C0A889B9898C9186FD0FC00FB607FC26
:101B5000F5CF808185FFF2CFA889B9898C9185FF67
:101B6000EDCFCE010E94750DE7CFDF91CF910895A3
:101B7000CF92DF92FF920F931F93CF93DF931F9229
:101B8000CDB7DEB76C0181E0D60158968C9358979B
:101B90005B969C915B975C968C915C97981307C0C1
:101BA0005096ED91FC915197808185FD2EC0F601F4
:101BB000038D10E00F5F1F4F0F731127F02EF601FA
:101BC000848DF81211C00FB607FCF9CFD6015096DC
:101BD000ED91FC915197808185FFF1CFC60169831A
:101BE0000E94750D6981EBCF838DE80FF11DE35ADB
:101BF000FF4F6083D6015B960C935B975296ED91F5
:101C0000FC915397808180620CC0D6015696ED916D
:101C1000FC91579760835096ED91FC91519780818C
:101C20008064808381E090E00F90DF91CF911F91DD
:101C30000F91FF90DF90CF900895BF92CF92DF92E7
:101C4000EF92FF92CF93DF93EC016A017B01B22EFA
:101C5000E889F98982E08083411581EE58076105A2
:101C60007105A1F060E079E08DE390E0A7019601B5
:101C70000E94DB12215031094109510956954795BF
:101C800037952795211580E1380798F0E889F9897B
:101C9000108260E874E88EE190E0A70196010E944E
:101CA000DB12215031094109510956954795379565
:101CB0002795EC85FD853083EE85FF852083188E82
:101CC000EC89FD89B082EA89FB898081806180830B
:101CD000EA89FB89808188608083EA89FB89808129
:101CE00080688083EA89FB8980818F7D8083DF9192
:101CF000CF91FF90EF90DF90CF90BF9008951F920B
:101D00000F920FB60F9211242F938F939F93EF93FF
:101D1000FF93E0914603F09147038081E0914C03EB
:101D2000F0914D0382FD12C0908180914F038F5F2F
:101D30008F7320915003821751F0E0914F03F0E030
:101D4000EA5CFC4F958F80934F0301C08081FF9127
:101D5000EF919F918F912F910F900FBE0F901F9039
:101D600018951F920F920FB60F9211242F933F9345
:101D70004F935F936F937F938F939F93AF93BF9393
:101D8000EF93FF9386E393E00E94750DFF91EF912F
:101D9000BF91AF919F918F917F916F915F914F9183
:101DA0003F912F910F900FBE0F901F90189586E3D3
:101DB00093E00E943A0D21E0892B09F420E0822F64
:101DC0000895109239031092380388EE93E0A0E052
:101DD000B0E080933A0390933B03A0933C03B0930D
:101DE0003D0387EA91E0909337038093360385ECB7
:101DF00090E0909343038093420384EC90E09093AF
:101E000045038093440380EC90E0909347038093D4
:101E1000460381EC90E0909349038093480382EC61
:101E200090E090934B0380934A0386EC90E090936C
:101E30004D0380934C0310924F0310925003109265
:101E40005103109252030895CF92DF92EF92FF92C6
:101E50000F931F93CF93DF937C016A01EB0100E0A6
:101E600010E00C151D0571F06991D701ED91FC9101
:101E70000190F081E02DC7010995892B19F00F5FC2
:101E80001F4FEFCFC801DF91CF911F910F91FF90AE
:101E9000EF90DF90CF9008956115710581F0DB011F
:101EA0000D900020E9F7AD0141505109461B570B39
:101EB000DC01ED91FC910280F381E02D099480E03A
:101EC00090E00895EF92FF920F931F93CF93DF93CB
:101ED0008C017B01C0E0D0E0F701EC0FFD1F6491A5
:101EE000662359F0F801A081B181ED91FC91C80100
:101EF0000995892B11F02196EFCFCE01DF91CF917B
:101F00001F910F91FF90EF900895DC01ED91FC91EE
:101F1000DB0114964D915C9115976D917C91028037
:101F2000F381E02D09940C944C0F63EB71E00C9459
:101F30004C0F0F931F93CF93DF93EC010E94620F1E
:101F40008C01CE010E94950F800F911FDF91CF91E0
:101F50001F910F9108950F931F93CF93DF93EC017F
:101F60000E94850F8C01CE010E94950F800F911F5A
:101F7000DF91CF911F910F9108950F931F93CF93EE
:101F8000DF93EC010E944C0F8C01CE010E94950F53
:101F9000800F911FDF91CF911F910F9108958F9224
:101FA0009F92AF92BF92CF92DF92EF92FF920F93E8
:101FB0001F93CF93DF93CDB7DEB7A1970FB6F894F9
:101FC000DEBF0FBECDBF7C01C42EE52FCB01D22ECC
:101FD00019A221E02D1510F02AE0D22E8E010F5DFE
:101FE0001F4F8D2C912CA12CB12C6C2D7E2FA50177
:101FF00094010E94DB128C2DD29E80191124015075
:1020000011098A3014F4805D01C0895CF801808375
:10201000211531054105510521F0C22EE32FCA01DA
:10202000E4CFB801C7010E944C0FA1960FB6F894F7
:10203000DEBF0FBECDBFDF91CF911F910F91FF90FB
:10204000EF90DF90CF90BF90AF909F908F900895CA
:102050002115310541F4DC01ED91FC910190F081F5
:10206000E02D642F09940C94CF0F9A01462F50E075
:1020700060E070E00C9428100F931F93CF93DF93D0
:10208000EC019A01462F50E060E070E00E942810B9
:102090008C01CE010E94950F800F911FDF91CF918F
:1020A0001F910F910895FC01808191810C94AF13D1
:1020B000CF93DF93EC0188819981009711F00E9402
:1020C000AF13198218821D821C821B821A82DF9133
:1020D000CF9108950F931F93CF93DF93EC018B0162
:1020E0006F5F7F4F888199810E943E14009731F085
:1020F000998388831B830A8381E001C080E0DF919C
:10210000CF911F910F910895CF93DF93EC018881B8
:102110009981892B29F08A819B818617970760F422
:10212000CE010E946A10882341F08C819D81892B09
:1021300019F4E881F981108281E0DF91CF9108954F
:10214000EF92FF920F931F93CF93DF93EC017B01EC
:102150008A01BA010E948410811104C0CE010E943C
:10216000581007C01D830C83B701888199810E9494
:102170003D15CE01DF91CF911F910F91FF90EF9010
:102180000895FC011182108213821282158214823A
:102190006115710559F0FB0101900020E9F7AF01CD
:1021A00041505109461B570B0C94A0100895EF9213
:1021B000FF920F931F93CF93DF93EC017B018A0172
:1021C000BA010E948410811104C0CE010E945810EF
:1021D00007C01D830C83B701888199810E94101567
:1021E000CE01DF91CF911F910F91FF90EF90089555
:1021F0000F931F93CF93DF938C01EB01FC01808140
:102200009181009799F0428153812C813D81421741
:10221000530750F0688179810E943D158C819D8122
:10222000F8019583848313C00E94AF13888199813C
:10223000F801918380838A819B81938382838C813F
:102240009D8195838483198218821B821A821D8244
:102250001C82DF91CF911F910F910895CF93DF934F
:10226000EC01FB018617970761F0608171816115B0
:10227000710529F0448155810E94A01002C00E947E
:102280005810CE01DF91CF910895FC011182108288
:1022900013821282158214820C942E11CF93DF9335
:1022A000EC018617970711F00E94F810CE01DF911C
:1022B000CF910895CF93DF93EC016115710561F023
:1022C000FB0101900020E9F7AF0141505109461B85
:1022D000570B0E94A01002C00E945810CE01DF913F
:1022E000CF910895CF93DF9300D0CDB7DEB7FC0137
:1022F00011821082138212821582148269831A82DB
:10230000BE016F5F7F4F0E945A110F900F90DF91B7
:10231000CF9108950F931F93CF93DF9300D0CDB744
:10232000DEB78C016115710561F0CB0169837A8399
:102330000E941715AC0169817A81C8010E94D710EB
:1023400002C00E945810C8010F900F90DF91CF91EA
:102350001F910F910895FC01118210821382128245
:10236000158214820C948A11EF92FF920F931F939F
:10237000CF93DF93EC017B010C811D816115710509
:1023800011F480E016C04115510591F0040F151F9E
:10239000B8010E9484108823A1F3288139818C819F
:1023A0009D81B701820F931F0E943D151D830C83F1
:1023B00081E0DF91CF911F910F91FF90EF900895F1
:1023C000FB0144815581608171810C94B411FC0141
:1023D00024813581232B31F421E061157105A1F0B1
:1023E000FB0108C0FC01808191816115710531F408
:1023F00021E0FC018081882339F005C00E9434155A
:1024000021E0892B09F020E0822F0895EF92FF92BE
:102410000F931F93CF93DF938617970731F1FC013A
:1024200024813581FB014481558124173507F9F456
:10243000232BD9F0FC0100811181FB01C081D181E6
:10244000F80181918F01882381F0992787FD90956C
:102450000E9408157C018991992787FD90950E941B
:102460000815E816F90661F302C081E001C080E0BA
:10247000DF91CF911F910F91FF90EF900895FC0194
:10248000848195816817790720F480819181009774
:1024900029F41092D30383ED93E00895860F971FDC
:1024A0000895CF93DF93FC018481958148175907E4
:1024B00078F4C081D181772767FD7095CE01840FB4
:1024C000951F0E942915009719F08C1B9D0B02C0C7
:1024D0008FEF9FEFDF91CF91089540E050E00C9493
:1024E0005112BF92CF92DF92EF92FF920F931F9300
:1024F000CF93DF936C017B01EA0189012417350733
:1025000020F48D2FE901042F182F6FE871E0C60128
:102510000E94C110D70114968D919C911597C817F0
:10252000D907C8F48017910708F48C01D701ED9101
:10253000FC911197E00FF11FB08010826D917C919A
:102540006C0F7D1FC6010E945A11D701ED91FC91BD
:10255000E00FF11FB082C601DF91CF911F910F9163
:10256000FF90EF90DF90CF90BF90089508950E9464
:102570003E0C0E94B6120E94C702C7E6DDE00E9430
:1025800076032097E1F30E94670DF9CF089597FB3A
:10259000072E16F4009407D077FD09D00E94FD1293
:1025A00007FC05D03EF4909581959F4F0895709556
:1025B00061957F4F0895A1E21A2EAA1BBB1BFD0156
:1025C0000DC0AA1FBB1FEE1FFF1FA217B307E40712
:1025D000F50720F0A21BB30BE40BF50B661F771F6A
:1025E000881F991F1A9469F760957095809590954A
:1025F0009B01AC01BD01CF010895AA1BBB1B51E19A
:1026000007C0AA1FBB1FA617B70710F0A61BB70B62
:10261000881F991F5A95A9F780959095BC01CD0107
:102620000895EE0FFF1F0590F491E02D0994CF93CC
:10263000DF938230910510F482E090E0E091D603C0
:10264000F091D70320E030E0A0E0B0E0309739F11E
:102650004081518148175907B8F04817590771F45C
:1026600082819381109729F013969C938E931297F1
:102670002CC09093D7038093D60327C02115310532
:1026800031F04217530718F0A901DB0101C0EF0137
:102690009A01BD01DF010280F381E02DD7CF211522
:1026A0003105F9F0281B390B2430310580F48A817B
:1026B0009B816115710521F0FB019383828304C026
:1026C0009093D7038093D603FE01329644C0FE0157
:1026D000E20FF31F819391932250310939832883AC
:1026E0003AC02091D4033091D503232B41F420919B
:1026F0000201309103013093D5032093D40320913C
:102700000001309101012115310541F42DB73EB78B
:102710004091040150910501241B350BE091D40335
:10272000F091D503E217F307A0F42E1B3F0B2817F7
:10273000390778F0AC014E5F5F4F2417350748F03A
:102740004E0F5F1F5093D5034093D4038193919311
:1027500002C0E0E0F0E0CF01DF91CF910895CF9388
:10276000DF93009709F487C0FC013297138212822D
:10277000C091D603D091D703209781F42081318175
:10278000280F391F8091D4039091D50382179307A6
:1027900079F5F093D503E093D4036DC0DE0120E01A
:1027A00030E0AE17BF0750F412964D915C9113972D
:1027B0009D014115510509F1DA01F3CFB383A283DD
:1027C00040815181840F951F8A179B0771F48D9169
:1027D0009C911197840F951F029691838083129686
:1027E0008D919C911397938382832115310529F450
:1027F000F093D703E093D6033EC0D9011396FC9320
:10280000EE9312974D915D91A40FB51FEA17FB0748
:1028100079F480819181840F951F0296D9011196D8
:102820009C938E938281938113969C938E9312979F
:10283000E0E0F0E08A819B81009719F0FE01EC0155
:10284000F9CFCE01029628813981820F931F209102
:10285000D4033091D5032817390769F4309729F448
:102860001092D7031092D60302C013821282D09323
:10287000D503C093D403DF91CF910895A0E0B0E0D9
:10288000E4E4F4E10C946D15EC01CB01209719F40C
:102890000E941713B8C0FE01E60FF71F9E012250D9
:1028A0003109E217F30708F4ACC0D9010D911C916E
:1028B000119706171707B8F00530110508F49FC0E7
:1028C000A801445051094617570708F498C0025010
:1028D0001109061B170B019311936D937C93CF0184
:1028E0000E94AF138CC05B01A01AB10A4E01800E8A
:1028F000911EA091D603B091D703612C712C60E09A
:1029000070E0109709F449C0A815B905C9F5ED9014
:10291000FC901197670142E0C40ED11CCA14DB047D
:1029200078F147018A189B08640142E0C40ED11C6B
:102930001296BC9012971396AC91B5E0CB16D104C9
:1029400040F0B282A38391828082D9018D939C93BF
:1029500009C00E5F1F4F0E0D1F1DF901118300836B
:10296000EB2DFA2F6115710531F0DB011396FC9305
:10297000EE93129744C0F093D703E093D6033FC081
:102980006D917C9111976616770608F43B01BD01A5
:1029900012960D90BC91A02DB4CF6091D40370918C
:1029A000D50368157905E9F468167906D0F44091E5
:1029B0000001509101014115510541F44DB75EB739
:1029C0006091040170910501461B570BE417F50750
:1029D000C0F4F093D503E093D403F901918380838D
:1029E0000EC00E9417137C01009759F0A801BE0188
:1029F0000E942015CE010E94AF13C70104C0CE0172
:102A000002C080E090E0CDB7DEB7EEE00C9489150F
:102A10009111089581548A5108F4805E855A089571
:102A2000FB01DC0105900D920020E1F70895FC0107
:102A300005900020E9F7809590958E0F9F1F0895CF
:102A4000FB01DC0102C001900D9241505040D8F7CB
:102A50000895FC018191861721F08823D9F79927E1
:102A600008953197CF010895FB01DC018D9101900C
:102A700080190110D9F3990B0895FB01DC01019035
:102A80000D920020E1F70895FB01DC014150504018
:102A900048F001900D920020C9F701C01D924150ED
:102AA0005040E0F70895F999FECF92BD81BDF89AA4
:102AB000992780B50895262FF999FECF1FBA92BDA8
:102AC00081BD20BD0FB6F894FA9AF99A0FBE01960F
:102AD00008952F923F924F925F926F927F928F92C2
:102AE0009F92AF92BF92CF92DF92EF92FF920F939D
:102AF0001F93CF93DF93CDB7DEB7CA1BDB0B0FB6A7
:102B0000F894DEBF0FBECDBF09942A883988488863
:102B10005F846E847D848C849B84AA84B984C884F9
:102B2000DF80EE80FD800C811B81AA81B981CE0FF0
:102B3000D11D0FB6F894DEBF0FBECDBFED010895D5
:102B400014E0CAE9D4E004C0FE010E9413132296E7
:0A2B5000CC39D107C9F7F894FFCF84
:102B5A000000D8038000640000000408090A0B3052
:102B6A002E332E3000302E312E30004E6F7620203C
:102B7A003620323031352032333A32343A33350066
:102B8A00436C656172696E672074686520454550BB
:102B9A00524F4D20616464726573736573004D41D1
:102BAA005820434F4D4D414E445320657863656527
:102BBA006465640048454C5000434C520044554DEE
:102BCA005000493243004649440043494400496E93
:102BDA0076616C696420636F6D6D616E64000900D3
:102BEA003A200000000000AD09800926092E09419B
:102BFA0009500900000000B80D240F3A0D530D4585
:102C0A000D960D0D0A006E616E00696E66006F7694
:042C1A0066002E0022
:00000001FF
