:100000000C944E020C9476020C9476020C947802B6
:100010000C9476020C9476020C9476020C94760280
:100020000C9476020C9476020C9476020C94760270
:100030000C9476020C9476020C9476020C94760260
:100040000C94CA0B0C9476020C94B70E0C94E90E27
:100050000C9476020C9476020C9476020C94760240
:100060000C949F0A0C94760248454C50002D2D2D7F
:100070002D2D2D2D2D2D2D2D2D2D2D2D2D2D2D00DD
:10008000417661696C61626C6520636F6D6D616E54
:100090006473005472792068656C70203C636D64F1
:1000A0003E20666F72206D6F726520696E666F20EC
:1000B00061626F7574206561636820636F6D6D6147
:1000C0006E6400496E7465726368616E6765207660
:1000D000657273696F6E3A2000496E746572636869
:1000E000616E676520636F6E6669677572617469BA
:1000F0006F6E2068656C700053796E74617820654E
:1001000072726F7220706C656173652070726F76A9
:10011000696465206120636F6D6D616E64004F4B93
:100120002063726561746F72204944207365742086
:1001300000455252204E6F2063726561746F7220C9
:10014000494420737570706C696564004F4B20667C
:1001500069726D776172652049442073657420006F
:10016000455252204E6F206669726D77617265202C
:10017000494420737570706C696564004F4B204969
:100180003243206164647265737320736574200068
:10019000455252204E6F2061646472657373207300
:1001A0007570706C696564004F4B20454550524F27
:1001B0004D20636C6561726564007D0022002263DE
:1001C0006F6D70696C655F64617465223A2200220C
:1001D0002C002266775F76657273696F6E223A2211
:1001E00000222C002269635F76657273696F6E224C
:1001F0003A22002C00226932635F61646472657385
:1002000073223A002C0066616C7365007472756528
:1002100000227573655F637573746F6D5F616464ED
:1002200072223A002C0022756E646566696E656400
:1002300022002263726561746F724944223A002C75
:100240000022756E646566696E65642200226669C7
:10025000726D776172654944223A007B003E3E0030
:100260000A456E74657220636F6D6D616E642C203B
:10027000666F6C6C6F776564206279204E4C2E201F
:10028000547970652048454C5020666F72206D6F20
:1002900072652E00496E7465726368616E676520D1
:1002A0007665723A20005365747320746865206324
:1002B000726561746F722069642E200A0A20202002
:1002C00020202020202020202020202020206567A2
:1002D0003A206349442030783039207365747320A4
:1002E0007468652063726561746F7220696420743C
:1002F0006F2030783039005365747320746865203E
:100300006669726D776172652069642E200A0A2021
:1003100020202020202020202020202020202020DD
:1003200065673A204649442030783032207365743E
:100330007320746865206669726D776172652069E3
:100340006420746F203078303200536574732074E9
:10035000686520493243206164647265737320616B
:100360006E6420637573746F6D206669726D77615A
:10037000726520666C61672E0A0A202020202020EA
:10038000202020202020202020202065673A20499E
:100390003243203078353720312073657473206103
:1003A0006464726573732030783537202620637556
:1003B00073746F6D20666C6167206269740050729F
:1003C000696E7473206F757420616C6C206F662089
:1003D00074686520696E666F726D6174696F6E20F6
:1003E00061626F75742074686973206669726D77D5
:1003F00061726500436C6561727320746865206585
:100400006570726F6D2073657474696E67730050E8
:1004100072696E74732074686973206C6973742ECA
:10042000205472792048454C50203C434D443E2096
:10043000666F72206D6F7265000000000800020197
:100440000000030407000000000000000001020497
:100450000810204080010204081020010204081046
:10046000200404040404040404020202020202033D
:1004700003030303030000000023002600290000FB
:10048000000000250028002B0000000000240027A9
:10049000002A00003F09460A190F5C0911241FBEFB
:1004A000CFEFD8E0DEBFCDBF11E0A0E0B1E0EAE6DB
:1004B000FCE202C005900D92A43CB107D9F723E0FD
:1004C000A4ECB1E001C01D92A83DB207E1F714E031
:1004D000CAE9D4E004C02297FE010E947513C43912
:1004E000D107C9F70E9419130C9428160C94000028
:1004F0001F920F920FB60F9211240F931F932F93F9
:100500003F934F935F936F937F938F939F93AF939B
:10051000BF93EF93FF9388E00E94490D019771F418
:1005200081E08093C4010E94200C6093C501709308
:10053000C6018093C7019093C80116C00E94200C89
:100540000091C5011091C6012091C7013091C801E9
:10055000601B710B820B930B6093CD017093CE01E6
:100560008093CF019093D001FF91EF91BF91AF9114
:100570009F918F917F916F915F914F913F912F91BB
:100580001F910F910F900FBE0F901F901895CF9352
:10059000DF9300D000D000D0CDB7DEB70E94D806E0
:1005A000809168029091690281309105D9F426E02A
:1005B00040E855E260E070E086E393E00E94550E6B
:1005C0006FE071E0CE0101960E94F910BE016F5FED
:1005D0007F4F86E393E00E94ED06CE0101960E94D4
:1005E0008B1019C00297B9F40E942F07811102C025
:1005F00087E206C00E943B078823D1F30E943B0795
:10060000682F8AE692E00E942E0A6AE873E08AE682
:1006100092E00E94410A26960FB6F894DEBF0FBE04
:10062000CDBFDF91CF910895F894EBE6F0E08081A3
:100630008E7F8083DA9878940895F894EBE6F0E062
:10064000808181608083E8E6F0E080818160808342
:10065000789408950F931F930E94140C0091C90180
:100660001091CA012091CB013091CC01601B710B1C
:10067000820B930B00910601109107012091080154
:1006800030910901061717072807390760F50E94FE
:1006900014031092C40161E088E00E94DA0C60E06B
:1006A00088E00E94130D82E090E00E946B0C61E0F4
:1006B00088E00E94130D85E090E00E946B0C60E0E2
:1006C00088E00E94130D60E088E00E94DA0C0E942E
:1006D0001D030E94140C6093C9017093CA0180939A
:1006E000CB019093CC011F910F91089580916802E6
:1006F000909169028230910541F40E942A0364E1DD
:1007000070E080E090E00C94430C019711F40C949D
:10071000200808958091CD019091CE01A091CF0144
:10072000B091D0019093D1018091CD019091CE01F3
:10073000A091CF01B091D0018093D20142E050E06E
:1007400061ED71E08AE692E00C94B8096BE572E025
:100750008091E4019091E5010E949A0F6DE472E0AE
:100760008091E4019091E5010E949A0F6091DD0172
:100770008091E4019091E501611105C061E472E0AE
:100780000E949A0F04C04AE050E00E946D106FE38F
:1007900072E08091E4019091E5010E949A0F62E37A
:1007A00072E08091E4019091E5010E949A0F6091BE
:1007B000DC018091E4019091E501611105C066E2E0
:1007C00072E00E949A0F04C04AE050E00E946D104F
:1007D00064E272E08091E4019091E5010E949A0F39
:1007E00061E172E08091E4019091E5010E949A0F2D
:1007F0002091DB018091E4019091E501222319F021
:100800006CE072E002C066E072E00E949A0F64E061
:1008100072E08091E4019091E5010E949A0F65EFEA
:1008200071E08091E4019091E5010E949A0F4AE005
:1008300050E06091DA018091E4019091E5010E941D
:100840006D1063EF71E08091E4019091E5010E94E9
:100850009A0F64EE71E08091E4019091E5010E94AD
:100860009A0F65E171E08091E4019091E5010E94A9
:10087000CB0F61EE71E08091E4019091E5010E945F
:100880009A0F62ED71E08091E4019091E5010E9480
:100890009A0F64ED71E08091E4019091E5010E946E
:1008A000BD0F6FEC71E08091E4019091E5010E9431
:1008B0009A0F6EEB71E08091E4019091E5010E9446
:1008C0009A0F6BE171E08091E4019091E5010E9443
:1008D000CB0F6CEB71E08091E4019091E5010E94F7
:1008E0009A0F6AEB71E08091E4019091E5010C941C
:1008F000D10F0C94DB150C94E315CF93DF93EC012F
:100900008C819D81892B51F460E971E08091E40133
:100910009091E501DF91CF910C94D10F60E070E0F0
:10092000CE010E947712FC0160816093DA0188E0B9
:1009300090E00E947B046CE771E08091E40190916B
:10094000E5010E949A0F40E150E06091DA01809148
:10095000E4019091E5010E9474108C819D810397C0
:1009600078F062E070E0CE010E947712FC01808195
:10097000813321F481E08093DB0102C01092DB011E
:100980006091DB0189E090E0DF91CF910C947B04D2
:10099000CF93DF93CDB7DEB72A970FB6F894DEBFBB
:1009A0000FBECDBFFC0124813581232B49F460E6C5
:1009B00071E08091E4019091E5010E94D10F26C081
:1009C00020E030E04AE050E0BE016F5F7F4F0E94C0
:1009D0008912CE0101960E946A158093DD01682F6D
:1009E0008AE090E00E947B046CE471E08091E40175
:1009F0009091E5010E949A0F40E150E06091DD0185
:100A00008091E4019091E5010E9474102A960FB63E
:100A1000F894DEBF0FBECDBFDF91CF910895CF9385
:100A2000DF93CDB7DEB72A970FB6F894DEBF0FBEBF
:100A3000CDBFFC0124813581232B49F461E371E0B2
:100A40008091E4019091E5010E94D10F26C020E041
:100A500030E04AE050E0BE016F5F7F4F0E94891294
:100A6000CE0101960E946A158093DC01682F8BE00D
:100A700090E00E947B046EE171E08091E40190912E
:100A8000E5010E949A0F40E150E06091DC01809105
:100A9000E4019091E5010E9474102A960FB6F89433
:100AA000DEBF0FBECDBFDF91CF910895CF93DF930F
:100AB00084ED91E00E948B108EED91E00E948B10EE
:100AC000C8E6D2E0CE0108970E948B102D9781E0F6
:100AD000C63ED807B9F7DF91CF910895CF93DF9342
:100AE000EC018BE090E00E9479048F3F11F080933D
:100AF000DC018AE090E00E9479048F3F11F080933E
:100B0000DD0189E090E00E9479048F3F31F091E0AF
:100B1000811101C090E09093DB0188E090E00E9499
:100B200079048F3F11F08093DA01BE0184ED91E0EA
:100B3000DF91CF910C9466111F93CF93DF9300D078
:100B400000D000D0CDB7DEB760E371E08091E40162
:100B50009091E5010E94F50F10E080910A011817AD
:100B600058F4E12FF0E0E55FFE4F80816FEF90E0F9
:100B70000E947B041F5FF1CF64ED71E0CE0101960E
:100B80000E947D11CE0101960E946E05CE01019654
:100B90000E948B1068EA71E08091E4019091E50178
:100BA0000E94D10F26960FB6F894DEBF0FBECDBFC0
:100BB000DF91CF911F910895CF92DF92EF92FF9234
:100BC0000F931F93CF93DF93CDB7DEB72D970FB65B
:100BD000F894DEBF0FBECDBF6C017B018A0180910E
:100BE000D3018A30D0F56FE871E0CE0106960E94FD
:100BF000F91045E050E0B601CE0101960E94C415FF
:100C0000B701CE0106960E9466111D870C870091E0
:100C1000D3018DE0089F800111240A511E4F85E009
:100C2000FE013196D80101900D928A95E1F7BE013F
:100C30006A5F7F4FC80105960E9466118C859D856D
:100C4000F801948783878091D3018F5F8093D301CC
:100C5000CE0106960E948B1008C06EE471E0809170
:100C6000E4019091E5010E94F50F2D960FB6F894DE
:100C7000DEBF0FBECDBFDF91CF911F910F91FF90CF
:100C8000EF90DF90CF9008950F931F93CF93DF9352
:100C900000D000D000D0CDB7DEB78C016FE074E09B
:100CA000CE0101960E94E31149E758E0BE016F5F53
:100CB0007F4F84E691E00E94DC05CE0101960E9400
:100CC0008B1064EF73E0CE0101960E94E3114CE9B2
:100CD00055E0BE016F5F7F4F89E691E00E94DC0521
:100CE000CE0101960E948B106EEB73E0CE0101964F
:100CF0000E94E31146EA53E0BE016F5F7F4F8DE62D
:100D000091E00E94DC05CE0101960E948B106AE4FE
:100D100073E0CE0101960E94E3114DE754E0BE015D
:100D20006F5F7F4F82E791E00E94DC05CE01019664
:100D30000E948B1067EF72E0CE0101960E94E311D2
:100D400048EC54E0BE016F5F7F4F86E791E00E9460
:100D5000DC05CE0101960E948B1066EA72E0CE019E
:100D600001960E94E3114FE055E0BE016F5F7F4F97
:100D70008AE791E00E94DC05CE0101960E948B106B
:100D8000B801CE0101960E947D11CE0101960E940C
:100D90006E05CE0101960E948B1026960FB6F89430
:100DA000DEBF0FBECDBFDF91CF911F910F91089590
:100DB00060E082E00E94DA0C82E390E00E946B0C1B
:100DC00082E00E94490D8130910511F082E090E0AF
:100DD000909369028093680208950F931F93CF93B5
:100DE000DF9300D000D000D0CDB7DEB78B01909359
:100DF000E5018093E40164E972E00E949A0F65E1E5
:100E000071E08091E4019091E5010E94F50F60E6A8
:100E100072E08091E4019091E5010E94D10F6DE5AF
:100E200072E08091E4019091E5010E94D10FB80138
:100E3000CE0101960E947D11CE0101960E944406CA
:100E4000CE0101960E948B1026960FB6F894DEBF55
:100E50000FBECDBFDF91CF911F910F91089589E013
:100E600090E00E947904982F8F3F19F081E0911152
:100E700001C080E0089588E090E00E9479048F3FEF
:100E800009F480E00895BF92CF92DF92EF92FF9233
:100E90000F931F93CF93DF9300D000D000D0CDB736
:100EA000DEB77C01D12C8DE0C82E8091D301D816FD
:100EB000E0F40D2D10E0C09EB001C19E700D112414
:100EC0006A517E4FCE0101960E94F910BE016F5FFC
:100ED0007F4FC7010E943E12B82ECE0101960E949C
:100EE0008B10B11004C0D394E0CF0FEF1FEFC801F7
:100EF00026960FB6F894DEBF0FBECDBFDF91CF911F
:100F00001F910F91FF90EF90DF90CF90BF900895C9
:100F1000DF92EF92FF920F931F93CF93DF93CDB7A2
:100F2000DEB762970FB6F894DEBF0FBECDBF8C015F
:100F30006FE871E0CE0101960E94F9106FE871E050
:100F4000CE0107960E94F91060E2C8010E94CF12FC
:100F5000D82EE82EFF24E7FCF094970140E050E003
:100F6000B801CE010D960E94D312BE01635F7F4F80
:100F7000CE0101960E948611CE010D960E948B1023
:100F80001D14B4F4F80124813581A7014F5F5F4F30
:100F9000B801CE010D960E94D312BE01635F7F4F50
:100FA000CE0107960E948611CE010D960E948B10ED
:100FB000BE016F5F7F4FCE010D960E947D11CE0165
:100FC0000D960E944307182FCE010D960E948B109C
:100FD00017FD2DC08DE01802F0011124EA51FE4FDB
:100FE00003851485BE01695F7F4FCE010D960E9477
:100FF0007D11CE010D96F8010995CE010D960E9446
:101000008B10CE0107960E948B10CE0101960E9494
:101010008B1062960FB6F894DEBF0FBECDBFDF9186
:10102000CF911F910F91FF90EF90DF9008956EE7A1
:1010300071E08091E4019091E5010E94F50FE1CF0C
:10104000CF93DF9300D000D000D0CDB7DEB7809132
:10105000E4019091E501DC01ED91FC910480F581C2
:10106000E02D099518161906DCF58091E4019091A0
:10107000E501DC01ED91FC910680F781E02D0995F9
:101080008A30A9F46EED71E0CE0101960E947D11C7
:10109000CE0101960E948807CE0101960E948B1016
:1010A0006FE871E08EED91E00E949211D0CF9FEF3A
:1010B000980F993060F295EF980F953140F2682FB4
:1010C000CE0101960E94AA11BE016F5F7F4F8EED87
:1010D00091E00E941812CE0101960E948B10B7CFAA
:1010E00026960FB6F894DEBF0FBECDBFDF91CF912D
:1010F0000895CF92DF92EF92FF920F931F93CF93B9
:10110000DF9300D000D000D0CDB7DEB7FC01248142
:10111000358122303105E0F1BC01CE0101960E94FB
:101120007D11CE0101960E944307082FCE01019642
:101130000E948B108091E4019091E50107FF05C0AA
:1011400068EF70E00E94D10F23C068E670E00E9453
:10115000D10F8DE0080280011124B8016A517E4F41
:101160008091E4019091E5010E94CB0F60E971E06C
:101170008091E4019091E5010E94CB0FB801655187
:101180007E4F8091E4019091E5010E94E30F68C0D9
:1011900069ED70E08091E4019091E5010E94D10F2A
:1011A00063EC70E08091E4019091E5010E949A0F58
:1011B00065E171E08091E4019091E5010E94F50FF5
:1011C00063E970E08091E4019091E5010E94D10F04
:1011D00060E870E08091E4019091E5010E94D10FF8
:1011E0006DE670E08091E4019091E5010E94D10FDD
:1011F00096EEE92E91E0F92E00E010E023E0C22EF9
:10120000D12C6FE871E0C70105960E941F12811171
:1012100019C0B7018091E4019091E5010E94CB0FC4
:10122000C801B6010E9429139C018091E4019091AC
:10123000E501232B19F40E94CD0F04C06EE871E084
:101240000E94CB0F0F5F1F4FFDE0EF0EF11C0A3025
:101250001105B9F68091E4019091E5010E94CD0F4E
:1012600026960FB6F894DEBF0FBECDBFDF91CF91AB
:101270001F910F91FF90EF90DF90CF900895CF9343
:10128000DF93C0E0D0E06FE871E0CE0185519E4F62
:101290000E94F9102D96C238D105A9F76FE871E0C8
:1012A0008EED91E00E94F9106FE871E084ED91E01D
:1012B000DF91CF910C94F9100C94560580919D020A
:1012C00090E020919E02821B9109089520919E0238
:1012D00080919D02281750F4E22FF0E0E156FD4F77
:1012E000808190E02F5F20939E0208958FEF9FEF03
:1012F0000895E0919E0280919D02E81730F4F0E09D
:10130000E156FD4F808190E008958FEF9FEF0895A3
:101310000895E0917602F09177023097E1F03091F4
:101320009E0220919D023217B0F040E0242F30E061
:101330002617370754F4DC01A20FB31F5C91D901C3
:10134000A156BD4F5C934F5FF1CF10929E02609308
:101350009D02CB0109940895E0917802F091790201
:10136000309729F010927C0210927B020994089524
:10137000CF92DF92EF92FF920F931F93CF93DF9361
:101380007C01CB018A0120917A02222389F0EB01B2
:101390006B01C40ED51ECC15DD0569F06991D7012E
:1013A000ED91FC910190F081E02DC7010995F3CFFB
:1013B000642F0E946C0AC801DF91CF911F910F9199
:1013C000FF90EF90DF90CF900895CF93DF931F921F
:1013D000CDB7DEB7698320917A022223D1F0209124
:1013E0007B02203240F021E030E0FC013383228395
:1013F00080E090E015C080917C02E82FF0E0E35897
:10140000FD4F998190838F5F80937C0280937B0254
:1014100005C061E0CE0101960E946C0A81E090E077
:101420000F90DF91CF910895FC011382128248EE54
:1014300053E060E070E0448355836683778387E9F7
:1014400091E091838083089510929E0210929D02F4
:1014500010927C0210927B020C944A0ACF93DF9385
:10146000EC01862F0E94680A8CEA99E00E948A0AA1
:1014700089E899E00E94850ACE01DF91CF910C9412
:10148000240A709379026093780208958AE692E0C4
:101490000C94140A10922C0381E080932A0310927A
:1014A000290361E082E10E94130D61E083E10E9463
:1014B000130DE9EBF0E080818E7F808380818D7F4A
:1014C000808388E48093B80085E48093BC0008950D
:1014D000880F8093BA000895613298F420912C030C
:1014E000243089F46093E102FC0183EE92E0DC0198
:1014F0002A2F281B261718F421912D93F9CF80E06D
:10150000089581E0089582E00895909326038093E2
:10151000250308959093280380932703089585ED6C
:101520008093BC008091BC0084FDFCCF10922C0302
:10153000089585EC8093BC0010922C0308951F92AF
:101540000F920FB60F9211242F933F934F935F93F7
:101550006F937F938F939F93AF93BF93EF93FF937B
:101560008091B900887F803609F49CC068F5883284
:1015700009F45BC090F4803109F454C038F4882336
:1015800009F4F3C0883009F44DC0F3C0883109F480
:101590004CC0803209F45DC0ECC0803409F468C0EE
:1015A00048F4803309F455C0883309F0E2C08093D1
:1015B000BF02A6C0803509F44FC0883509F45DC06C
:1015C000883409F0D6C0D3C0883909F4C4C0A8F45F
:1015D000883709F467C038F4883609F463C0803767
:1015E00009F460C0C6C0883809F4B5C0803909F470
:1015F0005FC0803809F0BDC05BC0803B09F483C088
:1016000038F4803A09F466C0883A09F47CC0B1C065
:10161000803C09F4A4C0883C09F4A1C0883B09F4CB
:1016200087C0A7C080912B0310C0909104038091C4
:101630000303981770F5E091040381E08E0F809307
:101640000403F0E0EB5FFC4F80818093BB0085ECEE
:1016500083C08093BF028BC0E091040381E08E0FB2
:10166000809304038091BB00F0E0EB5FFC4F80832C
:1016700090910403809103036BC0E091040381E027
:101680008E0F809304038091BB00F0E0EB5FFC4F72
:10169000808380912A0381116AC081E080932903AD
:1016A00084EA5EC083E080932C031092C002CFCF07
:1016B0008091C002803208F04EC0E091C00281E00B
:1016C0008E0F8093C0028091BB00F0E0EF53FD4F7E
:1016D0008083BDCF8091C002803230F4E091C0029F
:1016E000F0E0EF53FD4F10826091C00270E0E09196
:1016F0002503F091260381EC92E009951092C00237
:101700000E94990A36C084E080932C031092E20272
:101710001092E102E0912703F0912803099580914E
:10172000E102811105C081E08093E1021092E302A1
:10173000E091E20281E08E0F8093E202F0E0ED5151
:10174000FD4F80818093BB009091E2028091E10285
:10175000981708F47CCF85E88093BC000AC085EC1C
:101760008093BC0010922C0304C01092BF020E9410
:101770008F0AFF91EF91BF91AF919F918F917F91D0
:101780006F915F914F913F912F910F900FBE0F90EE
:101790001F9018951F920F920FB60F9211242F933E
:1017A0003F938F939F93AF93BF9380912E0390911C
:1017B0002F03A0913003B091310330912D0323E02A
:1017C000230F2D3720F40196A11DB11D05C026E879
:1017D000230F0296A11DB11D20932D0380932E038C
:1017E00090932F03A0933003B09331038091320381
:1017F00090913303A0913403B09135030196A11D5C
:10180000B11D8093320390933303A0933403B093BC
:101810003503BF91AF919F918F913F912F910F9081
:101820000FBE0F901F9018952FB7F89460912E035C
:1018300070912F0380913003909131032FBF089551
:101840003FB7F8948091320390913303A091340311
:10185000B091350326B5A89B05C02F3F19F001961E
:10186000A11DB11D3FBF6627782F892F9A2F620FC8
:10187000711D811D911D42E0660F771F881F991F02
:101880004A95D1F70895CF92DF92EF92FF92CF93CE
:10189000DF936B017C010E94200CEB01C114D10489
:1018A000E104F10489F00E9428130E94200C6C1BB3
:1018B0007D0B683E734090F381E0C81AD108E108BF
:1018C000F108C851DC4FEACFDF91CF91FF90EF9044
:1018D000DF90CF9008958230910538F0880F991FDE
:1018E000880F991F05970197F1F70895789484B5AB
:1018F000826084BD84B5816084BD85B5826085BD0C
:1019000085B5816085BDEEE6F0E0808181608083F1
:10191000E1E8F0E0108280818260808380818160D4
:101920008083E0E8F0E0808181608083E1EBF0E09B
:10193000808184608083E0EBF0E08081816080833F
:10194000EAE7F0E080818460808380818260808328
:101950008081816080838081806880831092C10053
:101960000895833081F028F4813099F08230A1F01D
:1019700008958730A9F08830B9F08430D1F480918F
:1019800080008F7D03C0809180008F7780938000DE
:10199000089584B58F7702C084B58F7D84BD089586
:1019A0008091B0008F7703C08091B0008F7D8093CD
:1019B000B0000895CF93DF9390E0FC01E35BFB4F11
:1019C0002491FC01EF59FB4F8491882349F190E069
:1019D000880F991FFC01E757FB4FA591B4918158DF
:1019E0009B4FFC01C591D4919FB7611108C0F89439
:1019F0008C91209582238C93888182230AC0623047
:101A000051F4F8948C91322F309583238C938881F4
:101A1000822B888304C0F8948C91822B8C939FBF77
:101A2000DF91CF9108950F931F93CF93DF931F9270
:101A3000CDB7DEB7282F30E0F901E75CFB4F84918A
:101A4000F901E35BFB4F1491F901EF59FB4F04914E
:101A50000023C9F0882321F069830E94B10C6981B9
:101A6000E02FF0E0EE0FFF1FE158FB4FA591B4917E
:101A70009FB7F8948C91611103C01095812301C028
:101A8000812B8C939FBF0F90DF91CF911F910F916E
:101A90000895CF93DF93282F30E0F901E75CFB4FE7
:101AA0008491F901E35BFB4FD491F901EF59FB4FAE
:101AB000C491CC2391F081110E94B10CEC2FF0E085
:101AC000EE0FFF1FEB58FB4FA591B4912C912D23E6
:101AD00081E090E021F480E002C080E090E0DF91BE
:101AE000CF910895FC01818D228D90E0805C9F4F05
:101AF000821B91098F7399270895FC01918D828D26
:101B0000981731F0828DE80FF11D858D90E00895D2
:101B10008FEF9FEF0895FC01918D828D981761F0F2
:101B2000828DDF01A80FB11D5D968C91928D9F5F14
:101B30009F73928F90E008958FEF9FEF08958FE04D
:101B40009FE0892B49F080E090E0892B29F00E94EA
:101B50000F0F81110C9400000895FC01848DDF01AA
:101B6000A80FB11DA35ABF4F2C91848D90E0019610
:101B70008F739927848FA689B7892C93A089B189FF
:101B80008C9180648C93938D848D981306C0028809
:101B9000F389E02D80818F7D80830895CF93DF933B
:101BA000EC01888D8823C9F0EA89FB89808185FD55
:101BB00005C0A889B9898C9186FD0FC00FB607FCB6
:101BC000F5CF808185FFF2CFA889B9898C9185FFF7
:101BD000EDCFCE010E94AD0DE7CFDF91CF910895FB
:101BE000CF92DF92FF920F931F93CF93DF931F92B9
:101BF000CDB7DEB76C0181E0D60158968C9358972B
:101C00005B969C915B975C968C915C97981307C050
:101C10005096ED91FC915197808185FD2EC0F60183
:101C2000038D10E00F5F1F4F0F731127F02EF60189
:101C3000848DF81211C00FB607FCF9CFD60150966B
:101C4000ED91FC915197808185FFF1CFC6016983A9
:101C50000E94AD0D6981EBCF838DE80FF11DE35A32
:101C6000FF4F6083D6015B960C935B975296ED9184
:101C7000FC915397808180620CC0D6015696ED91FD
:101C8000FC91579760835096ED91FC91519780811C
:101C90008064808381E090E00F90DF91CF911F916D
:101CA0000F91FF90DF90CF900895BF92CF92DF9277
:101CB000EF92FF92CF93DF93EC016A017B01B22E8A
:101CC000E889F98982E08083411581EE5807610532
:101CD0007105A1F060E079E08DE390E0A701960145
:101CE0000E943D13215031094109510956954795EC
:101CF00037952795211580E1380798F0E889F9890B
:101D0000108260E874E88EE190E0A70196010E94DD
:101D10003D13215031094109510956954795379591
:101D20002795EC85FD853083EE85FF852083188E11
:101D3000EC89FD89B082EA89FB898081806180839A
:101D4000EA89FB89808188608083EA89FB898081B8
:101D500080688083EA89FB8980818F7D8083DF9121
:101D6000CF91FF90EF90DF90CF90BF9008951F929A
:101D70000F920FB60F9211242F938F939F93EF938F
:101D8000FF93E0914603F09147038081E0914C037B
:101D9000F0914D0382FD12C0908180914F038F5FBF
:101DA0008F7320915003821751F0E0914F03F0E0C0
:101DB000EA5CFC4F958F80934F0301C08081FF91B7
:101DC000EF919F918F912F910F900FBE0F901F90C9
:101DD00018951F920F920FB60F9211242F933F93D5
:101DE0004F935F936F937F938F939F93AF93BF9323
:101DF000EF93FF9386E393E00E94AD0DFF91EF9187
:101E0000BF91AF919F918F917F916F915F914F9112
:101E10003F912F910F900FBE0F901F90189586E362
:101E200093E00E94720D21E0892B09F420E0822FBB
:101E30000895109239031092380388EE93E0A0E0E1
:101E4000B0E080933A0390933B03A0933C03B0939C
:101E50003D0387EA91E0909337038093360385EC46
:101E600090E0909343038093420384EC90E090933E
:101E700045038093440380EC90E090934703809364
:101E8000460381EC90E0909349038093480382ECF1
:101E900090E090934B0380934A0386EC90E09093FC
:101EA0004D0380934C0310924F03109250031092F5
:101EB0005103109252030895CF92DF92EF92FF9256
:101EC0000F931F93CF93DF937C016A01EB0100E036
:101ED00010E00C151D0571F06991D701ED91FC9191
:101EE0000190F081E02DC7010995892B19F00F5F52
:101EF0001F4FEFCFC801DF91CF911F910F91FF903E
:101F0000EF90DF90CF9008956115710581F0DB01AE
:101F10000D900020E9F7AD0141505109461B570BC8
:101F2000DC01ED91FC910280F381E02D099480E0C9
:101F300090E00895EF92FF920F931F93CF93DF935A
:101F40008C017B01C0E0D0E0F701EC0FFD1F649134
:101F5000662359F0F801A081B181ED91FC91C8018F
:101F60000995892B11F02196EFCFCE01DF91CF910A
:101F70001F910F91FF90EF900895DC01ED91FC917E
:101F8000DB0114964D915C9115976D917C910280C7
:101F9000F381E02D09940C94840F63EB71E00C94B1
:101FA000840F0F931F93CF93DF93EC010E949A0F3E
:101FB0008C01CE010E94CD0F800F911FDF91CF9138
:101FC0001F910F9108950F931F93CF93DF93EC010F
:101FD0000E94BD0F8C01CE010E94CD0F800F911F7A
:101FE000DF91CF911F910F9108950F931F93CF937E
:101FF000DF93EC010E94840F8C01CE010E94CD0F73
:10200000800F911FDF91CF911F910F9108958F92B3
:102010009F92AF92BF92CF92DF92EF92FF920F9377
:102020001F93CF93DF93CDB7DEB7A1970FB6F89488
:10203000DEBF0FBECDBF7C01C42EE52FCB01D22E5B
:1020400019A221E02D1510F02AE0D22E8E010F5D8D
:102050001F4F8D2C912CA12CB12C6C2D7E2FA50106
:1020600094010E943D138C2DD29E801911240150A1
:1020700011098A3014F4805D01C0895CF801808305
:10208000211531054105510521F0C22EE32FCA016A
:10209000E4CFB801C7010E94840FA1960FB6F8944F
:1020A000DEBF0FBECDBFDF91CF911F910F91FF908B
:1020B000EF90DF90CF90BF90AF909F908F9008955A
:1020C0002115310541F4DC01ED91FC910190F08185
:1020D000E02D642F09940C9407109A01462F50E0CC
:1020E00060E070E00C9460100F931F93CF93DF9328
:1020F000EC019A01462F50E060E070E00E94601011
:102100008C01CE010E94CD0F800F911FDF91CF91E6
:102110001F910F910895FC01808191810C941114FD
:10212000CF93DF93EC0188819981009711F00E9491
:102130001114198218821D821C821B821A82DF915F
:10214000CF9108950F931F93CF93DF93EC018B01F1
:102150006F5F7F4F888199810E94A014009731F0B2
:10216000998388831B830A8381E001C080E0DF912B
:10217000CF911F910F910895CF93DF93EC01888148
:102180009981892B29F08A819B818617970760F4B2
:10219000CE010E94A210882341F08C819D81892B61
:1021A00019F4E881F981108281E0DF91CF910895DF
:1021B000EF92FF920F931F93CF93DF93EC017B017C
:1021C0008A01BA010E94BC10811104C0CE010E9494
:1021D000901007C01D830C83B701888199810E94EC
:1021E000BD15CE01DF91CF911F910F91FF90EF9020
:1021F0000895FC01118210821382128215821482CA
:102200006115710559F0FB0101900020E9F7AF015C
:1022100041505109461B570B0C94D8100895EF926A
:10222000FF920F931F93CF93DF93EC017B018A0101
:10223000BA010E94BC10811104C0CE010E9490100E
:1022400007C01D830C83B701888199810E94901576
:10225000CE01DF91CF911F910F91FF90EF900895E4
:102260000F931F93CF93DF938C01EB01FC018081CF
:102270009181009799F0428153812C813D814217D1
:10228000530750F0688179810E94BD158C819D8132
:10229000F8019583848313C00E9411148881998169
:1022A000F801918380838A819B81938382838C81CF
:1022B0009D8195838483198218821B821A821D82D4
:1022C0001C82DF91CF911F910F910895CF93DF93DF
:1022D000EC01FB018617970761F060817181611540
:1022E000710529F0448155810E94D81002C00E94D6
:1022F0009010CE01DF91CF910895FC0111821082E0
:1023000013821282158214820C946611CF93DF938C
:10231000EC018617970711F00E943011CE01DF9172
:10232000CF910895CF93DF93EC016115710561F0B2
:10233000FB0101900020E9F7AF0141505109461B14
:10234000570B0E94D81002C00E949010CE01DF915E
:10235000CF910895CF93DF9300D0CDB7DEB7FC01C6
:1023600011821082138212821582148269831A826A
:10237000BE016F5F7F4F0E9492110F900F90DF910F
:10238000CF9108950F931F93CF93DF9300D0CDB7D4
:10239000DEB78C016115710561F0CB0169837A8329
:1023A0000E949715AC0169817A81C8010E940F11C2
:1023B00002C00E949010C8010F900F90DF91CF9142
:1023C0001F910F910895FC011182108213821282D5
:1023D000158214820C94C211EF92FF920F931F93F7
:1023E000CF93DF93EC017B010C811D816115710599
:1023F00011F480E016C04115510591F0040F151F2E
:10240000B8010E94BC108823A1F3288139818C81F6
:102410009D81B701820F931F0E94BD151D830C8300
:1024200081E0DF91CF911F910F91FF90EF90089580
:10243000FB0144815581608171810C94EC11FC0198
:1024400024813581232B31F421E061157105A1F040
:10245000FB0108C0FC01808191816115710531F497
:1024600021E0FC018081882339F005C00E94B41569
:1024700021E0892B09F020E0822F0895EF92FF924E
:102480000F931F93CF93DF938617970731F1FC01CA
:1024900024813581FB014481558124173507F9F4E6
:1024A000232BD9F0FC0100811181FB01C081D18176
:1024B000F80181918F01882381F0992787FD9095FC
:1024C0000E9488157C018991992787FD90950E942B
:1024D0008815E816F90661F302C081E001C080E0CA
:1024E000DF91CF911F910F91FF90EF900895FC0124
:1024F000848195816817790720F480819181009704
:1025000029F41092D30383ED93E00895860F971F6B
:1025100008950F931F93CF93DF93EB01411551055E
:10252000E9F02097D9F0FC016481758126173707FF
:10253000A0F4621B730B8A01015011096017710727
:1025400008F48B01FC0160817181620F731FA80187
:10255000CE010E94C415C00FD11F1882DF91CF9108
:102560001F910F910895CF93DF93FC018481958192
:102570004817590778F4C081D181772767FD709596
:10258000CE01840F951F0E94A915009719F08C1B8E
:102590009D0B02C08FEF9FEFDF91CF91089540E038
:1025A00050E00C94B312BF92CF92DF92EF92FF9261
:1025B0000F931F93CF93DF936C017B01EA01890195
:1025C0002417350720F48D2FE901042F182F6FE809
:1025D00071E0C6010E94F910D70114968D919C916B
:1025E0001597C817D907C8F48017910708F48C010C
:1025F000D701ED91FC911197E00FF11FB08010828F
:102600006D917C916C0F7D1FC6010E949211D701C4
:10261000ED91FC91E00FF11FB082C601DF91CF91E7
:102620001F910F91FF90EF90DF90CF90BF90089592
:1026300008950E94760C0E9418130E94C702CFE9E9
:10264000DDE00E9476032097E1F30E949F0DF9CF11
:10265000089597FB072E16F4009407D077FD09D054
:102660000E945F1307FC05D03EF4909581959F4F23
:102670000895709561957F4F0895A1E21A2EAA1BC7
:10268000BB1BFD010DC0AA1FBB1FEE1FFF1FA21722
:10269000B307E407F50720F0A21BB30BE40BF50B1F
:1026A000661F771F881F991F1A9469F760957095A8
:1026B000809590959B01AC01BD01CF010895AA1BA7
:1026C000BB1B51E107C0AA1FBB1FA617B70710F01D
:1026D000A61BB70B881F991F5A95A9F7809590954F
:1026E000BC01CD010895EE0FFF1F0590F491E02D80
:1026F0000994CF93DF938230910510F482E090E04B
:10270000E091D603F091D70320E030E0A0E0B0E004
:10271000309739F14081518148175907B8F048176F
:10272000590771F482819381109729F013969C9335
:102730008E9312972CC09093D7038093D60327C013
:102740002115310531F04217530718F0A901DB01BB
:1027500001C0EF019A01BD01DF010280F381E02D8C
:10276000D7CF21153105F9F0281B390B243031055D
:1027700080F48A819B816115710521F0FB019383AF
:10278000828304C09093D7038093D603FE013296D0
:1027900044C0FE01E20FF31F81939193225031094F
:1027A000398328833AC02091D4033091D503232B59
:1027B00041F420910201309103013093D50320931D
:1027C000D40320910001309101012115310541F41C
:1027D0002DB73EB74091040150910501241B350BE4
:1027E000E091D403F091D503E217F307A0F42E1B78
:1027F0003F0B2817390778F0AC014E5F5F4F241765
:10280000350748F04E0F5F1F5093D5034093D40314
:102810008193919302C0E0E0F0E0CF01DF91CF918E
:102820000895CF93DF93009709F487C0FC01329796
:1028300013821282C091D603D091D703209781F4DE
:1028400020813181280F391F8091D4039091D503C5
:102850008217930779F5F093D503E093D4036DC005
:10286000DE0120E030E0AE17BF0750F412964D9124
:102870005C9113979D014115510509F1DA01F3CFE0
:10288000B383A28340815181840F951F8A179B07D0
:1028900071F48D919C911197840F951F02969183ED
:1028A000808312968D919C91139793838283211537
:1028B000310529F4F093D703E093D6033EC0D90144
:1028C0001396FC93EE9312974D915D91A40FB51F53
:1028D000EA17FB0779F480819181840F951F029696
:1028E000D90111969C938E938281938113969C9328
:1028F0008E931297E0E0F0E08A819B81009719F0B7
:10290000FE01EC01F9CFCE01029628813981820FB8
:10291000931F2091D4033091D5032817390769F408
:10292000309729F41092D7031092D60302C0138275
:102930001282D093D503C093D403DF91CF91089531
:10294000A0E0B0E0E6EAF4E10C94F515EC01CB016F
:10295000209719F40E947913B8C0FE01E60FF71F03
:102960009E0122503109E217F30708F4ACC0D901E7
:102970000D911C91119706171707B8F00530110536
:1029800008F49FC0A801445051094617570708F49E
:1029900098C002501109061B170B019311936D93F8
:1029A0007C93CF010E9411148CC05B01A01AB10A64
:1029B0004E01800E911EA091D603B091D703612CD9
:1029C000712C60E070E0109709F449C0A815B905B2
:1029D000C9F5ED90FC901197670142E0C40ED11C3F
:1029E000CA14DB0478F147018A189B08640142E0AD
:1029F000C40ED11C1296BC9012971396AC91B5E000
:102A0000CB16D10440F0B282A38391828082D90197
:102A10008D939C9309C00E5F1F4F0E0D1F1DF90172
:102A200011830083EB2DFA2F6115710531F0DB0165
:102A30001396FC93EE93129744C0F093D703E09360
:102A4000D6033FC06D917C9111976616770608F406
:102A50003B01BD0112960D90BC91A02DB4CF6091A9
:102A6000D4037091D50368157905E9F468167906E1
:102A7000D0F440910001509101014115510541F4FC
:102A80004DB75EB76091040170910501461B570B6D
:102A9000E417F507C0F4F093D503E093D403F901EC
:102AA000918380830EC00E9479137C01009759F0B6
:102AB000A801BE010E94A015CE010E941114C701F9
:102AC00004C0CE0102C080E090E0CDB7DEB7EEE0FA
:102AD0000C941116FC0188279927E8942191203243
:102AE000E9F3293010F02E30C8F32B3241F02D32AB
:102AF00039F4689404C00E94D315820F911D21916E
:102B000020532A30C0F31EF4909581959F4F08956D
:102B10009111089581548A5108F4805E855A089570
:102B2000FB01DC0105900D920020E1F70895FC0106
:102B300005900020E9F7809590958E0F9F1F0895CE
:102B4000FB01DC0102C001900D9241505040D8F7CA
:102B50000895FC018191861721F08823D9F79927E0
:102B600008953197CF010895FB01DC018D9101900B
:102B700080190110D9F3990B0895FB01DC01019034
:102B80000D920020E1F70895FB01DC014150504017
:102B900048F001900D920020C9F701C01D924150EC
:102BA0005040E0F708957AE0979F902D879F802D01
:102BB000910D11240895F999FECF92BD81BDF89A27
:102BC000992780B50895262FF999FECF1FBA92BD97
:102BD00081BD20BD0FB6F894FA9AF99A0FBE0196FE
:102BE00008952F923F924F925F926F927F928F92B1
:102BF0009F92AF92BF92CF92DF92EF92FF920F938C
:102C00001F93CF93DF93CDB7DEB7CA1BDB0B0FB695
:102C1000F894DEBF0FBECDBF09942A883988488852
:102C20005F846E847D848C849B84AA84B984C884E8
:102C3000DF80EE80FD800C811B81AA81B981CE0FDF
:102C4000D11D0FB6F894DEBF0FBECDBFED010895C4
:102C500014E0CAE9D4E004C0FE010E947513229674
:0A2C6000CC39D107C9F7F894FFCF73
:102C6A000000D8038000640000000408090A0B3041
:102C7A002E332E3100302E312E30004E6F7620202A
:102C8A003720323031352031353A35323A35320053
:102C9A00436C656172696E672074686520454550AA
:102CAA00524F4D20616464726573736573004D41C0
:102CBA005820434F4D4D414E445320657863656516
:102CCA006465640048454C5000434C520044554DDD
:102CDA005000493243004649440043494400496E82
:102CEA0076616C696420636F6D6D616E64000900C2
:102CFA003A200000000000E509B8095E0966097972
:102D0A0009880900000000F00D5C0F720D8B0D7D23
:102D1A000DCE0D0D0A006E616E00696E66006F764B
:042D2A0066002E0011
:00000001FF
