:100000000C9483000C94AB000C94AB000C94AB00EC
:100010000C94AB000C94AB000C94AB000C94AB00B4
:100020000C94AB000C94AB000C94AB000C94560DEC
:100030000C94AB000C94AB000C94AB000C94AB0094
:100040000C94A3120C94AB000C9421160C94531630
:100050000C94AB000C94AB000C94AB000C94AB0074
:100060000C9476110C94AB009F07CA079307D7072F
:10007000ED0711080B081108110811082F08B10726
:10008000D70BAF0CF70AAF0C750BAF0CD60A850A6D
:10009000AF0CAF0CAF0CAF0CEF0B8C09AF0C6E0AB2
:1000A000AF0CBB0A000000080002010000030407B7
:1000B0000000000000000000010204081020408041
:1000C00001020408102001020408102004040404A2
:1000D00004040404020202020202030303030303F2
:1000E0000000000023002600290000000000250079
:1000F00028002B0000000000240027002A00EE0446
:10010000DA088C10831611241FBECFEFD8E0DEBFB3
:10011000CDBF12E0A0E0B1E0E0E4F2E302C0059060
:100120000D92AC31B107D9F725E0ACE1B2E001C0E6
:100130001D92A331B207E1F710E0C6E0D1E004C0A0
:100140002297FE010E94A517CE3FD107C9F70E9452
:1001500036170C941E190C940000CF92DF92EF9288
:10016000FF920F931F93E82FF92F05C0015011093B
:100170002109310961F1908196239417B9F305C0E3
:10018000015011092109310911F19081962394132D
:10019000F7CFC12CD12CE12CF12C0AC08FEFC81A5B
:1001A000D80AE80AF80A0C151D052E053F0579F056
:1001B00080818623841791F36C2D7D2D8E2D9F2DAC
:1001C0001F910F91FF90EF90DF90CF90089560E026
:1001D00070E080E090E01F910F91FF90EF90DF9032
:1001E000CF9008950F931F93CF93DF93EC018B0172
:1001F00088819981DC01ED91FC916F770190F0810C
:10020000E02D099588819981DC01ED91FC91B8017F
:10021000660F672F661F770B6F770190F081E02DD7
:10022000DF91CF911F910F910994DC018D919C91E9
:10023000DC01ED91FC910190F081E02D60EF0994DB
:10024000DC018D919C91DC01ED91FC910190F0819C
:10025000E02D67EF0994CF93DF93EC0188819981BA
:10026000DC01ED91FC910190F081E02D69EF0995A1
:1002700088819981DC01ED91FC910190F081E02D64
:1002800062E0099588819981DC01ED91FC910190F2
:10029000F081E02D65E0DF91CF9109941F93CF931A
:1002A000DF93EC018A818823D9F1CE010E941501E8
:1002B00088819981DC01ED91FC910190F081E02D24
:1002C00069E7099588819981DC01ED91FC91AB8109
:1002D000BC810190F081E02D6C9109958881998114
:1002E000DC01ED91FC91AB81BC810190F081E02DAE
:1002F00011966C91099512E08A81181758F4EB81D8
:10030000FC81E10FF11D608170E0CE010E94F200DE
:100310001F5FF2CFCE01DF91CF911F910C9420018E
:10032000DF91CF911F910895CF92DF92EF92FF92CC
:100330000F931F93CF93DF938C01EB01C42ED22E2A
:100340006EE071E0CE010E9404197C016FE270E062
:10035000CE010E94F918009739F46CE570E0CE01E7
:100360000E94F918009711F0EC012196E114F104B4
:1003700051F4FE0101900020E9F7EC1BEF5FD8017A
:100380001296EC9306C0EC1AFD0AE394E394F8018C
:10039000E282D80113968D919C9114970E945B186C
:1003A000F801E280F12CC70101960E94C317D80121
:1003B00014969C938E931397FC01EE0DFF1D1082F3
:1003C000FC01C082D18212964C9150E042505109FA
:1003D000BE010296DF91CF911F910F91FF90EF9098
:1003E000DF90CF900C94EA18DC018D919C91DC0198
:1003F000ED91FC910480F581E02D09940F931F93FA
:10040000CF93DF93FC012085213749F0293709F08C
:1004100049C0DF91CF911F910F910C944E01FC01C7
:10042000E556FF4F0190F081E02D309709F450C060
:10043000DC01A75BBF4F4D915C919A0121503109BE
:1004400037FD9A01B90175956795062F40E050E098
:1004500020E030E04E5F5F4F2017A0F4EC01C40FA6
:10046000D51F1F81DC01A20FB31F18961C9318978C
:10047000C885D0E8CD9F1019112418961C932F5FC2
:100480003F4FE8CFDC01A60FB11D17962C911797AF
:10049000222311F018961C920896DF91CF911F919C
:1004A0000F910994FC01E356FF4F0190F081E02D7C
:1004B000309771F0AC01475F5F4FDC01A75BBF4F26
:1004C0006C916150822FDF91CF911F910F91099410
:1004D000DF91CF911F910F9108950F931F93CF93A9
:1004E000DF93EC018A0188819981DC01ED91FC9117
:1004F0006F70606E0190F081E02D0995B801CE011A
:10050000DF91CF911F910F910C94F2000F931F93E5
:10051000CF93DF93EC018A0188819981DC01ED9111
:10052000FC916F7060690190F081E02D09958881E0
:100530009981DC01ED91FC91602F6F770190F08142
:10054000E02D099588819981DC01ED91FC91B8013C
:10055000660F672F661F770B0190F081E02DDF910A
:10056000CF911F910F910994CF92DF92EF92FF925A
:100570000F931F93CF93DF9300D01F92CDB7DEB7B9
:100580008C01F42E2A833B8369830E941501D801D4
:100590008D919C91DC01ED91FC910190F081E02D19
:1005A000698109952A81E22EC22E3B81D32E8C2DA2
:1005B0008E198F1540F4F60161916F0170E0C8014A
:1005C0000E94F200F4CFC8010F900F900F90DF91BE
:1005D000CF911F910F91FF90EF90DF90CF900C94EF
:1005E00020019A01613751F4FA0101900020E9F7E6
:1005F0003197E41BF50B4E2F0C94B4020895AB0118
:1006000061E70C94F102DC018D919C91DC01ED918C
:10061000FC910190F081E02D0994603DC1F028F437
:10062000603969F0603C79F00895643FA1F0653F5E
:10063000B1F0603EC9F4FC01E357FF4F13C0FC0169
:10064000E157FF4F0FC0FC01EF56FF4F0BC0FC01FD
:10065000ED56FF4F07C0FC01EB56FF4F03C0FC01F6
:10066000E956FF4F5183408308956F3F29F4FC0101
:10067000E756FF4F51834083089583569F4FFC01F7
:10068000518340830895860F911DFC01E55BFF4F68
:1006900080810895860F911DFC01E55BFF4F8081ED
:1006A0008F3709F040830895860F911D860F911DA5
:1006B000FC01EF59FF4F808191810895860F911DB4
:1006C000860F911DFC01EF59FF4F51834083089520
:1006D000FC0115821682178280E090E0DF01A80FEE
:1006E000B91F18961C92019680349105B9F7DF0165
:1006F000A85BBF4F1C9211961D921C92E756FF4FAC
:100700000190F081E02D309709F009940895FC01E3
:10071000E156FF4F1082FC011282148213820C9466
:100720006803CF93DF93EC01FC01E85BFF4F80810E
:100730008823A1F0673F31F41082CE01DF91CF9181
:100740000C94FE01FE01E75BFF4F80819181C80F91
:10075000D91F688701969183808398C08D818823F3
:1007600009F452C067FD50C081508D83FE01E80F2F
:10077000F11D608781118AC08E81882309F486C0AB
:10078000803DA1F140F4803981F0803CD9F5FE0133
:10079000EF56FF4F2EC0843FC9F0853FD9F0803E11
:1007A00089F5FE01E357FF4F03C0FE01E157FF4FFC
:1007B0000190F081E02D309729F18885698570E0FE
:1007C00090E8899F600D711D11241AC0FE01EB563F
:1007D000FF4F03C0FE01E956FF4F0190F081E02D6D
:1007E000309781F0688570E089850BC0FE01ED5679
:1007F000FF4F0190F081E02D309721F0688570E087
:100800008F8109951E8242C0862F603F28F4807F29
:1008100090E06F706F8301C090E0803F910549F1D7
:100820007CF4803C910509F124F480399105D9F0DC
:100830002DC0803D9105C9F0803E9105A1F026C0F4
:10084000893F9105E9F03CF49C01245F3109223095
:10085000310548F01BC08F3F9105C1F4CE01DF91F7
:10086000CF910C94680392E001C091E09D838E8348
:100870000DC081E08083C75BDF4F1982188206C0FC
:100880008CE192E0DF91CF910C942B01DF91CF911D
:100890000895CF93DF93EC0188819981DC01ED917C
:1008A000FC910680F781E02D09958F3FBFEF9B07F4
:1008B00031F0682FCE01DF91CF910C949103DF913D
:1008C000CF9108957F928F929F92AF92BF92CF92D5
:1008D000DF92EF92FF920F931F93CF93DF93762EC9
:1008E000EA01680110E0EE24D7FCE094FE2C4901F7
:1008F000AA2497FCA094BA2C212F30E02C173D0796
:1009000094F4C701B6010E941C1361E0872D0E9478
:100910007A14C501B4010E941C1360E0872D0E9467
:100920007A141F5FE9CFDF91CF911F910F91FF9054
:10093000EF90DF90CF90BF90AF909F908F907F907F
:1009400008950F931F93CF93DF93EC01FC01E156C1
:10095000FF4F8081811126C061E08DE00E9441142B
:1009600002ED10E028E230E042E050E06DE0CE0120
:100970000E9462046AEF70E080E090E00E941C1325
:1009800028E230E045E050E06DE0CE010E946204D4
:100990006DE770E080E090E0DF91CF911F910F91C3
:1009A0000C941C13DF91CF911F910F910895CF9359
:1009B000DF93EC0126E082E794E00E94BF1582E716
:1009C00094E099838883CE010E94A104CE010E9405
:1009D0002B01CE01DF91CF910C944E018CE192E07E
:1009E0000C9487030F931F93CF93DF931F92CDB780
:1009F000DEB7182F062F8EEF810F8231C0F4612FE2
:100A00008CE192E079830E9443035981813079F42B
:100A1000402F612F8CE192E00E945E03602F812FB6
:100A20000F90DF91CF911F910F910C947A140F903A
:100A3000DF91CF911F910F9108951F93CF93DF9373
:100A4000182FEB018631A8F5682F8CE192E00E9407
:100A500043038330F9F0843061F58EEF810F8231EA
:100A600080F4E12FF0E0E553FD4F408150E0CA01F2
:100A7000880F991F840F951FBE018F519D4F0E94B3
:100A8000F30EAE01612F8CE192E0DF91CF911F91C7
:100A90000C945E03133041F08BEF810F823020F015
:100AA00087EF810F833068F7BE01812F0E94B91351
:100AB000E8CFDF91CF911F910895DF92EF92FF92DF
:100AC0000F931F93CF93DF93082FE62E833008F008
:100AD0008CC0182F110F110F110F185F173108F06C
:100AE00016E1C02FCC0FCC0FCC0FD0E0FF24F39435
:100AF000C11758F58EEF8C0F823120F56C2F8CE1E9
:100B000092E00E944303813039F06C2F8CE192E037
:100B10000E944303811116C0DD24D3948F2D8E21B2
:100B200009F4D12C6C2F8CE192E00E9443038130B8
:100B300009F044C0DF294D2D50E06C2F8CE192E08C
:100B40000E945E03FF0CCF5FD3CF01110AC0DC7F90
:100B5000F8949BB18D2F80958923DE218D2B8BB945
:100B60002BC00130E1F42D2F2E21F89495B18D2F5B
:100B70008F7380958923922F9F73892B85B988B1B4
:100B8000E22EE294E694E69433E0E322D295D69501
:100B9000D695D370D095D823ED2AE8B80DC0DF7074
:100BA000F89498B18D2F880F880F80958923ED22B6
:100BB000EE0CEE0C8E2988B9789417C06C2F8CE15E
:100BC00092E00E9443038111B6CFDD2009F4B3CF38
:100BD0006C2F8CE192E00E945403019709F4ABCF93
:100BE00062E08C2F0E944114A6CFDF91CF911F911C
:100BF0000F91FF90EF90DF900895CF93C82F88302A
:100C000058F5409181035091820321E030E0082E95
:100C100002C0220F331F0A94E2F7672B49F4209594
:100C2000309524233523309382032093810314C00D
:100C3000242B352B30938203209381038091BC02B7
:100C400081110AC08C2F0E949C13AC016C2F8CE187
:100C500092E0CF910C946D02CF910895DB019A013F
:100C60009091BD029C30D0F54091BE02682F70E09B
:100C7000442369F0E42FF0E0E254FD4F8081FB0152
:100C8000E553FD4F808341504093BE0207C0FB01F6
:100C9000E553FD4F90839F5F9093BD02FB01E553A9
:100CA000FD4F1A161B067CF41216130664F44081DD
:100CB00050E0CA01880F991F840F951FAD018F5115
:100CC0009D4F0C942E0E208130E0C901880F991F92
:100CD000820F931F8F519D4F0C94AC0E63E171E016
:100CE0008CE192E00C94FF02CF93DF93C82FD0E009
:100CF000C553DD4F288130E0C901880F991F820F4D
:100D0000931F8F519D4F0E94B20E88819091BD021A
:100D1000891306C0882379F081508093BD020BC0EF
:100D2000992349F0E091BE02EF5FE093BE02F0E04C
:100D3000E254FD4F80838FEF8883DF91CF91089538
:100D40001F93CF93DF93162FC82FD0E0FE01E858F2
:100D5000FC4F90811923C558DC4F411103C0988185
:100D6000911741F0412F50E0682F8CE192E00E94F2
:100D700086021883DF91CF911F910895833020F56B
:100D8000282F30E0F901E258FC4F6083672BE1F037
:100D9000F901E858FC4F9081811103C069B16C7F63
:100DA0000FC0813049F463B126B140E4249F900123
:100DB00011246F73622B04C066B16C7366956695DF
:100DC000692341E00C94A006089580917E03882356
:100DD00049F069B18091780368236C7F40E080E03E
:100DE0000E94A00680917F03882379F063B186B1C9
:100DF00020E4829FC00111246F73682B80917903D6
:100E0000682340E081E00E94A0068091800388234F
:100E100059F066B16C736695669580917A03682384
:100E200040E082E00C94A0060895109207038FEF33
:100E300080930A010895FF920F931F93CF93DF933E
:100E4000182FEB01682F8CE192E00E9443038F374B
:100E500009F405C1612F8CE192E00E9443038630C2
:100E600041F480910703882321F0C630D10509F0B1
:100E7000E3C00EEF010F0231B8F4C430D105A1F088
:100E8000E12FF0E0E553FD4F80818C3068F490E075
:100E90009C01220F331F280F391FC9018F519D4F0D
:100EA0000E94580F8111CBC0B2EFFB2EF10E87E0EC
:100EB0008F1550F061E070E0C230D10511F060E0B4
:100EC00070E08F2D0E94FD050231E8F4E12FE695D8
:100ED000E695E695812F8770F0E0E858FC4F21E019
:100EE00030E0082E01C0220F0A94EAF7209719F08B
:100EF000CB30D10521F48081822B808304C02095E2
:100F000080812823208340E050E0612F8CE192E033
:100F10000E945E03CC30D10508F083C0FE01EC5C7A
:100F2000FF4F0C94A31787E08F1508F498C0023187
:100F300020F460E0812F0E94411442E008C0023199
:100F400008F08DC060E0812F0E94411440E0612FC5
:100F50008CE192E0DF91CF911F910F91FF900C9463
:100F60004A03023108F07BC062E0812F0E944114E5
:100F70004BE0612F8CE192E00E944A0341E050E097
:100F8000612F8CE192E0DF91CF911F910F91FF9043
:100F90000C945E03023108F062C060E0812F0E9471
:100FA0007A1461E0812F0E94411441E0D0CF1330C8
:100FB00049F08BEF810F823028F087EF810F83306B
:100FC00008F04DC061E0812F0E94411460E070E0A4
:100FD000812F0E94B91343E0BACF023108F03FC01D
:100FE00044E0612F8CE192E00E944A03E12FF0E09F
:100FF000E553FD4F80818F3F31F190E09C01220F3E
:10100000331F280F391FC9018F519D4F0E94580F60
:10101000811125C018C08EEE810F823000F546E0A8
:1010200096CF67E271E08CE192E0DF91CF911F9162
:101030000F91FF900C94FF020E9415071ACF812F89
:101040000E94740631CF4FEF5FEF6FEF7FEF812F7C
:10105000DF91CF911F910F91FF900C942E06DF919D
:10106000CF911F910F91FF900895CF93C0E08EEE26
:101070008C0F823028F466E070E08C2F0E941B07F2
:10108000CF5FC631A1F781E08093070389EA93E03F
:10109000CF910C94FE0F0F931F93CF93DF9381E0BA
:1010A0008093BC028091070381110E941507109262
:1010B0007E031092780310927B0310927F031092AC
:1010C000790310927C031092800310927A0310929D
:1010D0007D03CBECD2E010E00FEF82EF810F883080
:1010E00018F462E070E006C08EEF810F823128F4C0
:1010F00061E070E0812F0E941B0709931F5F16318A
:1011000061F710928203109281031092BE02109236
:10111000BD021092BC02DF91CF911F910F910895F3
:1011200025E042E068E371E08CE192E00E949401E6
:101130004DE155E060EE8CE192E00E940D034DE53B
:1011400055E060E98CE192E00E940D034DEF55E01F
:1011500060EC8CE192E00E940D034EEB56E060EDF6
:101160008CE192E00E940D034BE157E064EF8CE1CB
:1011700092E00E940D0342EF54E065EF8CE192E0B3
:101180000E940D034EE659E060EF8CE192E00E9470
:101190003D034BE458E06FEF8CE192E00E94350391
:1011A00040E051EE60E070E08CE192E00E94D704F4
:1011B0000C944B08CF93DF93C1EED2E0CE010E9496
:1011C000120E239683E0C530D807C1F7DF91CF9187
:1011D0000895682F89EA93E00C94BF0F89EA93E0A1
:1011E0000E946F0F0895AF92BF92DF92EF92FF922D
:1011F0000F931F93CF93DF931F92CDB7DEB7F82ED7
:101200005B01D42E6F3F8FEF7807C1F06F2D89EA15
:1012100093E029830E9408108A2D0E94E908298101
:10122000622F89EA93E00E94121080910503909149
:101230000603009729F00E94561302C0A12CB12C7E
:101240004D2D6F2D89EA93E00E9486100D2D10E040
:1012500089EA93E00E94670F081719071CF461E9F7
:1012600071E009C089EA93E00E94670F8017910737
:1012700034F46EEA71E08CE192E00E94FF02F09299
:101280000803A09209035AE0E52E53E0F52EA12CA5
:10129000B12CA016B1069CF042E04D0D28E033E0E1
:1012A00067E78CE192E00F90DF91CF911F910F9152
:1012B000FF90EF90DF90BF90AF900C94B40289EA5A
:1012C00093E00E94670F892B39F30E94EE08F70123
:1012D00081937F01FFEFAF1ABF0ADBCFCF92DF927E
:1012E000EF92FF920F931F93CF93DF93CDB7DEB7AB
:1012F00029970FB6F894DEBF0FBECDBF362F8A01F7
:1013000090E0FC01E956F109E231F10508F027C34C
:10131000E05CFF4F0C94A317DA0111962C91922FE9
:10132000987125FF03C06AEC71E057C0FA01808113
:1013300026FB222720F941E02427983069F158F450
:1013400091110DC3682F89EA93E039870E94081034
:10135000B2E0FB2E06C09031D1F1983109F470C093
:10136000FEC23985F31678F4F801EF0DF11D918175
:101370008081F0E89F9F8019112439870E94E90835
:10138000F394F394EECF89EA93E00E94891086E407
:1013900090E00E945613E3C242816381363071F4BB
:1013A000B0E86B9FB0011124640F711DF8019581A5
:1013B0004481F0E89F9F4019112406C030E8639FE4
:1013C000401911246FEF7FEF0E94F308C8C2E0912B
:1013D0000A01E7303CF06AEE71E08CE192E00E9495
:1013E000FF02BDC2D80112969C91129713964C91A0
:1013F000663089F4B0E84B9FA0011124490F511DBC
:10140000D80115963C91159714969C91B0E83B9F96
:101410009019112406C0F0E84F9F901911244FEF46
:101420005FEFEF5FE0930A0135E0E302F001112482
:10143000E85BFC4F808352834183938324838FC274
:1014400060910A0116163CF470E0262F332727FD21
:10145000309595E00FC08FEF80930A0180C2949F72
:10146000F001959FF00D1124E85BFC4F4081481777
:1014700039F07F5F472F50E02417350784F770E07D
:1014800015E0872F90E02817390724F1783000F510
:10149000AC014F5F5F4F149FD001159FB00D112419
:1014A000A85BBC4F4C91189FF001199FF00D1124BF
:1014B000E85BFC4F408311968D919C91129792832B
:1014C000818313968C911397838314968C918483D4
:1014D0007F5FD7CF615060930A0141C2DA012C913E
:1014E00011968C91B0E88B9FC0011124820F911D41
:1014F000009721F0909306038093050380910703E2
:1015000081112DC20E9435082AC2653008F427C215
:10151000FA01F080E180D280C38014818EEF8F0DBC
:10152000823108F01CC2EF2DF0E0E553FD4FE08161
:10153000EC3060F4F0E0CF01880F991F8E0F9F1FF1
:101540008F519D4F0E94580F811105C2F0E81F9FD7
:10155000A00111244C0D511D20E8D29EB001112490
:101560006E0D711D8F2D0E942E0664E070E08F2D90
:101570000E941B07F4C1623008F4F1C1DA012C911A
:1015800011968C91B0E88B9FC0011124820F911DA0
:1015900090930C0180930B01892B09F0E0C181E04D
:1015A00090E090930C0180930B01D9C1623008F454
:1015B000D6C1FA01618170E03230A1F08281F0E899
:1015C0008F9FC0011124682B792B333059F0DA0139
:1015D00013968C9190E090E4899F902D8827112498
:1015E000682B792BF80180810E941D05B8C160EF3E
:1015F0008CE192E00E9403036CE68CE192E00E9491
:1016000003031EEF84EF810F883058F462E08CE111
:1016100092E00E9403036AE08CE192E00E940303DF
:101620000DC0113059F463E08CE192E00E94030395
:1016300068E08CE192E00E94030308C08DEF810F07
:10164000823088F389EF810F833068F3123150F4D0
:1016500064E08CE192E00E9403036EE08CE192E092
:101660000E94030380EF810F823050F466E08CE12A
:1016700092E00E94030361E08CE192E00E94030388
:101680006FE78CE192E00E9403031F5F143109F4BD
:1016900042C0123108F0B6CF60E08CE192E00E94C7
:1016A000030361E08CE192E00E9403036BE08CE1B4
:1016B00092E00E94030361E08CE192E00E94030348
:1016C00061E08CE192E00E94030361E08CE192E032
:1016D0000E94030365E78CE192E00E94030361E04E
:1016E0008CE192E00E9403038DCF662309F437C199
:1016F000DA011C9160EF8CE192E00E9403036EE638
:101700008CE192E00E940303612F8CE192E00E9441
:101710000303163130F067EF8CE192E00E9403037F
:101720001EC1612F8CE192E00E944303682F8CE17F
:1017300092E00E940303612F8CE192E00E94540327
:10174000682F6F778CE192E00E940303612F8CE198
:1017500092E00E9454038078892B79F0612F8CE10C
:1017600092E00E945403880F892F881F990B682FDD
:101770006F778CE192E00E940303612F8CE192E08D
:101780000E9454038827907C892B29F2612F8CE1D9
:1017900092E00E945403990F880B990F982F881F8D
:1017A000682F6F778CE192E00E940303B4CF60EF63
:1017B0008CE192E00E9403036AE68CE192E00E94D1
:1017C000030312EF183010F06FE701C0612F8CE1B6
:1017D00092E00E9403031F5F1830A1F79CCFFA012B
:1017E0008381C28080FBC7F8D12CE12CF12CFC2C2A
:1017F000EE24DD24CC249581848190FB87F990E050
:10180000A0E0B0E0DC0199278827C80ED91EEA1EA7
:10181000FB1E9185808590FB87F9C80ED11CE11CC9
:10182000F11C9781868190FB87F990E0A0E0B0E001
:10183000BA2FA92F982F8827C80ED91EEA1EFB1E83
:10184000818161E08130C1F480810E94411460E0B7
:10185000D8018C910E947A1482E090E00E94561385
:1018600061E0F80180810E947A14C6010E9456133B
:1018700060E0D8018C9113C0FA0180810E947A1433
:1018800082E090E00E94561360E0D8018C910E94A3
:101890007A14C6010E94561361E0F80180810E940B
:1018A0007A14D8011B968C911B971A962C9180FB69
:1018B00027F9822F90E0A0E0B0E0582F442733278B
:1018C0002227F8019585848590FB87F990E0A0E0B8
:1018D000B0E0DC0199278827280F391F4A1F5B1FBA
:1018E0009189808990FB87F9280F311D411D511D79
:1018F0009785868590FB87F990E0A0E0B0E0BA2F4D
:10190000A92F982F8827280F391F4A1F5B1F60E0D7
:1019100080812E8339874F8358870E9441142E81FE
:1019200039854F815885D80111966C9111978C910A
:101930000E94B014F801208129839A838B837C83D1
:101940006D839E012F5F3F4F45E065E78CE192E09C
:101950000E94B40204C08F2D0E947406F7CD299610
:101960000FB6F894DEBF0FBECDBFDF91CF911F91B0
:101970000F91FF90EF90DF90CF9008958F929F92FC
:10198000AF92BF92CF92DF92EF92FF920F931F938D
:101990000E94E5068CE192E00E94F401892B29F077
:1019A0008CE192E00E944904F5CF0E94ED12609311
:1019B0007403709375038093760390937703C090BC
:1019C0007003D0907103E0907203F0907303409124
:1019D0000B0150910C014A01A12CB12C8B019C01EF
:1019E0000C191D092E093F0980169106A206B3069F
:1019F00008F051C0D501C4018C0D9D1DAE1DBF1D49
:101A00008093700390937103A0937203B093730358
:101A100012EF6EE0610F1830D8F48CE192E00E9472
:101A200043038230A9F42091810330918203012E77
:101A300002C0359527950A94E2F720FF09C0812F4F
:101A40000E949C13AC01612F8CE192E00E946D0218
:101A50001F5F1830F1F680910A0187FD1CC010E06D
:101A600005E0812F90E020910A01332727FD309572
:101A70002817390784F0089FF001099FF00D112401
:101A8000E85BFC4F618172812481438180810E94E7
:101A9000F3081F5FE6CF1F910F91FF90EF90DF904B
:101AA000CF90BF90AF909F908F9008951F920F920C
:101AB0000FB60F9211242F933F934F935F936F9321
:101AC0007F938F939F93AF93BF93EF93FF938091F7
:101AD000840387FF05C010928500109284001AC00D
:101AE00020918403332727FD30958091830390E074
:101AF000281739077CF480918403992787FD9095F6
:101B0000FC01EE0FFF1FE80FF91FEB57FC4F808120
:101B100086FD15C0809184038F5F8093840320919C
:101B20008403332727FD30958091830390E02817A5
:101B30003907BCF4809184038C305CF112C0809131
:101B40008403992787FD9095FC01EE0FFF1FE80F96
:101B5000F91FEB57FC4F808160E08F730E947A146D
:101B6000D9CF8091840090918500049680349C495F
:101B700018F480E49CE905C0809184009091850070
:101B8000049690938900809388008FEF809384035C
:101B900038C020918400309185008091840399277A
:101BA00087FD9095FC01EE0FFF1FE80FF91FEB5723
:101BB000FC4F81819281820F931F909389008093C3
:101BC000880080918403992787FD9095FC01EE0F92
:101BD000FF1FE80FF91FEB57FC4F808186FF11C0F4
:101BE00080918403992787FD9095FC01EE0FFF1FDC
:101BF000E80FF91FEB57FC4F808161E08F730E9463
:101C00007A14FF91EF91BF91AF919F918F917F9146
:101C10006F915F914F913F912F910F900FBE0F9059
:101C20001F901895209183032C30A0F431E0320FDF
:101C300030938303FC012083822F90E0FC01EE0FA0
:101C4000FF1FE80FF91FEB57FC4F88EB9BE09283D7
:101C5000818308952FEFFC0120830895DF92EF9296
:101C6000FF920F931F93CF93DF93EC01D62E7A014F
:101C7000890188818C3008F066C061E08D2D0E945A
:101C800041148881A82FB0E0FD01EE0FFF1FEA0F7D
:101C9000FB1FEB57FC4F2D2D2F739081907C922BC7
:101CA000908360E272E06E197F0977FF02C06D5F7A
:101CB0007F4F7595679575956795698340E659E0FF
:101CC000401B510B57FF02C04D5F5F4F5595479525
:101CD000559547954A836CE00E9456179CE0899F72
:101CE000B001112420E030E0A901460F571FFA018E
:101CF000EE0FFF1FE40FF51FEB57FC4F908196FD91
:101D000016C02F5F3F4F2C30310571F781110FC086
:101D10001092800082E080938100109285001092E2
:101D20008400B19A80916F00826080936F008881F7
:101D300090E0FC01EE0FFF1FE80FF91FEB57FC4F7F
:101D40008081806480838881DF91CF911F910F9182
:101D5000FF90EF90DF90089520E639E040E252E0F6
:101D60000C942E0EFC01808190E0FC01EE0FFF1F11
:101D7000E80FF91FEB57FC4F80818F7B808308951C
:101D8000FC0180818C3070F5918128E830E0291BBE
:101D9000310997FD3395220F331F220F331F62172E
:101DA00073077CF0928128E532E0291B310997FD09
:101DB0003395220F331F220F331F621773070CF462
:101DC0009B0122503109220F331F4FB7F89490E046
:101DD000FC01EE0FFF1FE80FF91FEB57FC4F32839A
:101DE00021834FBF08954F925F926F927F92AF927F
:101DF000BF92CF92DF92EF92FF920F931F93CF93F8
:101E0000DF93EC01603282E078070CF040C077FD90
:101E100006C0653B71052CF064EB70E002C060E029
:101E200070E0898128E830E0281B310987FD33956F
:101E3000220F331F220F331F5901CC24B7FCC0944B
:101E4000DC2C882777FD8095982F2A8148E552E081
:101E5000421B510927FD5395440F551F440F551F31
:101E60002A01662457FC6094762C7F926F925F92D1
:101E70004F9214EBE12EF12C00E010E020E030E076
:101E8000A9010E94EE160F900F900F900F90CE01B7
:101E9000DF91CF911F910F91FF90EF90DF90CF9046
:101EA000BF90AF907F906F905F904F900C94C00E5A
:101EB000FC01808190E0FC01EE0FFF1FE80FF91F8D
:101EC000EB57FC4F808186FB882780F9089580912D
:101ED000D90390E02091DA03821B910908952091A3
:101EE000DA038091D903281750F4E22FF0E0E5528D
:101EF000FC4F808190E02F5F2093DA0308958FEFED
:101F00009FEF0895E091DA038091D903E81730F448
:101F1000F0E0E552FC4F808190E008958FEF9FEF55
:101F200008950895CF92DF92EF92FF920F931F933F
:101F3000CF93DF937C01CB018A012091B50322234B
:101F400089F0EB016B01C40ED51ECC15DD0569F0DF
:101F50006991D701ED91FC910190F081E02DC701CD
:101F60000995F3CF642F0E944D11C801DF91CF91E5
:101F70001F910F91FF90EF90DF90CF900895CF9336
:101F8000DF931F92CDB7DEB769832091B50322237B
:101F9000D1F02091B603203240F021E030E0FC0186
:101FA0003383228380E090E015C08091B703E82F4F
:101FB000F0E0E854FC4F998190838F5F8093B703E2
:101FC0008093B60305C061E0CE0101960E944D11D9
:101FD00081E090E00F90DF91CF910895FC01138292
:101FE000128248EE53E060E070E0448355836683DC
:101FF00077838FEF91E09183808308951092DA03C5
:102000001092D9031092B7031092B6030C9490105B
:1020100081E08093B5036093D8031092B7031092C8
:10202000B60308950F93062F21E04091B60368EBA5
:1020300073E08091D8030E94F6101092B7031092BB
:10204000B6031092B5030F9108958F929F92AF92AD
:10205000BF92CF92DF92EF92FF920F931F93CF9395
:10206000DF93EC01F62ED42E48015901EE2019F130
:102070000E9408101E2D143008F013E01150B8F023
:10208000E881F98128E0129FB0011124A501940193
:1020900004C056954795379527956A95D2F7CA019A
:1020A000B9010190F081E02DCE010995E7CF60E004
:1020B000CE010E9412104D2D413208F040E22C2D2D
:1020C0006BED73E08F2D0E94AE101092DA038093B7
:1020D000D903DF91CF911F910F91FF90EF90DF9087
:1020E000CF90BF90AF909F908F900895CF92EF9236
:1020F0000F931F93C22EE12C00E010E098010E9484
:1021000025101F910F91EF90CF90089521E00C942E
:10211000761061E00C94121089EA93E00C94EE0FB3
:102120001092680481E0809366041092650461E077
:1021300082E10E947A1461E083E10E947A14E9EB63
:10214000F0E080818E7F808380818D7F808388E432
:102150008093B80085E48093BC000895413208F074
:1021600043C0909168049111FCCF91E09093680472
:10217000209366042FEF2093FB0310924004240F5A
:1021800020933F049093670490916704880F892BF4
:102190008093670480916504813061F41092650436
:1021A000809167048093BB008091BC0083FDF8CFD1
:1021B00085EC01C085EE8093BC008091680481307D
:1021C000E1F380914004841710F44091400421E42D
:1021D00034E0FB01D9018A2F821B841718F48D91FA
:1021E0008193F9CF842F089580E008950F934132B1
:1021F00008F04AC0909168049111FCCF92E090934E
:102200006804009366049FEF9093FB0310924004D0
:1022100040933F04FB0161E474E0DB019A2F961BBD
:10222000941718F491919D93F9CF109267049091AF
:102230006704880F892B809367048091650481303F
:1022400061F410926504809167048093BB008091D3
:10225000BC0083FDF8CF85EC01C085EE8093BC0007
:10226000222321F0809168048230E1F38091FB0306
:102270008F3F61F08091FB03803251F08091FB032E
:10228000803341F483E007C081E005C080E003C0F3
:1022900082E001C084E00F910895613298F42091AA
:1022A0006804243089F460931D04FC018FE194E0FC
:1022B000DC012A2F281B261718F421912D93F9CF22
:1022C00080E0089581E0089582E0089585ED80938F
:1022D000BC008091BC0084FDFCCF1092680408957E
:1022E00085EC8093BC001092680408951F920F92B1
:1022F0000FB60F9211242F933F934F935F936F93D9
:102300007F938F939F93AF93BF93EF93FF938091AE
:10231000B900887F803609F49EC078F5883209F4C8
:102320005DC090F4803109F456C038F4882309F474
:10233000F5C0883009F44FC0F5C0883109F44EC0AB
:10234000803209F45FC0EEC0803409F46AC058F4EA
:10235000803309F457C0883309F0E4C08093FB034D
:102360000E947011DFC0803509F44FC0883509F430
:102370005DC0883409F0D6C0D3C0883909F4C4C020
:10238000A8F4883709F467C038F4883609F463C0C4
:10239000803709F460C0C6C0883809F4B5C08039F8
:1023A00009F45FC0803809F0BDC05BC0803B09F410
:1023B00083C038F4803A09F466C0883A09F47CC0D6
:1023C000B1C0803C09F4A4C0883C09F4A1C0883B9A
:1023D00009F487C0A7C08091670410C090914004A1
:1023E00080913F04981770F5E091400481E08E0FD2
:1023F00080934004F0E0EF5BFB4F80818093BB0053
:1024000085EC83C08093FB038BC0E091400481E0A6
:102410008E0F809340048091BB00F0E0EF5BFB4F98
:1024200080839091400480913F046BC0E091400410
:1024300081E08E0F809340048091BB00F0E0EF5B61
:10244000FB4F80838091660481116AC081E0809394
:10245000650484EA5EC083E0809368041092FC0304
:10246000CFCF8091FC03803208F04EC0E091FC0396
:1024700081E08E0F8093FC038091BB00F0E0E3507D
:10248000FC4F8083BDCF0E9470118091FC0380328D
:1024900030F4E091FC03F0E0E350FC4F10826091D7
:1024A000FC0370E0E0916104F09162048DEF93E031
:1024B00009951092FC0336C084E080936804109262
:1024C0001E0410921D04E0916304F09164040995C8
:1024D00080911D04811105C081E080931D0410923C
:1024E0001F04E0911E0481E08E0F80931E04F0E033
:1024F000E15EFB4F80818093BB0090911E04809130
:102500001D04981708F47CCF85E88093BC000AC0AE
:1025100085EC8093BC001092680404C01092FB0309
:102520000E946611FF91EF91BF91AF919F918F91A2
:102530007F916F915F914F913F912F910F900FBEBF
:102540000F901F9018951F920F920FB60F921124A3
:102550002F933F938F939F93AF93BF9380916A0480
:1025600090916B04A0916C04B0916D04309169045A
:1025700023E0230F2D3720F40196A11DB11D05C0C6
:1025800026E8230F0296A11DB11D209369048093B4
:102590006A0490936B04A0936C04B0936D048091D3
:1025A0006E0490916F04A0917004B0917104019633
:1025B000A11DB11D80936E0490936F04A0937004CD
:1025C000B0937104BF91AF919F918F913F912F91E3
:1025D0000F900FBE0F901F9018952FB7F894609131
:1025E0006A0470916B0480916C0490916D042FBF0C
:1025F00008953FB7F89480916E0490916F04A09174
:102600007004B091710426B5A89B05C02F3F19F046
:102610000196A11DB11D3FBF6627782F892F9A2FE4
:10262000620F711D811D911D42E0660F771F881F8B
:10263000991F4A95D1F708958F929F92AF92BF92BA
:10264000CF92DF92EF92FF926B017C010E94F91210
:102650004B015C01C114D104E104F104F1F00E94CA
:1026600045170E94F912681979098A099B09683E81
:1026700073408105910570F321E0C21AD108E10889
:10268000F10888EE880E83E0981EA11CB11CC114CD
:10269000D104E104F10429F7DDCFFF90EF90DF9042
:1026A000CF90BF90AF909F908F900895823091050A
:1026B00038F0880F991F880F991F05970197F1F738
:1026C0000895789484B5826084BD84B5816084BDAA
:1026D00085B5826085BD85B5816085BDEEE6F0E09B
:1026E000808181608083E1E8F0E0108280818260F7
:1026F0008083808181608083E0E8F0E08081816078
:102700008083E1EBF0E0808184608083E0EBF0E0A7
:10271000808181608083EAE7F0E08081846080834B
:1027200080818260808380818160808380818068F5
:1027300080831092C10008958E3008F08E5087700B
:1027400020910D0190E4299F90011124822B809308
:102750007C0080917A00806480937A0080917A0076
:1027600086FDFCCF809178002091790090E0922B3B
:1027700008951F93CF93DF93182FEB0161E00E9420
:102780004114209711F460E004C0CF3FD10539F423
:1027900061E0812FDF91CF911F910C947A14E12F8A
:1027A000F0E0EC55FF4FE491E330F9F048F4E1300C
:1027B000B9F0E230A1F584B5806284BDC8BD34C0F3
:1027C000E730E9F0E83019F1E43049F58091800014
:1027D000806280938000D0938B00C0938A0024C0D5
:1027E00084B5806884BDC7BD1FC0809180008068AB
:1027F00080938000D0938900C093880015C0809199
:10280000B00080688093B000C093B3000DC0809189
:10281000B00080628093B000C093B40005C0C0389F
:10282000D1050CF0B5CFAFCFDF91CF911F910895B7
:10283000833081F028F4813099F08230A1F008953E
:102840008730A9F08830B9F08430D1F480918000CD
:102850008F7D03C0809180008F77809380000895E2
:1028600084B58F7702C084B58F7D84BD0895809133
:10287000B0008F7703C08091B0008F7D8093B0004F
:102880000895CF93DF9390E0FC01E854FF4F24912B
:10289000FC01E453FF4F8491882349F190E0880FB5
:1028A000991FFC01EC50FF4FA591B49186519F4FA9
:1028B000FC01C591D4919FB7611108C0F8948C9127
:1028C000209582238C93888182230AC0623051F440
:1028D000F8948C91322F309583238C938881822BAE
:1028E000888304C0F8948C91822B8C939FBFDF91D6
:1028F000CF9108950F931F93CF93DF931F92CDB77E
:10290000DEB7282F30E0F901EC55FF4F8491F90133
:10291000E854FF4F1491F901E453FF4F0491002351
:10292000C9F0882321F069830E9418146981E02F7F
:10293000F0E0EE0FFF1FE651FF4FA591B4919FB756
:10294000F8948C91611103C01095812301C0812BF3
:102950008C939FBF0F90DF91CF911F910F9108959E
:102960000F931F93762F90E0FC01E854FF4F649182
:10297000FC01E453FF4FE4917111762FF0E0EE0F6C
:10298000FF1FE052FF4F8591949189019A013F709A
:10299000472F0E94AD00611571058105910531F049
:1029A0006F5F7F4F8F4F9F4F9F7003C060E070E05D
:1029B000CB011F910F910895FC01818D228D90E034
:1029C000805C9F4F821B91098F7399270895FC01AA
:1029D000918D828D981731F0828DE80FF11D858DD4
:1029E00090E008958FEF9FEF0895FC01918D828D07
:1029F000981761F0828DDF01A80FB11D5D968C9153
:102A0000928D9F5F9F73928F90E008958FEF9FEF5D
:102A1000089589E796E1892B49F080E090E0892BC1
:102A200029F00E94791681110C9400000895FC0190
:102A3000848DDF01A80FB11DA35ABF4F2C91848D47
:102A400090E001968F739927848FA689B7892C937C
:102A5000A089B1898C9180648C93938D848D981317
:102A600006C00288F389E02D80818F7D80830895E0
:102A7000CF93DF93EC01888D8823C9F0EA89FB8925
:102A8000808185FD05C0A889B9898C9186FD0FC01C
:102A90000FB607FCF5CF808185FFF2CFA889B989F1
:102AA0008C9185FFEDCFCE010E941715E7CFDF9106
:102AB000CF910895CF92DF92FF920F931F93CF9300
:102AC000DF931F92CDB7DEB76C0181E0D601589637
:102AD0008C9358975B969C915B975C968C915C97D6
:102AE000981307C05096ED91FC915197808185FD18
:102AF0002EC0F601038D10E00F5F1F4F0F731127DB
:102B0000F02EF601848DF81211C00FB607FCF9CF34
:102B1000D6015096ED91FC915197808185FFF1CFC0
:102B2000C60169830E9417156981EBCF838DE80F79
:102B3000F11DE35AFF4F6083D6015B960C935B97C0
:102B40005296ED91FC915397808180620CC0D60122
:102B50005696ED91FC91579760835096ED91FC91BC
:102B6000519780818064808381E090E00F90DF91B5
:102B7000CF911F910F91FF90DF90CF900895BF925A
:102B8000CF92DF92EF92FF92CF93DF93EC016A0135
:102B90007B01B22EE889F98982E08083411581EEBC
:102BA000580761057105A1F060E079E08DE390E0E0
:102BB000A70196010E94621721503109410951096C
:102BC0005695479537952795211580E1380798F058
:102BD000E889F989108260E874E88EE190E0A70145
:102BE00096010E94621721503109410951095695F9
:102BF000479537952795EC85FD853083EE85FF85D4
:102C00002083188EEC89FD89B082EA89FB89808156
:102C100080618083EA89FB89808188608083EA897A
:102C2000FB89808180688083EA89FB8980818F7D30
:102C30008083DF91CF91FF90EF90DF90CF90BF9096
:102C400008951F920F920FB60F9211242F938F9316
:102C50009F93EF93FF93E0918204F091830480812E
:102C6000E0918804F091890482FD12C090818091E6
:102C70008B048F5F8F7320918C04821751F0E09149
:102C80008B04F0E0EE58FB4F958F80938B0401C0CE
:102C90008081FF91EF919F918F912F910F900FBEA7
:102CA0000F901F9018951F920F920FB60F9211243C
:102CB0002F933F934F935F936F937F938F939F9344
:102CC000AF93BF93EF93FF9382E794E00E941715B1
:102CD000FF91EF91BF91AF919F918F917F916F91F4
:102CE0005F914F913F912F910F900FBE0F901F90CA
:102CF000189582E794E00E94DC1421E0892B09F406
:102D000020E0822F0895109275041092740488EECA
:102D100093E0A0E0B0E08093760490937704A093D2
:102D20007804B09379048FE092E0909373048093D9
:102D3000720485EC90E090937F0480937E0484EC91
:102D400090E0909381048093800480EC90E09093D5
:102D500083048093820481EC90E0909385048093B7
:102D6000840482EC90E0909387048093860486EC40
:102D700090E0909389048093880410928B041092C1
:102D80008C0410928D0410928E040895CF92DF92DD
:102D9000EF92FF920F931F93CF93DF937C016A0111
:102DA000EB0100E010E00C151D0571F06991D701F1
:102DB000ED91FC910190F081E02DC7010995892BDF
:102DC00019F00F5F1F4FEFCFC801DF91CF911F9117
:102DD0000F91FF90EF90DF90CF9008954F925F9208
:102DE0006F927F92AF92BF92CF92DF92EF92FF925B
:102DF0000F931F93CF93DF93CDB7DEB729013A012D
:102E0000621B730B840B950B29893A894B895C896A
:102E10002A193B094C095D09298B3A8B4B8B5C8B3A
:102E20009B01AC0169897A898B899C890E9446172C
:102E3000E418F50806091709A80197010E948417EC
:102E40002A0D3B1D4C1D5D1DCA01B901DF91CF91BB
:102E50001F910F91FF90EF90DF90CF90BF90AF90B8
:102E60007F906F905F904F90089508950E94611336
:102E70000E9435170E949008C9E0D5E10E94BE0C5F
:102E80002097E1F30E940915F9CF0895DB018F9394
:102E90009F930E94A917BF91AF91A29F800D911D92
:102EA000A39F900DB29F900D11240895991B79E076
:102EB00004C0991F961708F0961B881F7A95C9F7CA
:102EC00080950895A1E21A2EAA1BBB1BFD010DC01F
:102ED000AA1FBB1FEE1FFF1FA217B307E407F507CA
:102EE00020F0A21BB30BE40BF50B661F771F881FA6
:102EF000991F1A9469F760957095809590959B013C
:102F0000AC01BD01CF010895052E97FB1EF400947E
:102F10000E949B1757FD07D00E94621707FC03D041
:102F20004EF40C949B1750954095309521953F4F4A
:102F30004F4F5F4F089590958095709561957F4FA5
:102F40008F4F9F4F0895EE0FFF1F0590F491E02DD6
:102F500009940E94B417A59F900DB49F900DA49F53
:102F6000800D911D11240895A29FB001B39FC0014F
:102F7000A39F700D811D1124911DB29F700D811DA5
:102F80001124911D0895CF93DF938230910510F4A1
:102F900082E090E0E0911105F091120520E030E030
:102FA000A0E0B0E0309739F14081518148175907CE
:102FB000B8F04817590771F482819381109729F06E
:102FC00013969C938E9312972CC090931205809326
:102FD000110527C02115310531F04217530718F0AC
:102FE000A901DB0101C0EF019A01BD01DF010280EF
:102FF000F381E02DD7CF21153105F9F0281B390BCE
:103000002430310580F48A819B816115710521F09E
:10301000FB019383828304C0909312058093110572
:10302000FE01329644C0FE01E20FF31F819391939B
:1030300022503109398328833AC020910F053091FD
:103040001005232B41F420910201309103013093AC
:10305000100520930F0520910001309101012115E9
:10306000310541F42DB73EB740910401509105015F
:10307000241B350BE0910F05F0911005E217F307C3
:10308000A0F42E1B3F0B2817390778F0AC014E5FD8
:103090005F4F2417350748F04E0F5F1F5093100500
:1030A00040930F058193919302C0E0E0F0E0CF01DF
:1030B000DF91CF910895CF93DF93009709F487C0F4
:1030C000FC01329713821282C0911105D091120532
:1030D000209781F420813181280F391F80910F05BD
:1030E000909110058217930779F5F0931005E093FE
:1030F0000F056DC0DE0120E030E0AE17BF0750F4D1
:1031000012964D915C9113979D014115510509F15E
:10311000DA01F3CFB383A28340815181840F951FDD
:103120008A179B0771F48D919C911197840F951FBD
:1031300002969183808312968D919C91139793832D
:1031400082832115310529F4F0931205E0931105CE
:103150003EC0D9011396FC93EE9312974D915D9169
:10316000A40FB51FEA17FB0779F480819181840FC2
:10317000951F0296D90111969C938E93828193811B
:1031800013969C938E931297E0E0F0E08A819B81E6
:10319000009719F0FE01EC01F9CFCE0102962881CB
:1031A0003981820F931F20910F0530911005281748
:1031B000390769F4309729F410921205109211051D
:1031C00002C013821282D0931005C0930F05DF91C5
:1031D000CF910895FB01DC014150504048F001902F
:1031E0000D920020C9F701C01D9241505040E0F7F8
:1031F0000895FC0181E090E00190061609F4CF01EA
:103200000020D1F701970895FB0151915523A9F0B2
:10321000BF01DC014D9145174111E1F759F4CD0192
:103220000190002049F04D9140154111C9F3FB0177
:103230004111EFCF81E090E001970895F894FFCF1E
:1032400000001305800001000000FF1300012E6341
:103250007070004D617820736572766F73206174B1
:1032600074616368656400556E6B6E6F776E207075
:10327000696E206D6F6465002F55736572732F61E1
:103280006A6669736865722F6465762F746D702F36
:103290006E6F6465626F74732D6863737230342F60
:1032A0006669726D776172652F6275696C642F68EB
:1032B00063737230345F6669726D6174612F686325
:1032C000737230345F6669726D6174612E696E6FFE
:1032D000004932433A20546F6F206D616E7920624D
:1032E0007974657320726563656976656400493237
:1032F000433A20546F6F2066657720627974657356
:103300002072656365697665640031302D62697489
:103310002061646472657373696E67206E6F7420D8
:10332000737570706F7274656400746F6F206D6177
:103330006E7920717565726965730000000000BFC9
:103340000F920F670F6F0F820F910F000000005A4E
:0C33500015C616DC14F514E7143815003F
:00000001FF
